:020000040800F2
:10000000102100200D020008110200081302000850
:10001000150200081702000819020008000000007D
:100020000000000000000000000000001B020008AB
:100030001D020008000000001F0200082102000845
:1000400023020008230200082302000823020008FC
:1000500023020008230200082302000823020008EC
:1000600023020008230200082302000823020008DC
:1000700023020008230200082302000823020008CC
:1000800023020008230200082302000823020008BC
:1000900023020008230200082302000823020008AC
:1000A000230200082302000823020008230200089C
:1000B000230200082302000823020008230200088C
:1000C000230200082302000823020008230200087C
:1000D00023020008952800082302000823020008D4
:1000E000230200082302000823020008230200085C
:1000F000230200082302000823020008230200084C
:10010000230200082302000823020008230200083B
:10011000230200082302000823020008230200082B
:10012000230200082302000823020008230200081B
:1001300000F002F800F05AF80AA090E8000C82449F
:100140008344AAF10107DA4501D100F04FF8AFF27C
:10015000090EBAE80F0013F0010F18BFFB1A43F0A5
:10016000010318473C4F00005C4F00000A444FF069
:10017000000C10F8013B13F0070408BF10F8014B06
:100180001D1108BF10F8015B641E05D010F8016B4B
:10019000641E01F8016BF9D113F0080F1EBF10F8AF
:1001A000014BAD1C0C1B09D16D1E58BF01F801CBD2
:1001B000FAD505E014F8016B01F8016B6D1EF9D555
:1001C0009142D6D37047000000230024002500266A
:1001D000103A28BF78C1FBD8520728BF30C148BFAA
:1001E0000B6070471FB51FBD10B510BD00F094F82F
:1001F0001146FFF7F7FF02F059FC00F0B2F803B424
:10020000FFF7F2FF03BC02F087FB0000084800473D
:10021000FEE7FEE7FEE7FEE7FEE7FEE7FEE7FEE7B6
:10022000FEE7FEE703480449044A054B7047000017
:1002300031010008101B002010210020101D00209B
:10024000101D0020704710B5431C02E010F8011B80
:1002500071B18107FAD14FF0013202C88C1A8C4378
:1002600014EAC211F9D0C01A0A0603D0C01E10BD8C
:10027000C01A10BD0A0401D0801E10BD0902FCD0B6
:10028000401E10BD10B5203AC0F00B80B1E81850E8
:10029000203AA0E81850B1E81850A0E81850BFF470
:1002A000F5AF5FEA027C24BFB1E81850A0E818500F
:1002B00044BF18C918C0BDE810405FEA827C24BF63
:1002C00051F8043B40F8043B08BF7047D20728BFF1
:1002D00031F8023B48BF11F8012B28BF20F8023B40
:1002E00048BF00F8012B7047704770477047704750
:1002F00010B500F009F8006810BD10B5044600F014
:1003000003F8046010BD000000487047B01A0020D8
:1003100000487047B01A00207546FFF7F9FFAE4657
:1003200005006946534620F00700854618B020B501
:10033000FFF778FFBDE820404FF000064FF00007C0
:100340004FF000084FF0000B21F00701AC46ACE87D
:10035000C009ACE8C009ACE8C009ACE8C0098D46EA
:10036000704710B50446AFF300802046BDE810404A
:10037000FFF745BF08B500F059F84FF6FF7000F0E1
:10038000EBFC002020490880012010231FA21E2121
:100390000090142001F074FA4FF47A7002F0E0FA41
:1003A0004FF6FF70184908804FF4784000F0D4FCF5
:1003B0000120102317A21E210090142001F060FAE2
:1003C0004FF47A7002F0CCFA4FF4FC6000F0C4FCF9
:1003D0000120102311A21E210090142001F050FAD8
:1003E0004FF47A7002F0BCFA1F2000F0B5FC012037
:1003F00010230CA21E210090142001F041FA40F2BB
:10040000DC5002F0ADFA08BD020D002057484954F7
:100410004500000052454420000000004752454579
:100420004E200000424C55452000000070B588B0B9
:10043000202223496846FFF725FF22484388028887
:100440000021084600F0C4FF01F064F9002617E01F
:1004500000240CE0002505E03DF8261088B201F0EC
:1004600053F96D1C17480088A842F5D8641C15493B
:100470004888C11700EB5171B4EBE10FEAD3761C49
:10048000082EE5D300240BE0002504E0079988B28C
:1004900001F03AF96D1C0B480088A842F6D8641C9C
:1004A00008494888C11700EB5171C910A0EBC10180
:1004B000A142E9D84FF47A7002F052FA08B070BD48
:1004C000CC4F0008A01A002038B504464FF6FF7044
:1004D00000F042FC1F2000903C48028814230021B9
:1004E000084600F0B1FD4FF4FC60394908803748F8
:1004F000028814231946002000F0C4FC1F20344950
:1005000008803248028815231946002000F0BAFC02
:100510004FF607402E4908802C48028816231946BA
:10052000002000F0AFFC1F2000902848438802887C
:100530004088143881B2002000F086FD4FF4FC6042
:100540002349088021484088143883B21F48028814
:100550004088143881B2002000F094FC1F201C4910
:1005600008801A484088153883B2184802884088A5
:10057000153881B2002000F085FC4FF60740144981
:10058000088012484088163883B210480288408894
:10059000163881B2002000F075FC4FF6FF700C4950
:1005A000088001201023224602210090002000F044
:1005B0008BFB0120009005484088123881B210233F
:1005C00004A2002000F080FB38BD0000A01A00202B
:1005D000020D0020C9EEDBDACAD0D3C0B4EFB4B448
:1005E000C1A6B5E7D7D3D3D0CFDEB9ABCBBE000021
:1005F0001CB529A0FFF768FF4FF478402A4908800E
:100600004FF6FF702949088029A00C210B46C8220B
:10061000CDE900101E210A2000F0EAFF2CA00C21D9
:100620000B46C822CDE900102D210A2000F0E0FF82
:100630004FF4FC601C4908802DA010210B46C822F5
:10064000CDE900103C210A2000F0D2FF30A010219B
:100650000B46C822CDE9001050210A2000F0C8FF47
:100660001F201149088032A018210B46C822CDE96D
:10067000001064210A2000F0BBFF36A018210B46B1
:10068000C822CDE9001080210A2000F0B1FF40F21D
:10069000DC5002F065F91CBDD3A2CEC4CFD4CABED3
:1006A000B2E2CAD400000000020D0020040D0020B8
:1006B000365831323A6162636465666768696A6BAD
:1006C0006C6D6E6F707172737475767778797A006D
:1006D000365831323A4142434445464748494A4BED
:1006E0004C4D4E4F50303132333435363738390077
:1006F000385831363A6162636465666768696A6B67
:100700006C6D6E6F707172737475767778797A002C
:10071000385831363A4142434445464748494A4BA6
:100720004C4D4E4F50303132333435363738390036
:1007300031325832343A6162636465666768696A67
:100740006B6C6D6E6F707172737475767778797A81
:100750000000000031325832343A414243444546A9
:100760004748494A4B4C4D4E4F5030313233343567
:1007700036373839000000002DE9F843002477A00F
:10078000FFF7A2FE4FF6FF700090774840881838B8
:1007900083B2754802881821002000F055FC00BF84
:1007A0004BE0724830F8140071490880DFF8B8C196
:1007B000BCF8025005EBD57C4FEA6C0CACF1190C7F
:1007C000C4EB0419CC440CF13C0C1FFA8CF3DFF899
:1007D00098C1BCF8006006EBD67C4FEA6C0CACF11B
:1007E000190CC4EB0419CC440CF13C0C1FFA8CF22C
:1007F000DFF874C1BCF8027007EBD77C4FEA6C0CD1
:10080000ACF1190CC4EB0419CC441FFA8CF1DFF8DD
:1008100058C1BCF8008008EBD87C4FEA6C0CACF1F6
:10082000190CC4EB0419CC441FFA8CF000F092FBB5
:10083000642002F095F8601CC4B2052CB1DB0024E2
:1008400013E04A4830F8140049490880C4EBC40159
:1008500001EB810101F132001E223C2100F098FBE6
:10086000642002F07DF8601CC4B2052CE9DB40F284
:10087000DC5002F075F800244EE03C4830F81400DB
:100880003B49088008460088DFF8DCC00090BCF8CF
:10089000027007EBD77C4FEA6C0CACF1190CC4EB7F
:1008A0000419CC440CF13C0C1FFA8CF3DFF8B8C0EF
:1008B000BCF8005005EBD57C4FEA6C0CACF1190C80
:1008C000C4EB0419CC440CF13C0C1FFA8CF2DFF899
:1008D00098C0BCF8028008EBD87C4FEA6C0CACF1F5
:1008E000190CC4EB0419CC441FFA8CF1DFF878C062
:1008F000BCF8006006EBD67C4FEA6C0CACF1190C2E
:10090000C4EB0419CC441FFA8CF000F09DFB64206A
:1009100002F026F8601CC4B2052CAEDB002415E002
:10092000124830F8140012490880C4EBC40101EBEE
:10093000810101F132000E490B881E223C2102F098
:100940005DF8642002F00CF8601CC4B2052CE7DBF3
:1009500040F2DC5002F004F8BDE8F883CDBCD0CE04
:10096000B2E2CAD400000000A01A0020BE19002084
:10097000020D00202DE9F84F0546894690469A461B
:10098000AB463620009000245DE004EB04103449AF
:1009900011F8100098F80010884251D104EB0410AF
:1009A0002F4901EB4000407898F80110884247D168
:1009B00010231A464946284600F00AFD00F0AAFE18
:1009C00000263BE0002734E0BAF1000F14D104EB1D
:1009D0000410234901EB4000801C805D80213941D7
:1009E000084020B11F48008800F08EFE1FE01E481E
:1009F000008800F089FE1AE004EB0410184901EBAE
:100A00004000801C805D80213941084018B1494672
:100A1000284600F08FFA681C85B2A5EB0B00102861
:100A200005D15D4609F101001FFA80F903E0781C49
:100A3000C7B2082FC8DB00BF701CC6B2202EC1DBB6
:100A400000BF601C84B2009884429EDB0748438844
:100A500002880021084600F0BBFCBDE8F88F0000CA
:100A60000A000020020D0020040D0020A01A002022
:100A70002DE9F84F0546894690469A46AB46062032
:100A80000090002465E004EB840000EB441037493B
:100A900011F8100098F80010884257D104EB840038
:100AA00000EB4410314901EB4000407898F8011008
:100AB00088424BD118231A464946284600F088FC44
:100AC00000F028FE00263FE0002738E0BAF1000FD2
:100AD00016D104EB840000EB4410244901EB4000E4
:100AE000801C805D80213941084020B12048008869
:100AF00000F00AFE21E01F48008800F005FE1CE01F
:100B000004EB840000EB4410184901EB4000801C0A
:100B1000805D80213941084018B14946284600F0DF
:100B200009FA681C85B2A5EB0B00182805D15D46B3
:100B300009F101001FFA80F903E0781CC7B2082F01
:100B4000C4DB00BF701CC6B2482EBDDB00BF601CFA
:100B500084B20098844296DB0748438802880021CB
:100B6000084600F035FCBDE8F88F0000360700208D
:100B7000020D0020040D0020A01A00202DE9F84FDE
:100B80000546894690469A46AB46082000900024C8
:100B90005DE004EB8410344911F8100098F800105F
:100BA000884251D104EB84102F4901EB400040787A
:100BB00098F80110884247D120231A464946284612
:100BC00000F006FC00F0A6FD00263BE0002734E024
:100BD000BAF1000F14D104EB8410234901EB40005B
:100BE000801C805D80213941084020B11F48008869
:100BF00000F08AFD1FE01E48008800F085FD1AE025
:100C000004EB8410184901EB4000801C805D8021BA
:100C10003941084018B14946284600F08BF9681C54
:100C200085B2A5EB0B00202805D15D4609F1010036
:100C30001FFA80F903E0781CC7B2082FC8DB00BF99
:100C4000701CC6B2802EC1DB00BF601C84B200984D
:100C500084429EDB0748438802880021084600F052
:100C6000B7FBBDE8F88F0000F2080020020D00205D
:100C7000040D0020A01A00202DE9F043804689468B
:100C8000154628231A464946404600F0A1FB00F0CD
:100C900041FD002409E015F8147005EB4400467886
:100CA00047EA062000F030FD641CB4F5C86FF2DBA3
:100CB0000448438802880021084600F089FBBDE80B
:100CC000F0830000A01A00202DE9F84F074689465E
:100CD00090461C46DDF828A04046FFF7B4FA86B2DD
:100CE000102C0CDD214604EBD17252100D4B1B88E9
:100CF00006FB123000EBD072C2F34F0507E0094942
:100D00000988A1EBC60000EBD071C1F34F0579193A
:100D100088B2234642464946CDF800A000F0B0FD17
:100D2000BDE8F88FA01A002001464906084A9269DA
:100D300042F00102064B9A61064A526822F0E062D4
:100D4000044B5A601A4652680A435A6070470000C2
:100D5000001002400000014070B50646002409481A
:100D60000588408845430021084600F017FB00F045
:100D7000D1FC00BF03E0304600F0C6FC641CAC426E
:100D8000F9D370BDA01A002000B5282000F090FC17
:100D900000BD00B5292000F08BFC00BD00B5034666
:100DA0000BB1012B1CD1002035498871F02008803F
:100DB0004FF4A07048802C2008812A2048812B20E5
:100DC000888133B9362000F073FC002000F044FC29
:100DD00027E0362000F06CFCC02000F03DFC20E055
:100DE000022B01D0032B1CD10120254988714FF41F
:100DF000A0700880F02048802C2008812A2048819B
:100E00002B208881022B06D1362000F051FCA02037
:100E100000F022FC05E0362000F04AFC602000F0E3
:100E20001BFC1749488900F043FC002000F014FC2B
:100E3000002000F011FC12490988491EC1F30F205F
:100E400000F00AFC0E490978491EC8B200F004FC03
:100E50000B49888900F02CFC002000F0FDFB0020ED
:100E600000F0FAFB06494988491EC1F30F2000F043
:100E7000F3FB03498978491EC8B200F0EDFB00BDC1
:100E8000A01A00202DE9FF4F84B081468A46002039
:100E9000039002900698A0EB09050798A0EB0A06BC
:100EA000CDF80490CDF800A0002D01DD012705E06C
:100EB0000DB9002702E04FF0FF376D42002E02DD32
:100EC0004FF0010806E016B94FF0000802E04FF0BD
:100ED000FF387642B54201DD2C4600E034464FF043
:100EE000000B21E0009A91B2019A90B200F022F832
:100EF0000398284403900298304402900398A0423B
:100F000005DD0398001B0390019838440190029876
:100F1000A04205DD0298001B02900098404400901A
:100F20000BF101001FFA80FB601C8345DADD08B07D
:100F3000BDE8F08F30B504460D462946204600F046
:100F40002DFA00F0E7FB0248008800F0DDFB30BD21
:100F5000020D0020F0B504460D4616461F462B46EE
:100F6000324629462046FFF78DFF3B46224629465A
:100F70002046FFF787FF3B46324639462046FFF7BB
:100F800081FF3B46324629463046FFF77BFFF0BDE6
:100F90002DE9F04306460F469046002445460320BF
:100FA000A0EB48093CE07A1B91B2321990B2FFF7EE
:100FB000C1FF3A1B91B2721990B2FFF7BBFF3A1909
:100FC00091B2721990B2FFF7B5FF7A1991B2321946
:100FD00090B2FFF7AFFF7A1991B2321B90B2FFF7D0
:100FE000A9FF3A1991B2721B90B2FFF7A3FF7A1BC7
:100FF00091B2321B90B2FFF79DFF3A1B91B2721B68
:1010000090B2FFF797FF641CB9F1000F03DAA0005C
:10101000801D814404E0601B80000A3081446D1E05
:10102000AC42C0DDBDE8F08370B505460E461446FF
:101030003146284600F0B2F902490889214600F0FD
:1010400071FB70BDA01A00202DE9FC4F05460E462D
:1010500017469846DDF82C9000200190274880889C
:1010600046F60401884229D124488079012825D1F7
:10107000AB46354621480088C01B401E86B2474615
:101080001E480088A0EB0B00401E1FFA80F80020CD
:101090001A4988712A2048812B20888143463A4684
:1010A00031462846CDF80090FFF7CEFF01201349C6
:1010B00088712B2048812A2088811CE0781B401CE5
:1010C00080B20190344614E02146284600F066F9CB
:1010D00000F020FB4FF0000A06E0484600F014FB49
:1010E0000AF101001FFA80FA01988245F5DB601CC5
:1010F00084B24445E8DDBDE8FC8F0000A01A002062
:1011000010B59948806940F0040097498861084605
:10111000806940F0080088610846806940F010004E
:1011200088610846806940F0010088610120FFF76E
:10113000FBFD8E48006800F070408C49086008464E
:1011400000688B49084389490860081D00686FF3EF
:101150001300091D08600846006886490843834952
:10116000091D086081480C30006840F4F8507F4940
:101170000C31086080480068C0F30B007E490860AD
:10118000084600687D4908437B490860081D0068DF
:101190006FF30B00091D08600846006840F2333108
:1011A00008437549091D086073480C30006840F415
:1011B000FF6071490C3108607148406820F0706030
:1011C0006F4948600846406840F040704860C81465
:1011D000664910310860012001F0C2FB4FF4006045
:1011E0006249143108600A2001F0BAFB4FF4006034
:1011F0005E4910310860782001F0B2FB112000F048
:1012000057FA782001F0ACFB362000F051FA0020AC
:1012100000F022FA3A2000F04BFA052000F01CFA08
:10122000B22000F045FA0C2000F016FA0C2000F075
:1012300013FA002000F010FA332000F00DFA3320EA
:1012400000F00AFAB72000F033FA352000F004FA73
:10125000BB2000F02DFA282000F0FEF9C02000F09D
:1012600027FA2C2000F0F8F9C22000F021FA012022
:1012700000F0F2F9C32000F01BFA0B2000F0ECF9AB
:10128000C42000F015FA202000F0E6F9C62000F096
:101290000FFA0F2000F0E0F9D02000F009FAA420A6
:1012A00000F0DAF9A12000F0D7F9E02000F000FA10
:1012B000D02000F0D1F9012000F0CEF9082000F094
:1012C000CBF90F2000F0C8F9112000F0C5F92A2051
:1012D00000F0C2F9362000F0BFF9552000F0BCF94B
:1012E000442000F0B9F93A2000F0B6F90B2000F0E4
:1012F000B3F9062000F0B0F9112000F0ADF920207C
:1013000000F0AAF9E12000F0D3F9D02000F0A4F910
:10131000022000F0A1F9072000F09EF90A2000F059
:101320009BF90B2000F098F9182000F095F9342073
:1013300000F092F9432000F08FF94A2000F08CF978
:101340002B2000F089F91B2000F086F91C2000F00A
:1013500083F9222000F080F91F2000F07DF9292078
:1013600000F0A6F910BD0000001002400008014086
:101370003333330333330300000C01400030333385
:101380000010014010B50246012000E050430B1E42
:10139000A1F10104E1B2F9D110BD000010B503467E
:1013A0000C460A49488900F083F9181200F054F9F4
:1013B000D8B200F051F90549888900F079F9201276
:1013C00000F04AF9E0B200F047F910BDA01A002081
:1013D0002DE9F04104460D461646A019401E87B27D
:1013E000E818401E1FFA80F81149488900F060F99A
:1013F000201200F031F9E0B200F02EF9381200F0BE
:101400002BF9F8B200F028F90949888900F050F961
:10141000281200F021F9E8B200F01EF94FEA282066
:1014200000F01AF908F0FF0000F016F9BDE8F081AD
:10143000A01A00202DE9F84F80460E4617461C469C
:10144000B3462046E31704EB5373DB1021464FEA03
:10145000E47C04EB5C7C4FEAEC0CA4EBCC0CBCF120
:10146000000F02D04FF0010C01E04FF0000C63447C
:10147000224604EBD27C4FEA6C0C03FB0CF3DBB28C
:101480000093A7F12000C7B2002556E00C2C07D12D
:1014900007EB47002B4901EB800010F8059013E0A3
:1014A000102C05D1284800EB071010F805900BE030
:1014B000182C07D107EBC700244901EB800010F876
:1014C000059001E0BDE8F88F4FF0000A2FE009F029
:1014D000800030B11E48028831464046FFF7A4FD27
:1014E00007E00A9828B91B48028831464046FFF7B2
:1014F0009BFD4FEA49604FEA1069701C86B216489E
:101500004088B04200DCDDE7A6EB0B00A0420AD128
:101510005E4608F101001FFA80F80F480088404538
:1015200000DCCFE706E00AF1010000F0FF0ABAF1A3
:10153000080FCCDB00BF681CC5B200988542A5DB54
:1015400000BFBFE7EA3700085E3C00084E420008D3
:10155000020D0020040D0020A01A00202DE9FF4FED
:1015600081B0074691461E460E9D4FF0000A0024AA
:1015700039E0301B401EC1B20A20FFF703FFB9FB60
:10158000F0F00A21B0FBF1F201FB1208BAF1000FF2
:1015900016D1701EA04213DDB8F1000F0ED100204D
:1015A000AB4605EBDB71491001FB0471009088B27A
:1015B0002B4620220299FFF73DFF12E04FF0010A6F
:1015C0000020AB4605EBDB71491001FB0471009074
:1015D00088B208F13001CAB22B460299FFF72AFF00
:1015E00000BF601CC4B2B442C3DB05B0BDE8F08FDD
:1015F0002DE9F84704460D4690469946DDE909670E
:1016000004F0FF0A08EB04001FFA80F809EB05005C
:101610001FFA80F916E0444502DB5446A81985B24A
:101620004D4500DB14E0002000903A78334629460F
:101630002046FFF7FFFE304606EBD07104EB610158
:101640008CB27F1C38787E2802DC38782028E2DAD9
:1016500000BFBDE8F88700004FF48071124A1160A6
:1016600000BF111F09684EF68072114000F07F0222
:10167000114300F0800241EA42110B4A121F11602F
:101680000A4909684FF60702114000F47F4241EA17
:101690006211064A116000BF5115034A121D116004
:1016A000121F116070470000100801400C0C01402F
:1016B0004FF48071124A116000BF1149083909685E
:1016C0004EF68072114000F07F02114300F080025C
:1016D00041EA42110A4A083A11600A4909684FF67C
:1016E0000702114000F47F4241EA6211054A11608D
:1016F00000BF5115024A1160121F116070470000AF
:10170000140801400C0C014000B503461846FFF7D1
:10171000A3FF00BD00B502490889FFF7C9FF00BD5E
:10172000A01A002030B505460C462846FFF7C0FF3A
:101730002046FFF7E9FF30BD0CB54FF6FF70FFF70D
:101740000BFB1F200B4908804FF6FF700A490880E9
:101750000AA01021CDE9001009490988183988B27A
:101760001023C8220021FFF743FF4FF478400149BE
:1017700008800CBD020D0020040D002052535400BF
:10178000A01A002000B5002015490861C860142087
:10179000486100208861C8610846006840F0010087
:1017A0000860084640680F4908400D4948600846EF
:1017B00000680D4908400A4908600846006820F49E
:1017C000802008600846406820F4FE004860002041
:1017D000886000214FF0006000F008F800BD0000B4
:1017E000001002400000FFF8FFFFF6FE024A0A4028
:1017F0000243024B1A60704780FFFF1F08ED00E0B4
:1018000010B586B00024184B0FCBCDE90423CDE9E9
:10181000020100BF21E02046FFF7C0FA13A0FEF747
:1018200053FE1F20144908800120009002A850F8A0
:10183000242010231E21142000F022F80F4A322108
:101840001E20FFF719FA4FF47A7001F089F84FF46F
:101850007A7001F085F8601CC4B2042CDBDB002038
:10186000FFF79CFA06B010BDBC4F0008D0FDD7AA08
:10187000B2E2CAD400000000020D00203E0D00209C
:101880002DE9F84706460F4615461C46DDF824802C
:10189000B1464FF0000A65E0BAF1000F3AD104EB0F
:1018A000D471334A1288A2EB6101B14204DB3049A2
:1018B0004988091BB94201DABDE8F88728788028F1
:1018C00002DD4FF0010A4DE028780D2804D13819C7
:1018D00087B24E466D1C1BE0182C0BDBCDF8008048
:1018E0002A78182339463046FFF7A4FD06F10C008C
:1018F00086B20DE0CDF800802A782346394630467E
:10190000FFF798FD204604EBD07106EB61018EB223
:101910006D1C27E016480088001BB04204DB144809
:101920004088001BB84200DAC6E74FF0000A202CBE
:1019300006D143462A4639463046FFF71FF90EE0E6
:10194000182C06D143462A4639463046FFF790F810
:1019500005E043462A4639463046FFF70BF8AD1CF2
:10196000301986B22878002896D100BFA4E700007D
:10197000A01A002030B504460025FFF703FF1F48DA
:10198000006840F480301D49086000BF1B480068B3
:10199000400C0028FAD04FF4806018494860A01E1F
:1019A000C4B20846406840EA84404860084640683F
:1019B00040F4803048601248006840F0320010491E
:1019C00008600E48006840F080700C49086000BF55
:1019D0000A480068400E0028FAD00848406840F0E5
:1019E00002000649486005E004484068C0F38705E6
:1019F00005F00305022DF7D130BD000000100240B4
:101A00000020024010B503240BE0FFF7BDF94FF4AE
:101A1000C87000F0A5FFFFF7BCF94FF4C87000F0E4
:101A20009FFF201EA4F10101CCB2EED110BD000039
:101A30002DE9FC5F04460D4617461E46DDE90EAB58
:101A4000DDE90C894FF478405749088057A01021F0
:101A5000CDE90010564843880288A0212820FFF7CE
:101A6000C7FD54A01021CDE90010514843880288D9
:101A7000A0217820FFF7BCFD4FA01021CDE9001078
:101A80004B4843880288B4212820FFF7B1FD4BA0C2
:101A90001021CDE90010464843880288B4217820FF
:101AA000FFF7A6FD46A01021CDE90010404843886D
:101AB0000288C8212820FFF79BFD42A01021CDE914
:101AC00000103B4843880288C8217820FFF790FD2A
:101AD0003DA01021CDE90010354843880288DC2163
:101AE0002820FFF785FD39A01021CDE900103048EE
:101AF00043880288DC217820FFF77AFD34A010218A
:101B0000CDE900102A4843880288F0212820FFF7F9
:101B10006FFD102004232246A02100904020FFF7F3
:101B20001DFD102004232A46A02100909020FFF7DD
:101B300015FD102004233A46B42100904020FFF701
:101B40000DFD102004233246B42100909020FFF7B1
:101B500005FD102004234246C82100904020FFF7D5
:101B6000FDFC102004234A46C82100909020FFF776
:101B7000F5FC102004235246DC2100904020FFF7A2
:101B8000EDFC102004235A46DC2100909020FFF742
:101B9000E5FC102003230090F0216020109AFFF74D
:101BA000DDFCBDE8FC9F0000020D002078313A000A
:101BB000A01A002079313A0078323A0079323A009E
:101BC00078333A0079333A0078343A0079343A007D
:101BD0006661632069733A0000B597B000201290E7
:101BE0000B9012901F20FE4908804FF6FF70FD49B0
:101BF0000880FFF7B1F84FF47840F94908804FF6B4
:101C0000FF70FFF7A9F80020F5490880F648006842
:101C100010216423A022CDE9001028210846FFF7F7
:101C2000E7FC4FF478421421084600F01FFC002026
:101C3000EE4981F820004862CDE3EC4840680A9004
:101C400001200A998847E94890F8200000F0C00078
:101C500040286FD100200B90E44890F8200020F03D
:101C60004000E24981F820000846818913AA1298B1
:101C700022F82010DD48C18A129802EB80004180D2
:101C80001298401CC0B212901298012806D0022867
:101C900015D0032829D0042810D141E04FF6FF7257
:101CA0001421084600F0E2FBD1480088143880B2C5
:101CB0004FF4784214210A9000F0D8FB7BE3CC4823
:101CC0000088143880B24FF6FF7214210A9000F099
:101CD000CDFBC7484088143880B24FF478420146A3
:101CE0000A90142000F0C2FB65E3C1484088143814
:101CF00080B24FF6FF7201460A90142000F0B6FB46
:101D0000BB484088143880B20A90B948008814381B
:101D100080B24FF4784209900A9900F0A7FB4AE399
:101D2000BDF84C00BDF85010401A0A90002802DBA4
:101D30000A9802E040E30A9840420F90BDF84E1026
:101D400013A8C088081A0A90002801DB0A9801E04D
:101D50000A9840420E900F9840430F900E984043CF
:101D60000E90DDE90E100844059000F0DCFFCDE98F
:101D7000060100F079FFCDE9080100F0A7FF80B26D
:101D80001190BDF85400BDF85810401A0A90002870
:101D900001DB0A9801E00A9840420F9013A841899C
:101DA000C089081A0A90002801DB0A9801E00A9805
:101DB00040420E900F9840430F900E9840430E9073
:101DC000DDE90E100844059000F0ADFFCDE90601F5
:101DD00000F04AFFCDE9080100F078FF80B21090D2
:101DE000109801F0ADFB0990119801F0A9FB089043
:101DF000099901F08FFA0A9001F0FEF9CDE90C0182
:101E00004FF066327B4BDDE90C0100F09FFF0AD3F7
:101E1000794A7A4BDDE90C0101F0D2F803D311982D
:101E200008B11098F0BB0020129071484088143817
:101E300080B20A906E480088143880B24FF6FF7264
:101E400009900A9900F012FB4FF4784214210846D9
:101E500000F00CFB00226A4BDDE90C0100F0B2FF40
:101E6000CDE9080100F032FF80B213A90A90C989B8
:101E7000BDF8582013AB5B89CDE90132CDE90310E1
:101E8000BDF85400009013A8C0880990BDF8500018
:101E90000890BDF84E000790BDF84C00069007A9C9
:101EA0000EC900E002E0FFF7C3FD94E2BDF84C006C
:101EB000BDF85410401A0A90002801DB0A9801E08E
:101EC0000A9840420F90BDF84E1013A84089081A96
:101ED0000A90002801DB0A9801E00A9840420E901F
:101EE0000F9840430F900E9840430E90DDE90E107E
:101EF0000844059000F017FFCDE9060100F0B4FE9C
:101F0000CDE9080100F0E2FE80B21190BDF850006A
:101F1000BDF85810401A0A90002801DB0A9801E029
:101F20000A9840420F9013A8C188C089081A0A90E5
:101F3000002801DB0A9801E00A9840420E900F98B1
:101F400040430F900E9840430E90DDE90E10084478
:101F5000059000F0E8FECDE9060100F085FECDE930
:101F6000080100F0B3FE80B21090109801F0E8FA7A
:101F70000990119801F0E4FA0890099901F0CAF962
:101F80000A9001F039F9CDE90C014FF06632194B96
:101F9000DDE90C0100F0DAFE06D3174A174BDDE944
:101FA0000C0101F00DF853D2002012901048408827
:101FB000143880B20A900E480088143880B24FF668
:101FC000FF7209900A9900F051FA4FF478421421F7
:101FD000084600F04BFA0022094BDDE90C0111E044
:101FE000020D0020040D0020AC4F0008080D002059
:101FF000A01A00206666EE3FCDCCCCCCCCCCF03F16
:102000000000594000F0DEFECDE9080100F05EFE60
:1020100080B213A90A90C989BDF8582013AB5B8917
:10202000CDE90132CDE90310BDF85400009013A8AA
:10203000C0880990BDF850000890BDF84E00079088
:10204000BDF84C00069007A90EC9FFF7F1FCC2E1EC
:10205000BDF85000BDF85410401A0A90002801DB6A
:102060000A9801E00A9840420F9013A8C18840895D
:10207000081A0A90002801DB0A9801E00A984042F9
:102080000E900F9840430F900E9840430E90DDE95C
:102090000E100844059000F046FECDE9060100F060
:1020A000E3FDCDE9080100F011FE80B21190BDF80A
:1020B0004C00BDF85810401A0A90002801DB0A981D
:1020C00001E00A9840420F90BDF84E1013A8C08955
:1020D000081A0A90002801DB0A9801E00A98404299
:1020E0000E900F9840430F900E9840430E90DDE9FC
:1020F0000E100844059000F016FECDE9060100F030
:10210000B3FDCDE9080100F0E1FD80B21090109818
:1021100001F016FA0990119801F012FA0890099945
:1021200001F0F8F80A9001F067F8CDE90C014FF0E2
:102130006632AB4BDDE90C0100F008FE06D3A94A7C
:10214000A94BDDE90C0100F03BFF40D200201290CA
:10215000A6484088143880B20A90A44800881438F1
:1021600080B24FF6FF7209900A9900F07FF94FF4A0
:1021700078421421084600F079F900229C4BDDE9F1
:102180000C0100F01FFECDE9080100F09FFD80B2B8
:1021900013A90A90C989BDF8582013AB5B89CDE912
:1021A0000132CDE90310BDF85400009013A8C08897
:1021B0000990BDF850000890BDF84E000790BDF89A
:1021C0004C00069007A90EC9FFF732FC03E1BDF8E9
:1021D0005000BDF84C10401A089001F099F90A908F
:1021E000824800882838089001F092F909900A99ED
:1021F00001F090F87F494862BDF85000BDF84C10DE
:102200000844059001F084F906907A48406A014636
:102210000590069801F0A8F9089074480088069087
:1022200001F08EF90790089901F06AFA4FF08041A9
:10223000099001F06FF80A9001F02EF900B26D4993
:10224000888513A84089BDF84E10401A089001F007
:102250005FF90A90654840882838089001F058F9DD
:1022600009900A9901F056F86249886213A84089DA
:10227000BDF84E100844059001F04AF906905D48FB
:10228000806A01460590069801F06EF9089057485B
:102290004088069001F054F90790089901F030FA4F
:1022A0004FF08041099001F035F80A9001F0F4F800
:1022B00000B25049C8850846406A089001F0ECF821
:1022C0000990002801DB099801E0099840420228A2
:1022D0000DDC4848806A089001F0DEF80A9000287A
:1022E00001DB0A9801E00A984042022842DD002002
:1022F00012903E484088143880B20A903B480088CB
:10230000143880B24FF6FF7209900A9900F0AEF8C7
:102310004FF478421421084600F0A8F836A01021A6
:10232000CDE90010314840880A9030480088099073
:1023300002461A2128200A9BFFF75AF92D4890F8E7
:10234000300008B9012000E000202A4981F830005F
:10235000084690F8300030B190202C490870D02009
:102360002B49087005E0D0202849087090202849A2
:10237000087030E01F20274908804FF6FF70FEF7F5
:10238000EBFC25A01021CDE90010184840880A90E8
:1023900016480088099002466E2123200A9BFFF709
:1023A00027F94FF47A7000F0DBFA4FF6FF70FEF772
:1023B000D3FC17B000BD00BF0A2000F0D1FA0B9883
:1023C000401C80B20B900B98B0F57A7F02DD00F0D4
:1023D00085F801E000BF30E400BF00BFE9E700007E
:1023E0006666EE3FCDCCCCCCCCCCF03FA01A002022
:1023F00000005940080D00205450204E65656420AF
:10240000726561646A757374210000003C0D0020E0
:102410003D0D0020020D0020546F7563682053634A
:102420007265656E2041646A757374204F4B21009C
:1024300070B504460D4616460B48068029462046D0
:10244000FEF778FD611C88B22946FEF773FD681C13
:1024500081B22046FEF76EFD6A1C91B2621C90B2FA
:10246000FEF768FD70BD0000020D002070B5044647
:102470000D4616461848068004F10D018AB2193936
:1024800088B22B462946FEF7FDFC05F10D0083B20C
:10249000193881B222462046FEF7F4FC6A1C91B23C
:1024A000621C90B2FEF746FD6A1C91B2621E90B2A9
:1024B000FEF740FD6A1E91B2621C90B2FEF73AFD33
:1024C0006A1E91B2621E90B2FEF734FD06222946C2
:1024D0002046FEF75DFD70BD020D00200020704714
:1024E00010B51348806940F008001149886111480F
:1024F0000068C0F30B000F490860084600680E49E9
:1025000008430C4908600B480830006840F47840E4
:102510000849083108600949A1F10A0000F094F85F
:102520004FF6FF70FEF718FCFFF756FB012010BDB9
:1025300000100240040C0140003033881E0D0020C2
:1025400070B506460025002400201F4908601F4979
:10255000C1F8B4011C49091D0860304600F074F947
:10256000062000F01BFA00201849C1F8AC01012038
:1025700000F014FA01201449086000F00FFA00205E
:102580001249C1F8AC0100BF15E04FF6FF7000EA38
:10259000440400200C490860012000F0FFF90120EC
:1025A0000A49C1F8AC0108487438006808B1601CD9
:1025B00084B2681CC5B2102DE7DB2411012002494A
:1025C000091D0860204670BDAC8121420080214277
:1025D0002DE9FE4380460027002406E04046FFF731
:1025E000AFFF2DF81400601C84B2052CF6DB00242C
:1025F00016E0601C85B20FE03DF814003DF81510A0
:10260000884207DD3DF814603DF815002DF81400F0
:102610002DF81560681C85B2052DEDDB601C84B2B9
:10262000042CE6DB0027012405E03DF814003844C3
:1026300087B2601C84B2042CF7DB032097FBF0F018
:1026400086B23046BDE8FE832DE9F04104460D46D2
:1026500007480078FFF7BCFF064606480078FFF7FA
:10266000B7FF074626802F800120BDE8F0810000DB
:102670003C0D00203D0D00207FB504460D4602A90B
:1026800003A8FFF7E1FF064616B9002004B070BDAD
:10269000694601A8FFF7D8FF06460EB90020F5E706
:1026A000BDF80400BDF80C10884206DCBDF80C1023
:1026B000BDF80400323081420CDBBDF80C00BDF8DF
:1026C0000410884236DCBDF80410BDF80C0032302E
:1026D00081422FDABDF80000BDF80810884206DC00
:1026E000BDF80810BDF80000323081420CDBBDF8A7
:1026F0000800BDF8001088421CDCBDF80010BDF8D1
:1027000008003230814215DABDF80C10BDF8042003
:10271000881800EBD071C1F34F012180BDF808107B
:10272000BDF80020881800EBD071C1F34F0129805B
:102730000120ABE70020A9E72DE9F041044640481D
:102740000068002856D12CB13E49A1F10A00FFF7DC
:1027500093FF3DE03B49A1F10A00FFF78DFFB8B3BD
:1027600038491639B1F92C0000F0D2FE0746354938
:102770001639888900F0E4FE804632481638416AEE
:10278000404600F0F1FE0646394600F061FD054680
:1027900000F09EFE2B4916398881B1F92E0000F019
:1027A000B7FE074627491639C88A00F0C9FE804699
:1027B00024481638816A404600F0D6FE064639465F
:1027C00000F046FD054600F083FE1E491639C8821A
:1027D0001C48163890F8200000F0800038BBC0205C
:1027E0001849163981F82000084681898182C18AFA
:1027F000C1831CE01348163890F8200000F08000D8
:1028000050B11048163890F8200020F080000D4993
:10281000163981F820000AE000210A481638818222
:10282000C1834FF6FF70074916398881C882054871
:10283000163890F8200000F08000BDE8F08100001C
:102840003C8121421E0D002070B50446002500BFCA
:1028500018E004F0800018B101200C49086002E083
:1028600000200A4908606006040E00200749083964
:102870000860012000F092F801200549C1F8AC0180
:10288000681CC5B2082DE4DB70BD0000B481214294
:10289000008021421D49098801F0200111B31B4924
:1028A000091D0988C8B21A49098801F40041C9B94B
:1028B0001749098801F4804161B10A2803D0002139
:1028C000134A118020E01249098841F40041104A5E
:1028D000118019E00D2806D10D49098841F4804185
:1028E0000B4A118010E00A490988C1F30D01094A19
:1028F000505407490988491C054A11801146098826
:10290000C72901DD00211180704700000038014017
:1029100008000020D8190020014600BF70470000C1
:102920004FF0E021096921F004014FF0E02211612C
:10293000C21700EB5272C2F3C702074B1A70194656
:10294000097801EB4102C2EBC1114FF6FF7202EAB6
:10295000C101024A118070470000002002000020DF
:1029600001460D4A12884A434FF0E0235A61002283
:102970009A6101221A6100BF4FF0E022106900F055
:1029800001021AB100F48032002AF5D000224FF083
:10299000E0231A619A6170470200002001460D4A47
:1029A00012784A434FF0E0235A6100229A610122D3
:1029B0001A6100BF4FF0E022106900F001021AB165
:1029C00000F48032002AF5D000224FF0E0231A6193
:1029D0009A61704700000020F8B505460E4614467F
:1029E0001F4604B9F8BD2819401E82B2334631464D
:1029F00028460097FEF728FB00BFF3E72DE9F04FCC
:102A00000746884616469A4640F2C32070434FF464
:102A10007A71B0FBF1F000F1010906FB06F000EB62
:102A2000560B344671040A0CB91B88B25346414612
:102A3000FFF7D2FF012535E005FB05F004FB04009C
:102A400058451AD94C4517D96B1E5B041A0C08EB74
:102A5000040399B27B1B5B1C98B25346FFF7BCFF83
:102A60006B1E5B041A0CA8EB040399B27B1B5B1C66
:102A700098B25346FFF7B0FF641E63041A0C08EBCC
:102A8000050399B23B1B98B25346FFF7A5FF6304B9
:102A90001A0CA8EB050399B23B1B98B25346FFF7FB
:102AA0009BFF6D1C4D45C7D9BDE8F08F10B50920BF
:102AB000FEF760FF4820FFF733FFFEF721FB1648C3
:102AC00090F83000144981F830000020FEF766F9D4
:102AD0004FF6FF70FEF740F901201049086010A082
:102AE00000F026F8FDF746FCFDF746FEFDF780FDF9
:102AF000FEF788FFFEF784FE0020FEF74FF9064937
:102B0000086880474FF4784008490880FEF714FEB3
:102B100000F074F8002010BD080D0020B80122421A
:102B200049433A535437373839560000020D0020D4
:102B300038B5044620A0FDF7C7FC4FF47840224981
:102B400008800120202321A2642100900020FEF7AC
:102B5000BBF84FF4FC601C490880012020231DA213
:102B6000872100900020FEF7AFF81F20164908804B
:102B7000012018232246AA2100900020FEF7A4F885
:102B80000020114908800120182315A2C4210090BB
:102B90000020FEF799F800200B4908800120182337
:102BA00012A2EB2100900020FEF78EF84FF4E160B6
:102BB000FFF7D6FE38BD0000CFD4CABEC6C1B2E210
:102BC000CAD4B3CCD0F20000020D0020CFD4CABECC
:102BD000C6C10000B2E2CAD4B3CCD0F200000000FB
:102BE0003234305247422A333230000054454C3A96
:102BF0003133353238383836333635002EE0184820
:102C0000416800208847164890F8200000F08000B6
:102C100008B3134880891349098888421EDA10488E
:102C2000C08A10494988884218DA0D4881890D48C0
:102C300000881838814206DD0948C08A102802DA67
:102C4000FEF77AFD0AE0064AD18A90894FF478426D
:102C5000FFF7EEFB02E00A20FFF782FECFE700005D
:102C6000080D0020A01A00202DE9F04106460F466D
:102C700000F0DCF9041E0D4618BF0120284320F0A7
:102C80000040C0F17F6000F1E040C00F0ED0301C6A
:102C900018BF0120384320F00040C0F17F6000F1F0
:102CA000E040C00F04BF0120FDF727FB2046294666
:102CB000BDE8F081491058BFC1F140415B1058BFD9
:102CC000C3F140438B42EFF3008070474FEA11534A
:102CD000A3F58063D3F11E03A8BFD3F1200C08DB5A
:102CE0004FF0004242EAC12252EA505232FA03F057
:102CF000704709420BD4102BC4BF0020704703F566
:102D0000787CBCF1FF3F05D04FF0FF3070474FF0AB
:102D10000000704770B500F0FFF800BF49922480B2
:102D200000207047F0E7B0FA80F310FA03F10AD000
:102D3000C3F11D0303F580634FEA41504FEA03528C
:102D400002EBD12170474FF00000704751EA030CAD
:102D500017D41CF5801F58BFBCF5801F00F10680FA
:102D6000994218BF704708BF9042704707D711F5C6
:102D7000801F58BF13F5801F19D4994270478942AC
:102D800070471CF5801F08D5BCF5801FF7D58B4216
:102D900018BF704708BF824270474FF4001C1CEBFD
:102DA000410F38BF1CEB430F01D28B42704770B507
:102DB00000F0B2F8922449004FF000514FF08053D8
:102DC000FFF778BFDFF848C170B51CEA111E1EBFBF
:102DD0001CEA13159EEA0C0F95EA0C0F00F06F80A9
:102DE00081EA030423EA4C134EEAD47E21EA4C1113
:102DF00041F4801143F48013AE44A1FB024CA0FBCC
:102E00000365AEF17F7E361955EB0C05A1FB034C33
:102E10004CF10003A0FB021C16EB0C06654153F1BC
:102E20000003094218BF46F0010613F4007F0BD1DE
:102E30004FEA03314FEA0530340341EA155140EAC5
:102E400016506FF003020AE04FEAC3214FEAC52093
:102E5000F40241EA555140EA56506FF0020202EB8B
:102E60002E4201EB025585EACE710AD05FEA440C8E
:102E700018BF24F0004450F1000041F1000120EAA5
:102E8000D47040F2FE7C624500D270BDA84214BFEF
:102E90004FF080444FF04044002E08BF0024BEF1A4
:102EA000806FA8BFA1F1C041BDE8704080F2828070
:102EB0004FF0000001F1C04101F0004170479EEA6F
:102EC0000C0F0CEA131518BF95EA0C0F06D04FF043
:102ED000000081EA030E0EF0004170BD00F01CF806
:102EE0008900013E00F007B800F009B84FEA430C32
:102EF0005FEA5C5C08D081EA030100F05BB84FEA4E
:102F0000410C5FEA5C5CF6D14FF00000014970476C
:102F10000000FF070000F87F0EF1020E2EF0030EF6
:102F20005EF8046B364205D4012A43EB030515F520
:102F3000001F12D8012841EB010C1CF5001F0CD812
:102F40000ED14FEAD17C15F5001F0CEB4C0C0CF1A7
:102F5000020C08BF4CEBD37C04E04FF0080C01E0FE
:102F60004FEAD37C0CEB4C0526FA05F606F0070673
:102F7000B6F1040C06D20EEB860CBDE870404CF0A6
:102F8000010C6047DFE80CF0090B02024FF0004132
:102F90004FF00000A1F5002170BD19461046012830
:102FA00051EB010418BFD4F5001484BF002001F0D8
:102FB000004170BD0808A0F500114FEA31017047CB
:102FC00053EA010C17D41CF5801F58BFBCF5801FB5
:102FD00000F106808B4218BF704708BF82427047DD
:102FE00007D713F5801F58BF11F5801F19D48B42E6
:102FF00070479B4270471CF5801F08D5BCF5801FA9
:10300000F7D5994218BF704708BF904270474FF4F8
:10301000001C1CEB430F38BF1CEB410F01D299423F
:1030200070470FB40CBC03BCFFF7C1BE2DE9F041E3
:1030300001F5801CBCF5001FC0F2C3804FEA115C93
:1030400021EA0C510CF1FD0C41F480115FEA5C0C9B
:103050000CF5C07C01D3400049413DA4890241EAFE
:10306000905187028E0E0A0CA45D04FB04F602FB4D
:1030700006F6C6F14046A4FB0662F60D46EA422675
:1030800006FB06F4A4FB01235242C3F1404338BFC0
:103090005B1EA6FB02420024E6FB0324D20B42EA9D
:1030A0004446A6FB0623A1FB02E2A3FB07E4A41807
:1030B0004FF0000252F10002E3FB01426442C2F110
:1030C000404E38BFAEF1010EA6FB04234FF00002C4
:1030D000E6FB0E32A2FB03464FF00004B61954F192
:1030E0000004E2FB0264A1FB06E6A4FB07E816EB82
:1030F00008064FF0000858F10008E4FB016876422A
:10310000C8F1405838BFA8F10108A2FB06E4A3FBB0
:1031100008E52D194FF0000454F10004E2FB0854B7
:10312000A1FB05E6A7FB04E818EB06084FF0000634
:1031300056F10006E1FB048618F1200556F1000661
:10314000A809A8F11B08B10908F03F08B8F10A0F57
:1031500040EA86601CD901EB0C51BDE8F08100BF4C
:10316000FCF5EEE8E2DDD8D3CFCBC7C3C0BDB9B61E
:10317000B4B1AEACA9A7A5A3A19F9D9B9A98969523
:103180009392908F8D8C8B898887868584838281AA
:10319000A0FB006800FB01F208EB4208B8EB8728AF
:1031A00007D5341858EB0104D5D5401C51F1000166
:1031B000D1E7341A78EB0104CDD4401E71F100013F
:1031C000C9E75FEA4C0C5FEA9C5C0DD105D34FF078
:1031D000000001F00041BDE8F081BDE8F04170B5AC
:1031E000FFF79AFE6DDBFFBEBDE8F0414FF0000037
:1031F000004970470000F87F43004FEAD30C4FEAC4
:103200003C0C43401FBF40070CF1605113F0FE4FD0
:1032100070471CF0006F03D100200CF00041704794
:103220000CF0004343EA507010B540EACC0000F0C7
:103230001CFA00BF000000924FEA0001FFF7BABE7F
:103240004FF000414FF00000A1F500217047000051
:1032500090EA010F48BF81F0004100F15882421A04
:103260003CBF801A89184FEAD0524FF07F4C1CEABD
:10327000410FA2EBD15318BF9CEA026F00F03B80D4
:103280004FF0004C4CEA00204CEA012121FA03FCEB
:1032900010EB0C0C1ED202F1FF325FEA1C2040EB57
:1032A000C25038BF70471CF07F0F4FEA400C18BF68
:1032B000BCF17F4F38BF7047C3F12003994008BF6E
:1032C00020F00100BCF17F4F38BF7047A0F1C04033
:1032D00000F011BA4FEA3C00000A40EBC25028BF90
:1032E0001CF0FF0F4FEA400CE6D018BFBCF17F4F37
:1032F00038BF7047EAE79CEA026F05D010EA5C0F1E
:1033000008BF00F00040704710B500F0AEF900BFF4
:1033100064FBBE3E4FF47F0C1CEAD0121EBF1CEAB9
:10332000D11392EA0C0F93EA0C0F00F0858090EA1B
:10333000010F48BF42F4807240F4000C41F40000D9
:103340002CF07F4120F07F4000B58142A2EB0302C8
:103350000FF2081CACEB504EC0F100009EF800E0EC
:103360004FEA4E0E00FB0EFC38BF49004FEA2C1C02
:1033700002F5FA020CFB0EF34FEACE1E4FEA112CB7
:103380004FEAC1210EEB635E42EB22420EFB0CFCC6
:103390004FEA1C5300FB03114FEA112C4FEA013195
:1033A0000EFB0CFC4FEADC4C00FB0C11C14228BFA9
:1033B00009184CEB03335DF804EB10EB410143EBD0
:1033C000C250B2F57C0F38BF704729D512F0F00F0C
:1033D0001CBF00F1C04000F00040704700818283B4
:1033E0008485868788898B8C8D8E8F919293959614
:1033F00097999A9C9D9FA0A2A3A5A7A8AAACAEB09E
:10340000B2B3B5B7B9BCBEC0C2C5C7C9CCCED1D4A2
:10341000D7D9DCDFE2E6E9ECF0F3F7FAFE000000D2
:103420004FEA400C0CF1807CBCF17E4F28BF704706
:10343000B0F1C04000F05FB990EA010F0CEAD1137F
:1034400048BF42F48072624538BF634507D213F427
:103450007F0F16D080EA010000F00040704710B5E1
:1034600000F003F9097EFC3E00F005B880EA010097
:1034700000F00040704780EA010000F0004000F0DA
:103480003AB912F47F0F04BF0248704780EA010086
:1034900000F031B90000C07F41000B0ED3F19E0255
:1034A00008D950F400034FEA032323FA02F048BF7F
:1034B0004042704710B500F0D8F800BF4992248010
:1034C000002070476FF0004282EA20007047000041
:1034D000C10DD1F19E0206DB4FEA002343F0004309
:1034E00023FA02F07047004207D54FEA4001B1F1DC
:1034F000FE4F02D24FF00000704710B500F0B5F853
:1035000049922480002070476FEA20007047000035
:1035100010F0004148BF4042B0FA80F310FA03F2C5
:10352000C3F19D030BD051EAC35101EB12205306A6
:1035300038BF704700F1010008BF20F0010070475C
:10354000B0FA80F310FA03F2C3F19D030AD0D90553
:1035500001EB1220530638BF704700F1010008BF8D
:1035600020F00100704700004FF47F0C1CEAD012DD
:103570001EBF1CEAD11392EA0C0F93EA0C0F00F065
:10358000478090EA010F48BF42F480724FF0004C30
:103590004CEA00204CEA012102EB0302A0FB0113DC
:1035A000A2F50002002918BF43F001035B0028BF09
:1035B0004FEA330342EB22425FEA132C4CEBC2503A
:1035C0002EBFBCEB436FB2F57C0F70474FEA036C24
:1035D000BCF1004F08BF20F00100B2F57C0F38BFEE
:1035E00070470BD582F0FF0212F5803FC8BF7047CD
:1035F00000F1C040D8BF00F00040704700F5000C5B
:103600005FEA4C0C48BF7047B0F1C04000F073B89F
:1036100090EA010F0CEAD11348BF42F48072624570
:1036200038BF634504D280EA010000F000407047D3
:1036300010B500F01AF800BF8900013E00F007B88D
:1036400000F009B85FEA410C5FEA1C6C08D080EA20
:10365000010000F050B85FEA400C5FEA1C6CF6D144
:103660004FF00040A0F5800070470EF1020E2EF0E2
:10367000030E5EF8044B244204D44FEA4102B2F137
:103680007F4F11D84FEA4003B3F17F4F0CD80ED1D2
:103690004FEAD07CB2F17F4F0CEB4C0C0CF1020CDA
:1036A00008BF4CEBD17C04E04FF0080C01E04FEA7E
:1036B000D17C0CEB4C0324FA03F404F00704B4F1BE
:1036C000040C06D20EEB840CBDE810404CF0010C4B
:1036D0006047DFE80CF0070802024FF00040A0F559
:1036E000800010BD0846420018BFD2F1807288BF2A
:1036F00000F0004010BDFF2141EAD050C0057047E6
:1037000090EA010F48BF81F000413FF5A8AD421A91
:1037100004D882F00042A0EB020011444FEAD052DC
:103720004FF07F4C1CEA410FA2EBD15318BF9CEA2B
:10373000026F4AD04FF0004C4CEA00204CEA0121C5
:1037400021FA03FCB0EB0C0C0FD412F0FE0F36D0B4
:103750005FEA4C001DD5001240EBC25038BF7047E5
:103760001CF03F0F18BF70470BE0A2F101025FEAA7
:103770001C2040EBC25038BF70471CF07F0F18BFB1
:103780007047C3F12003994014BF401E20F0010090
:10379000704780084FEA122308BF7047B0FA80FCD8
:1037A000A2EB0C02CCF1280C60FA0CF093EA122F79
:1037B00004BF00EBC25070474FEAC3707047130A52
:1037C0005FEADC1008BF7047F6E79CEA026F04D09E
:1037D00010EA5C0F08BF0020704710B5FFF745FFE7
:1037E00040DFF63E81F0004070470000000000001E
:1037F000000000000000000000003F40000000004A
:1038000000000000300040003000400000000900CF
:103810000BC03D000BC03D00090018C024407FE0F4
:10382000224031800000180024C01B000D8032406F
:10383000018003801C4027401C800740004010008E
:103840006000000000000000000000000000000018
:103850001F80204040200000402020401F800000AA
:103860000000090006001F80060009000000040097
:1038700004003F800400040000000010006000000D
:103880000000000000000400040004000400040024
:1038900000000000004000000000000000000020C8
:1038A00001C006003800400000001F80204020407A
:1038B00020401F800000000010403FC0004000007A
:1038C000000018C021402240244018400000108011
:1038D0002040244024401B80000002000D00110005
:1038E0003FC0014000003C8024402440244023800D
:1038F00000001F802440244034400380000030003A
:10390000200027C03800200000001B8024402440F5
:1039100024401B8000001C0022C0224022401F8047
:10392000000000000000084000000000000000004F
:1039300000000460000000000000000004000A0015
:103940001100208040400900090009000900090019
:10395000000000004040208011000A000400180010
:10396000200023402400180000001F802040274032
:1039700029401F400000004007C039000F0001C06F
:10398000004020403FC0244024401B8000001F8096
:103990002040204020403080000020403FC0204098
:1039A00020401F80000020403FC024402E4030C0F7
:1039B000000020403FC024402E00300000000F00D7
:1039C0001080204022403380020020403FC004008D
:1039D00004003FC02040204020403FC02040204005
:1039E00000000060202020203FC020002000204058
:1039F0003FC024400B0030C0204020403FC020404A
:103A00000040004000C03FC03C0003C03C003FC03D
:103A1000000020403FC00C4023003FC020001F801A
:103A20002040204020401F80000020403FC0244014
:103A30002400180000001F802140214020E01FA02A
:103A4000000020403FC02440260019C0004018C09C
:103A500024402440224031800000300020403FC0FC
:103A600020403000000020003F80004000403F80A8
:103A7000200020003E0001C0070038002000380070
:103A800007C03C0007C038000000204039C00600D5
:103A900039C0204000002000384007C038402000D6
:103AA0000000304021C02640384020C00000000007
:103AB00000007FE0402040200000000070000C006B
:103AC0000380004000000000402040207FE0000014
:103AD0000000000020004000200000000000001056
:103AE0000010001000100010001000000000400046
:103AF000000000000000000002800540054003C0F7
:103B0000004020003FC0044004400380000000004B
:103B1000038004400440064000000000038004408D
:103B200024403FC0004000000380054005400340A2
:103B30000000000004401FC024402440200000007A
:103B400002E0055005500650042020403FC00440CC
:103B5000040003C000400000044027C000400000F3
:103B6000000000100010041027E0000000002040BA
:103B70003FC00140070004C00440204020403FC037
:103B800000400040000007C0040007C0040003C05C
:103B90000000044007C00440040003C000400000CF
:103BA00003800440044003800000041007F0045028
:103BB000044003800000000003800440045007F02C
:103BC0000010044007C00240040004000000000090
:103BD00006400540054004C00000000004001F80AE
:103BE000044000400000040007800040044007C07B
:103BF00000400400070004C0018006000400060025
:103C000001C0070001C006000000044006C001001A
:103C100006C0044000000410071004E00180060004
:103C200004000000044005C00640044000000000FD
:103C3000000004007BE040200000000000000000C5
:103C4000FFF000000000000040207BE004000000C6
:103C500000004000800040002000200040000000E4
:103C60000000000000000000000000000000000054
:103C7000000000001FCC000C00000000000000004D
:103C800008003000600008003000600000000220E2
:103C900003FC1E20022003FC1E2002200000000066
:103CA0000E1811043FFF10840C78000000000F0074
:103CB00010840F3800C0077818840078000000785E
:103CC0000F8410C411240E9800E40084000808003A
:103CD000680070000000000000000000000000000C
:103CE0000000000007E01818200440020000000057
:103CF00040022004181807E0000000000000024005
:103D0000024001800FF0018002400240000000806C
:103D1000008000800FF8008000800080000000011B
:103D2000000D000E00000000000000000000000078
:103D30000080008000800080008000800080000003
:103D4000000C000C0000000000000000000000005B
:103D50000006001800600180060018002000000026
:103D600007F0080810041004080807F0000000001D
:103D7000080408041FFC0004000400000000000008
:103D80000E0C10141024104411840E0C00000000BE
:103D90000C1810041104110412880C7000000000AB
:103DA00000E00320042408241FFC0024000000007D
:103DB0001F98108411041104108810700000000076
:103DC00007F0088811041104188800700000000032
:103DD0001C00100010FC13001C001000000000006C
:103DE0000E3811441084108411440E380000000075
:103DF0000700088C10441044088807F000000000F9
:103E000000000000030C030C000000000000000094
:103E1000000000010106000000000000000000009A
:103E20000080014002200410080810040000022055
:103E300002200220022002200220022000000000B6
:103E40001004080804100220014000800000000057
:103E50000E001200100C106C10800F00000003E028
:103E60000C1813E4142417C4082807D00000000419
:103E7000003C03C41C40074000E4001C0004100484
:103E80001FFC1104110411040E880070000003E0EF
:103E90000C1810041004100410081C10000010046A
:103EA0001FFC100410041004080807F000001004A0
:103EB0001FFC1104110417C410040818000010049A
:103EC0001FFC1104110017C010000800000003E0DF
:103ED0000C181004100410441C780040000010045A
:103EE0001FFC10840080008010841FFC1004000060
:103EF000100410041FFC1004100400000000000354
:103F00000001100110011FFE10001000000010043D
:103F10001FFC110403801464181C1004000010041A
:103F20001FFC1004000400040004000C0000100436
:103F30001FFC1F0000FC1F001FFC100400001004E9
:103F40001FFC0C04030000E010181FFC100007F019
:103F50000808100410041004080807F000001004FA
:103F60001FFC10841080108010800F00000007F0EC
:103F7000081810241024101C080A07F2000010046E
:103F80001FFC1104110011C011300E0C00040000C0
:103F90000E1C11041084108410441C3800001800FA
:103FA000100010041FFC1004100018000000100086
:103FB0001FF810040004000410041FF81000100083
:103FC0001E0011E0001C007013801C0010001FC0B8
:103FD000103C00E01F0000E0103C1FC00000100477
:103FE000180C163401C001C01634180C100410004F
:103FF0001C00130400FC13041C0010000000080443
:10400000101C1064108413041C041018000000001D
:10401000000000007FFE400240024002000000005D
:1040200030000C0003800060001C00030000000052
:104030004002400240027FFE00000000000000003D
:10404000000020004000400040002000000000016F
:104050000001000100010001000100010001000059
:1040600040004000200000000000000000000000B0
:104070000098012401440144014400FC00041000A4
:104080001FFC00880104010400880070000000008B
:104090000070008801040104010400880000000091
:1040A000007000880104010411081FFC00040000D6
:1040B00000F8014401440144014400C8000000002C
:1040C000010401040FFC1104110411001800000088
:1040D00000D601290129012901C9010600001004A7
:1040E0001FFC008401000100010400FC000400002A
:1040F0000104190419FC0004000400000000000081
:10410000000300010101190119FE00000000100464
:104110001FFC0024004001B4010C01040000000059
:10412000100410041FFC000400040000000001043F
:1041300001FC0104010001FC0104010000FC010478
:1041400001FC008401000100010400FC00040000E7
:1041500000F8010401040104010400F80000010159
:1041600001FF0085010401040088007000000000C8
:104170000070008801040104010501FF0001010431
:10418000010401FC00840104010001800000000022
:1041900000CC012401240124012401980000000026
:1041A0000100010007F80104010400000000010003
:1041B00001F8000400040004010801FC00040100EF
:1041C00001800170000C001001600180010001F00D
:1041D000010C003001C00030010C01F001000000B2
:1041E0000104018C00740170018C010400000101C4
:1041F00001810171000E00180160018001000000C2
:104200000184010C013401440184010C0000000010
:1042100000000000000001003EFC400240020000DF
:10422000000000000000FFFF000000000000000090
:10423000400240023EFC01000000000000000000BF
:10424000600080008000400040002000200000004E
:10425000000000000000000000000000000000005E
:10426000000000000000000000000000000000004E
:10427000000000000000000000000000000000003E
:10428000000F80380FFE380F80380000000000005B
:104290000000000000000000000000000100000617
:1042A00000000C00003800003100000600000C0087
:1042B00000380000300000000000000000006180B5
:1042C0000067F807F980006180006180006180006C
:1042D00061800067F807F98000618000000000003D
:1042E0000000000001C0E003E0F0063008041808F8
:1042F0001FFFFE040E080787F00381E000000000A6
:10430000000001F000060C00040408060C7001F91E
:10431000C0000E00003BE000EC18070808040C1871
:104320000003E00000000001E00007F003F81804BB
:104330001C0804170807E1D003C0E00023B0003CCC
:10434000080020080000100000000000000100002C
:104350003100003200001C000000000000000000DE
:10436000000000000000000000000000000000004D
:1043700000000000000000000000000000007F00BE
:1043800001FFC00780F00C0018100004200002009C
:1043900000000000002000021000040C001807803C
:1043A000F001FFC0007F00000000000000000000DE
:1043B0000000000000000000000042000066000055
:1043C0006600003C0000180003FFC0001800003C1D
:1043D00000006600006600004200000000000800C7
:1043E00000080000080000080000080001FFC000ED
:1043F0000800000800000800000800000800000095
:104400000000000100003100003200001C0000002C
:10441000000000000000000000000000000000009C
:10442000000000000000080000080000080000086C
:104430000000080000080000080000080000080054
:10444000000800000000000000000000000038002C
:1044500000380000380000000000000000000000EC
:104460000000000000000000000000000000000646
:1044700000001C000070000180000E0000380000E9
:10448000C0000700001C0000300000000000000019
:1044900000007F8001FFE003807006001804000820
:1044A00004000806001803807001FFE0007F800010
:1044B00000000000000000000100080100080100E9
:1044C0000803FFF807FFF8000008000008000008D4
:1044D00000000000000000000001C03802C05804C5
:1044E0000098040118040218040418061C1803F8A4
:1044F0001801E0F800000000000000000001C0E02A
:1045000003C0F0040008040808040808061808039B
:10451000F41801E7F00001E00000000000000000D6
:1045200000000300000D0000110000610000810880
:1045300003010807FFF80FFFF80001080001080059
:1045400000000000000000E007FCD006080806108C
:1045500008061008061008061838060FF00607C0EF
:10456000000000000000000000003F8001FFE003A9
:1045700084300208180410080410080410080718F2
:1045800010030FF00007C000000000000000000052
:1045900003C0000700000600000600F80607F80642
:1045A000180006E000070000060000000000000000
:1045B0000001E1E003F7F0063410041808041808BD
:1045C000040C08040C0806161803F3F001C1E000FF
:1045D000000000000000F80003FC3003063804026D
:1045E000080402080402080404100308F001FFC0D4
:1045F000007F00000000000000000000000000003C
:1046000000000000000070380070380070380000B2
:10461000000000000000000000000000000000009A
:1046200000000000000000000000301A00301C00F4
:10463000000000000000000000000000000000007A
:1046400000000000000800001400002200004100EB
:1046500000808001004002002004001008000800D3
:1046600000000000000021000021000021000021C6
:104670000000210000210000210000210000210095
:1046800000210000000000000000000008000804F5
:104690000010020020010040008080004100002244
:1046A0000000140000080000000000000003C0002B
:1046B00004C000040000080038080F380808380853
:1046C00010000C300007E00003C0000000000000F4
:1046D00000003F8000FFE0038070020F100670882A
:1046E00004C088048308047F8802C090030120006E
:1046F000FE400000080000180001F8003E0801C25A
:104700000007020007E20000FE00001FC80001F8D9
:1047100000003800000804000807FFF807FFF8044D
:10472000080804080804080804080806180803F420
:104730001801E7F00001E0000000000000003F80E9
:1047400001FFE00380700200180400080400080460
:1047500000080400100600200780C00000000400CC
:104760000807FFF807FFF804000804000804000821
:1047700004001802001003807001FFE0007F800039
:10478000000004000807FFF807FFF8040808040801
:1047900008040808040808043E0804000806001875
:1047A00001006000000004000807FFF807FFF8049C
:1047B0000808040800040800040800043E0006007D
:1047C00000060000018000000000000000003F80A3
:1047D00001FFE003807006001804000804020804CA
:1047E00002080203F00783F0000200000200040048
:1047F0000807FFF807FFF804080800080000080091
:1048000000080000080004080807FFF807FFF80484
:104810000008000000000000040008040008040074
:104820000807FFF807FFF804000804000804000860
:10483000000000000000000000000006000007006B
:10484000000104000104000104000307FFFE07FF4C
:10485000FC04000004000004000004000807FFF846
:1048600007FFF8040C08001800003E0004C780058C
:1048700003C80600F804003804001800000804000B
:104880000807FFF807FFF804000800000800000808
:104890000000080000080000080000180000600088
:1048A000000004000807FFF807800807FC00007FED
:1048B000C00003F80007C000780007800807FFF871
:1048C00007FFF804000804000807FFF807000803C2
:1048D000C00000E000003800001E000007000001DA
:1048E000C00400F007FFF8040000000000007F8013
:1048F00001FFE003807006001804000804000806A9
:10490000001803003001FFE0007F80000000040079
:104910000807FFF807FFF804040804040004040073
:10492000040400040400060C0003F80001F0000079
:104930000000000000007F8001FFE003807006009F
:10494000880400880400C806003C03003E01FFE61E
:10495000007F8400000004000807FFF807FFF80448
:104960000808040800040C00040F00040BC0061023
:10497000F003F03801E00800000800000001E0F852
:1049800003F030063010041808041808040C08045A
:104990000C080206180207F00781E0000000018001
:1049A0000006000004000004000004000807FFF8EF
:1049B00007FFF804000804000004000006000001DE
:1049C000800004000007FFE007FFF004001800006B
:1049D000080000080000080000080000080400109B
:1049E00007FFE004000004000006000007E00007E5
:1049F000FE00041FE00001F80000380001E0043E62
:104A00000007C00006000004000004000007E000EA
:104A100007FFC0041FF80007C007F80007FF800465
:104A20003FF80007C004F800070000040000000081
:104A30000004000806001807C07805F1C8003E0011
:104A4000001F800463E80780F806001804000800CF
:104A5000000004000006000007800007E008047C56
:104A600008001FF80007F800180804E00807000015
:104A700006000004000000000001000806003804E1
:104A800000F80403E8040F08047C0805F00807C0D8
:104A9000080700180400600000000000000000008B
:104AA0000000000000000000003FFFFE2000022088
:104AB000000220000220000220000200000000008E
:104AC0000000000008000007000000C000003800DF
:104AD0000006000001C000003000000E00000100D0
:104AE0000000000000000000200002200002200062
:104AF000022000022000023FFFFE00000000000034
:104B0000000000000000000000000000000000089D
:104B100000001000003000002000003000001000F5
:104B2000000800000000000000000000010000017B
:104B30000000010000010000010000010000010070
:104B40000001000001000001000001000001000060
:104B50000000000000000020000020000010000005
:104B60001000000000000000000000000000000035
:104B700000000000000000F00019F8001B180022DF
:104B800008002608002408002410003FF8001FF841
:104B900000000800001800000004000007FFF80FE4
:104BA000FFF000181800100800200800200800304E
:104BB00018001FF0000FC00000000000000007C038
:104BC000001FF00018300020080020080020080016
:104BD0003C08001C10000060000000000000000005
:104BE000000007C0001FF00038180020080020084F
:104BF00000200804101007FFF80FFFF0000010005D
:104C000000000000000000000007C0001FF00012BC
:104C100030002218002208002208003208001E106E
:104C2000000E20000000000000002000002008000E
:104C3000200801FFF803FFF80620080420080420DC
:104C40000807200003000000000000000000000E24
:104C5000000E6E001FF30031B10020B10020B10042
:104C60003191001F13002E1E00200E0030000000A6
:104C70000004000807FFF80FFFF8001008002000EC
:104C8000002000002008003FF8001FF80000080086
:104C900000000000000000000020080020080020A4
:104CA00008063FF8063FF80000080000080000086A
:104CB00000000000000000000000000000000300F1
:104CC0000003002001002001002003063FFE063FF4
:104CD000FC000000000000000000000000040008CC
:104CE00007FFF80FFFF8000188000300002FC00045
:104CF00038F80020380020080000080000000000FC
:104D00000000000004000804000804000807FFF881
:104D10000FFFF80000080000080000080000000075
:104D20000000002008003FF8003FF80010080020B5
:104D300000003FF8003FF8001008002000003FF896
:104D4000003FF8000008000000002008003FF800C5
:104D50003FF8001008001000002000002008003F6D
:104D6000F8001FF80000080000000000000007C065
:104D7000000FF00018300030080020080020080064
:104D80003008001830000FF00007C00000000000DD
:104D900000002001003FFF003FFF0010110020092C
:104DA000002008002008003038001FF0000FC0006D
:104DB00000000000000007C0001FF00038180020AD
:104DC00008002008002009001011001FFF003FFF0D
:104DD000000001000000002008002008002008005A
:104DE0003FF8003FF80008080010080020080020E5
:104DF0000000300000300000000000000000000053
:104E0000000C78001E180033080023080021080059
:104E100021880021980030F0003860000000000078
:104E20000000200000200000200000FFF003FFF839
:104E300000200800200800200800003000000000CA
:104E40000000000000002000003FF0007FF800009C
:104E500018000008000008002010003FF8007FF054
:104E600000001000000000000000200000300000E2
:104E70003C00003F800023F0000078000070002319
:104E800080003C00003000002000002000003C00BA
:104E9000003FE00023F80000E0002700003E000093
:104EA0003FE00021F80001E0003E0000200000008B
:104EB00000002008002008003838003E68002780E5
:104EC0000003C8002CF80038380020180020080023
:104ED0000000000000002000003003003C01003F03
:104EE000830023EC000070002380003C00002000C1
:104EF0000020000000000000000000000038080052
:104F000020380020F80023E8002F88003E080038F1
:104F100008002018000070000000000000000000E1
:104F20000000000000000000000008000014001F46
:104F3000F7FC300006200002000000000000000026
:104F40000000000000000000000000000000000061
:104F5000FFFFFF0000000000000000000000000054
:104F600000000000000000002000023000061FF7D3
:104F7000FC00140000080000000000000000000019
:104F80000000000000000000001800006000004069
:104F90000000400000200000100000080000040095
:104FA000000400000C00001000000000EC4F00089E
:104FB00000F8E0071F0040BCE0FF0000945000082C
:104FC0007850000868500008885000081F00000052
:104FD000E007000000F80000FF0700001FF80000D5
:104FE000E0FF000000000000FFFF0000506C656162
:104FF00073652075736520746865207374796C75AA
:105000007320636C69636B207468652063726F73CF
:1050100073206F6E207468652073637265656E2EF1
:105020005468652063726F73732077696C6C2061BC
:105030006C77617973206D6F766520756E74696C1D
:10504000207468652073637265656E2061646A759B
:1050500073746D656E7420697320636F6D706C6519
:105060007465642E00000000526F746174696F6E85
:105070003A32373000000000526F746174696F6E0D
:105080003A31383000000000526F746174696F6EFD
:105090003A393000526F746174696F6E3A300000B3
:1050A000C050000800000020D81900006C01000862
:1050B00048610008D819002038070000C80100081E
:1050C000A123D7E81E7DF8450849022B51F8061C9C
:1050D00045084510100A69085108410847FE402359
:1050E000B7F1137FFC138001120320090560091832
:1050F0003104C1023C1FF01001290813D4F2B80991
:10510000047F04410441244902101614241204218E
:105110000440948088B5C820403F7E4890850801AF
:10512000143FF801120133FFFE100A207FFC082013
:10513000042004A0180D40B4FD084008401040238E
:10514000FC4808180E17FE3010501097FE10101271
:10515000101102190D1420D6D812103BF83F3C1A3A
:1051600001801A117C29044952295014D0C210150B
:1051700008047F78180D4022401440FF7E0848083C
:10518000487F04180E2A484948888828881108C88A
:10519000E7104519023D7CFE4422021808424424CF
:1051A000441444080416227C42448023C9EE180C9F
:1051B00027FC140414A4811042084092100F17FC1D
:1051C0002040E0E0215022482C462040480840DBA7
:1051D000DA11041124025AFD082902180E1D24E1D7
:1051E00024422402040404CAD002A6212B7FFCEA34
:1051F00029A05B2108022C282110123BD3C02213C6
:10520000801F1016010401087D9005A0054009408B
:10521000092011102108C10605120213B4EF1B402A
:10522000207E15104007FE100F40F04010A0109097
:105230001108120414041012281A47EE1EB4B40800
:10524000040810380A1224212440A4BE242202108B
:105250000B2A242424208420841F941D08C1A60224
:105260004A29024D7FF802080219332A0801C809A9
:10527000108820504020B5E7A29908160A010201C3
:10528000021CFED7D3C812F812101220154001805C
:10529000014BFFFE32490229AA1AD3EE1A02181254
:1052A000041204280D0FF0081018102FF048108871
:1052B000100C190226500820CFDE180A7BF84A0885
:1052C000520853F8620610124BF84A444A486A30B2
:1052D00052204210428843064213B9AB1B8004029D
:1052E000180D084008401020201042088206502067
:1052F0000A40082010203FF0101023CBBE133FF8C7
:1053000012082C087FE8061B1F88633902290A113E
:1053100012281C10CDBCAA1820FC4204420447E409
:105320004C445284410446C4783C430440844604BF
:1053300041847FFC4004D0CE22680E8412041208FF
:10534000121012221202FFC40A2813220422084259
:10535000108260D3A208200820FFFE0820DE2D1F47
:10536000F01110022DFFFE02808C38083018C006A4
:10537000CEC402FA1CFFFE1001292E160440028042
:1053800001892213CAD4100A2820241024102007CF
:10539000FE280820F02017E01120461009151019EA
:1053A000CA170A02062C02D6D04229026D3FF82104
:1053B0000802290C691813B2E2180B0427C414441C
:1053C0001454855445021A150210112554E5542130
:1053D000042284224424140808D2BA2824802040BD
:1053E00017FE11208120423C424416641294234847
:1053F000E24822302220225022880306BEA70FE076
:10540000A06906218F7EFC428442840623CFD42BE0
:105410001FF0C86906200F04404444244414481473
:10542000500440FFFE23CABE833FF82BFFFE9C19A9
:10543000CC1009082104410281020512022BC6C1C9
:1054400022196119C01F241022202FF880180B2068
:105450003FFC22204220442084191808D0FD2080DF
:105460001080103C12FE180921FC20243C2424A0AA
:10547000022ABC06164560553E8A3CD7AA20012860
:1054800017FDFC4020504093FEFC40108011FC1C96
:1054900004F088505010209A14B3CC081E1DFCF163
:1054A00004110214FDFC101230180939FE54205466
:1054B0002091FC20152013FE1024D0F20115803F0E
:1054C000FE201B23F8133EA020402FFE832A40011C
:1054D0001381401480C6AC5B4010021A1F4429029D
:1054E0002B1FE0403A107E2D4020D0E8CC12011056
:1054F000087FFE41029D74012B1D70F41A02141BDB
:1055000024880226A82010D2AA1F7FFC0440044051
:10551000142F4824483FF80210180E2008401C8021
:10552000038006703808D0A36019521411FEFC28BD
:105530000E108831043A0254885088905010CA18CE
:105540001D5010881306D7BC01404120212023FEA6
:10555000022016201BFC1220222023FCE206190840
:1055600013FE2212022BB4A590180A782049FC9150
:10557000247D24550210107DFC552454207C285491
:105580002457FE45028C100CC3FE1110111017FC9D
:105590001110FC00191613F8120817F81A0833F83E
:1055A000D04017FC10A0111052082406A3AC1A30EA
:1055B000021210322013C7EB100A40404027FC2093
:1055C0004003F81540E7FE202D23F8220804180CAC
:1055D0002BF8320822280210B5E3028E12022B03A8
:1055E000FC061B3FF0D71902233FF0100C24882241
:1055F0004442448004BBF70129024B3FF8082BFFCB
:10560000FE064B210802133FF82408C4BB1E3FF8D6
:105610002008200E1808241022202FF80426100C31
:1056200011103FF8D116115011200113B6C119EE17
:105630001511FC1020101B2003FEF00210941050D6
:105640001110109013FE1428184410820302BACDD2
:1056500004120E1278180E087C0844FF44084418FF
:10566000441C442A021C484488121208120814D10F
:10567000D5101C08FE7F60280B147C7F44445448DE
:1056800054525406280D51544228442488423082F2
:10569000C9AB2868091FE020204040BFF8A019735B
:1056A0002A0202231FFE3818D6B5084008400FFC16
:1056B0001040104033F8320853F8920813F81204DF
:1056C0001612081FFE1043D6D022103A18063903CE
:1056D000DF1FFFF81810180349157C101010275908
:1056E0003649392173CEC46A201A180908083FFFC9
:1056F000FC010180031122811903228322422246E8
:1057000022246A2C3E226617C3800301F00C1B7C06
:1057100030D02163B2E2121018090809FE080D8684
:10572000080103380AB66841B64833B64813036A1D
:1057300005032B09A603281439A448196008185832
:105740000818C4081886081B0238045A1173CAD4F2
:105750001201151001F00813980C13880425840415
:10576000FFFE1A800318097E028004FF80040803EC
:105770002DC00408400310104860048922050E3231
:105780000670120E401C04220E32025ACF4A150334
:10579000FFC0021360021A4003390C2909590C1387
:1057A00080401A62E11810181042100C4220064284
:1057B0004006428002431295083FFFFC83CABEE5C3
:1057C000200FFFF01B047F2919B9121813011920AB
:1057D000180318800318400618200C1830081818F1
:1057E00010180C20180841F81A703B4183B2E222CD
:1057F0000814100C20380918063FF0180330300444
:10580000111430331814323398180D33B318303361
:10581000331818B333181C041A0C041A09102A017F
:10582000044A32045A02041A0604180B7E3623185E
:105830001C2603180C0504180D0C80180C084018C1
:105840000C1870180C54150C6031F05D801070014C
:10585000829BCAD4BC311407C00C1406700614060F
:1058600030031B0610041A180412081A3FD611320E
:105870000649041A0104147F801614031FFA1C033E
:105880000182049A83042A81041C80030904100EF7
:10589000118CC40321F0C40343C06403DE147403F9
:1058A00088143C03801A1C7E5A0C711183C0FD19A8
:1058B00016111301C014180180100C100180101073
:1058C000037FF810030618201002060210060603D4
:1058D00010060403100F0C23100A0FFB101A0823E4
:1058E00010121863102210041908180B422C4310D0
:1058F0000226C3100246042E0583100201041E0373
:10590000100203024019441A04041A08041A10046D
:10591000162003F00240237002422093B3CC3210D1
:105920001279180A1003E1FFF83D818030C7C904DD
:1059300058088980307FFDFFF0101119CC1009182C
:1059400003E3FFFC03B8041B0798041388041A053B
:1059500004140D8004180A098004101181FFF81145
:105960000C1A21041A41044A01041E08018FFFFC8D
:10597000E639F241C3CFD42A011814FFFF801A8000
:1059800024A904091914394A2B0C300410152008D5
:105990000C3070060C3060070C30C0038C31800175
:1059A0008C3324018C321B8C34202A3824C6303F9F
:1059B000FFFFF8F3CABE199E11061BC003FFFFE0EC
:1059C0001A18461AFCD119B3590423618823F184AB
:1059D00013C183181F01C18180018180C003018030
:1059E000E0060180700C01803808018018100180E9
:1059F0001020612C1A1F0432076202F3C6C11A205C
:105A00007E23F0037A30041910192D153002040298
:105A1000140206071C020306041204100C020108FB
:105A200060027FFFF0060206D9041B3005E81A0465
:105A30000C1A0C044B0806041B100C041308061B5C
:105A40002030041B6006B9520493D0F2420132C0E8
:105A5000126012041C60300746320619041E40060C
:105A60003FFFC03413E00612031C060104141AD8C9
:105A7000041A60041A70044B30102C143038041BC4
:105A80003020044B400C04119A08043A10041220F0
:105A90001C2007E00612E01A40026123FFFF13E119
:105AA00024140839271C08D91B2D01270D20D0905C
:105AB000BEF702080A21DFF77DF7AFDBFFF7FF2C07
:105AC00009240215FFF739EE0F39D0B3E4FFFFDEEA
:105AD00046AADF5214FFABE2AED888D9FFFF160901
