:020000040800F2
:100000001031002015020008190200081B02000828
:100010001D0200081F020008210200080000000065
:1000200000000000000000000000000023020008A3
:10003000250200080000000027020008290200082D
:100040002B0200082B0200082B0200082B020008DC
:100050002B0200082B0200082B0200082B020008CC
:100060002B0200082B0200082B0200082B020008BC
:100070002B0200082B0200082B0200082B020008AC
:100080002B0200082B0200082B0200082B0200089C
:100090002B0200082B0200082B0200082B0200088C
:1000A0002B0200082B0200082B0200082B0200087C
:1000B0002B0200082B0200082B0200082B0200086C
:1000C0002B0200082B0200082B0200082B0200085C
:1000D0002B020008F53700082B0200082B0200084D
:1000E0002B0200082B0200082B0200082B0200083C
:1000F0002B0200082B0200082B0200082B0200082C
:100100002B0200082B0200082B0200082B0200081B
:100110002B0200082B0200082B0200082B0200080B
:100120002B0200082B0200082B0200082B020008FB
:1001300000F002F800F05FF80AA090E8000C82449A
:100140008344AAF10107DA4501D100F054F8AFF277
:10015000090EBAE80F0013F0010F18BFFB1A43F0A5
:1001600001031847D0640000F06400000A444FF017
:10017000000C10F8013B13F0070408BF10F8014B06
:100180001D1108BF10F8015B641E05D010F8016B4B
:10019000641E01F8016BF9D113F0080F1EBF10F8AF
:1001A000014BAD1C0C1B09D16D1E58BF01F801CBD2
:1001B000FAD505E014F8016B01F8016B6D1EF9D555
:1001C0009142D6D37047000000230024002500266A
:1001D000103A28BF78C1FBD8520728BF30C148BFAA
:1001E0000B607047782900F06F80002070471FB5C2
:1001F0001FBD10B510BD00F035FA1146FFF7F7FF2F
:1002000003F068FE00F053FA03B4FFF7F2FF03BCFB
:1002100003F0B1FC08480047FEE7FEE7FEE7FEE713
:10022000FEE7FEE7FEE7FEE7FEE7FEE703480449D8
:10023000044A054B7047000031010008102B0020D4
:1002400010310020102D0020102D002070470000DC
:100250000FB41CB5074B06AA7B446946009005986D
:1002600000F0DFF90020694600F0EEF91CBC5DF8F3
:1002700014FB0000ED03000070B5044685690068BA
:10028000C10601D5302600E02026C00707D070BD8A
:10029000D4E9012130469047206A401C20626D1E3F
:1002A000F6D570BD70B5044685690078C00707D1E2
:1002B00070BDD4E9012120209047206A401C2062B3
:1002C0006D1EF6D570BD000070B504460D46214682
:1002D0001068AFF300802188090502D50F4A7A44DF
:1002E00002E00E4A7A440E32002104F1240305E0B4
:1002F00000F00F060009965D5E54491C0028F7D1F6
:1003000020780023000704D5702D02D009B1022304
:1003100011322046BDE8704000F025B9626200004D
:100320002DE9F05F894604464FF0000ADFF824B15A
:10033000FB44C0F820A02046E168884700287DD013
:10034000252806D0D4E901219047206A401C20626C
:10035000F1E700255F462046E168884720280646E9
:1003600007DB312E05D2B81910F8200C08B105436F
:10037000F1E7A80701D525F00405C4F81CA0002763
:10038000C4F818A02A2E09D0304603F0EDFB38B38C
:1003900004EB8708303EC8F8186019E059F8041BD0
:1003A000204604EB87029161E1688847012F0646E9
:1003B00018D1E069002820DA25F020051DE0D8F8E2
:1003C000180000EB800006EB40003038C8F8180039
:1003D0002046E1688847064603F0C6FB0028EED1B8
:1003E000012F0AD02E2E08D12046E16888477F1CB5
:1003F0000646022F45F02005C4DBA069002803DA79
:10040000404245F00105A061E80701D025F0100544
:10041000A6B1A6F14100192802D8203645F400659E
:100420004A463146204625604D46FFF7DBFE60B167
:10043000012807D0ED1D25F0070000E007E000F1DE
:10044000080978E705F1040975E730467AE7206A7C
:10045000BDE8F09F3862000010B5431C02E010F8C0
:10046000011B71B18107FAD14FF0013202C88C1A19
:100470008C4314EAC211F9D0C01A0A0603D0C01E78
:1004800010BDC01A10BD0A0401D0801E10BD0902A3
:10049000FCD0401E10BD10B5203AC0F00B80B1E872
:1004A0001850203AA0E81850B1E81850A0E81850A9
:1004B000BFF4F5AF5FEA027C24BFB1E81850A0E8B2
:1004C000185044BF18C918C0BDE810405FEA827CCC
:1004D00024BF51F8043B40F8043B08BF7047D207E3
:1004E00028BF31F8023B48BF11F8012B28BF20F884
:1004F000023B48BF00F8012B70474FF0000200B5E7
:10050000134694469646203922BFA0E80C50A0E836
:100510000C50B1F12001BFF4F7AF090728BFA0E8E4
:100520000C5048BF0CC05DF804EB890028BF40F8B0
:10053000042B08BF704748BF20F8022B11F0804FF2
:1005400018BF00F8012B704770477047704770471D
:1005500010B500F07FF8006810BD10B5044600F03B
:1005600079F8046010BD2DE9F0470D469946924692
:10057000044600F124080168880604D5E06921F0EA
:100580001001216000E00120A84201DD471B00E0CE
:100590000027A1697A1902EB0900081AA0612078E6
:1005A000C00602D42046FFF767FE002608E0D4E923
:1005B00001211AF806009047206A401C761C206230
:1005C0004E45F4DB2078C0060AD52046FFF754FEDE
:1005D00006E0D4E9012130209047206A401C2062C7
:1005E000381EA7F10107F4DC07E0D4E9012118F86F
:1005F00005009047206A401C2062281EA5F10105D5
:10060000F3DC2046FFF74EFE2078000602D50220DC
:10061000BDE8F0870120FBE701694A1C0261087808
:10062000704700B58FB0CDE9013100210591054932
:100630007944CDE9031011466846FFF771FE0FB00B
:1006400000BD0000E5FFFFFF0A6802F8010B0A6029
:100650007047000000487047B02A002000487047EB
:10066000B02A00207546FFF7F9FFAE46050069463F
:10067000534620F00700854618B020B5FFF7D6FD99
:10068000BDE820404FF000064FF000074FF0000893
:100690004FF0000B21F00701AC46ACE8C009ACE814
:1006A000C009ACE8C009ACE8C0098D46704710B578
:1006B0000446AFF300802046BDE81040FFF7A4BD1C
:1006C00010B5052003F014FB10BD000010B500208C
:1006D0000F4908600F48006820F470200D49086039
:1006E0000846006840F440300860FFF7E9FF00204A
:1006F0000949C1F89001FFF7E3FF012004490860B0
:10070000FFF7DEFF00200449C1F8980110BD00008A
:100710009801214200080140000021420F488069F1
:1007200040F004000D4988610846806940F00100EE
:1007300088610B480068C0F30B000949086008464F
:100740000068084908430649086005480C300068FD
:1007500040F0F80002490C31086070470010024078
:10076000000801400080833310B500200F49086065
:100770000F48006820F470200D49086008460068A2
:1007800040F440300860FFF79BFF01200949C1F8A1
:100790009001FFF795FF012004490860FFF790FFE3
:1007A00000200449C1F8980110BD000098012142C1
:1007B000000801400000214270B50546002416489B
:1007C000006820F47020144908600846006840F46E
:1007D000002008601E2003F08BFA002612E00020A3
:1007E0000E490860FFF76CFF01200D49C1F8980120
:1007F0006006040E09488838006808B1601CC4B25D
:10080000701CC6B2082EEADB15B9FFF7ADFF01E098
:10081000FFF75CFF204670BD0008014098012142AF
:100820000000214270B504461348006820F470208F
:10083000114908600846006840F440300860002014
:100840000E490860FFF73CFF002512E0E0090B4964
:10085000083908606006040E01200949C1F89801B2
:10086000FFF72EFF002005490860FFF729FF681CED
:10087000C5B2082DEADB70BD000801409801214295
:100880000000214210B50F48006820F470200D4987
:1008900008600846006840F44030086001200A49BA
:1008A00008600A49C1F898011E2003F021FA0020CF
:1008B00005490860FFF704FF00200449C1F89801CA
:1008C00010BD0000000801409001214200002142BB
:1008D00010B50E48006820F470200C4908600846E6
:1008E000006840F4403008600120094908601E207B
:1008F00003F0FEF900200749C1F89001FFF7E0FE80
:10090000012003490839086010BD000000080140BB
:10091000980121420000214210B5002413480068CC
:1009200020F47020114908600846006840F4002057
:10093000086001200E4908600E49C1F89801FFF7D0
:10094000BFFE09E0601CC4B2FA2C03DDFFF7C0FF54
:10095000012010BDFFF7B4FE05488038006800286C
:10096000F0D103490831086000BFF2E700080140F8
:10097000900121420000214208B517A000F004F9BF
:100980004FF4784018490880002018490880012059
:10099000102317A21E2100900A2001F0B1FD0120B2
:1009A000102317A2322100900A2001F0A9FD012096
:1009B000182318A2462100900A2001F0A1FD012071
:1009C000202318A2642100900A2001F099FD40F232
:1009D000DC5003F06FF908BDD6D0CEC4CFD4CABE68
:1009E000B2E2CAD400000000020D0020040D002075
:1009F00031365831363AD3C0B4EFB4B4C1A6000092
:100A000031365831363A544654D2BABEA7CFD4CA3A
:100A1000BEC6C10032345832343AD6D0CEC4CFD458
:100A2000CABE000033325833323AB2E2CAD4C0FDF3
:100A3000B3CC000008B500F059F84FF6FF7000F095
:100A4000F9FD002020490880012010231FA21E214B
:100A50000090142001F054FD4FF47A7003F02AF94D
:100A60004FF6FF70184908804FF4784000F0E2FD1F
:100A70000120102317A21E210090142001F040FD38
:100A80004FF47A7003F016F94FF4FC6000F0D2FDD9
:100A90000120102311A21E210090142001F030FD2E
:100AA0004FF47A7003F006F91F2000F0C3FD012017
:100AB00010230CA21E210090142001F021FD40F211
:100AC000DC5003F0F7F808BD020D002057484954E8
:100AD00045000000524544200000000047524545B3
:100AE0004E200000424C55452000000070B588B0F3
:100AF000202223496846FFF7CEFC2248438802881B
:100B00000021084601F090F901F00CFB002617E0E7
:100B100000240CE0002505E03DF8261088B201F025
:100B2000F7FA6D1C17480088A842F5D8641C1549CF
:100B30004888C11700EB5171B4EBE10FEAD3761C82
:100B4000082EE5D300240BE0002504E0079988B2C5
:100B500001F0DEFA6D1C0B480088A842F6D8641C30
:100B600008494888C11700EB5171C910A0EBC101B9
:100B7000A142E9D84FF47A7003F09CF808B070BD38
:100B800024650008A01A002038B504464FF6FF700F
:100B900000F050FD1F2000903C48028814230021E3
:100BA000084600F0BFFE4FF4FC6039490880374822
:100BB000028814231946002000F0D2FD1F2034497A
:100BC00008803248028815231946002000F0C8FD2D
:100BD0004FF607402E4908802C48028816231946F4
:100BE000002000F0BDFD1F200090284843880288A7
:100BF0004088143881B2002000F094FE4FF4FC606D
:100C00002349088021484088143883B21F4802884D
:100C10004088143881B2002000F0A2FD1F201C493A
:100C200008801A484088153883B2184802884088DE
:100C3000153881B2002000F093FD4FF607401449AB
:100C4000088012484088163883B2104802884088CD
:100C5000163881B2002000F083FD4FF6FF700C497A
:100C6000088001201023224602210090002000F07D
:100C700099FC0120009005484088123881B2102369
:100C800004A2002000F08EFC38BD0000A01A002055
:100C9000020D0020C9EEDBDACAD0D3C0B4EFB4B481
:100CA000C1A6B5E7D7D3D3D0CFDEB9ABCBBE00005A
:100CB0001CB529A0FFF768FF4FF478402A49088047
:100CC0004FF6FF702949088029A00C210B46C82245
:100CD000CDE900101E210A2001F0B6F92CA00C214C
:100CE0000B46C822CDE900102D210A2001F0ACF9F5
:100CF0004FF4FC601C4908802DA010210B46C8222F
:100D0000CDE900103C210A2001F09EF930A010210D
:100D10000B46C822CDE9001050210A2001F094F9B9
:100D20001F201149088032A018210B46C822CDE9A6
:100D3000001064210A2001F087F936A018210B4623
:100D4000C822CDE9001080210A2001F07DF940F28F
:100D5000DC5002F0AFFF1CBDD3A2CEC4CFD4CABEBC
:100D6000B2E2CAD400000000020D0020040D0020F1
:100D7000365831323A6162636465666768696A6BE6
:100D80006C6D6E6F707172737475767778797A00A6
:100D9000365831323A4142434445464748494A4B26
:100DA0004C4D4E4F503031323334353637383900B0
:100DB000385831363A6162636465666768696A6BA0
:100DC0006C6D6E6F707172737475767778797A0066
:100DD000385831363A4142434445464748494A4BE0
:100DE0004C4D4E4F50303132333435363738390070
:100DF00031325832343A6162636465666768696AA1
:100E00006B6C6D6E6F707172737475767778797ABA
:100E10000000000031325832343A414243444546E2
:100E20004748494A4B4C4D4E4F50303132333435A0
:100E3000363738390000000010B5FFF76FFC00208E
:100E400006490860142002F035FF01200449C1F86A
:100E50009C014FF4967002F02DFF10BD9C012142C1
:100E6000000021422DE9F04106460F461546FFF7E6
:100E700009FD7020FFF7D6FCFFF74EFDF0B2FFF73B
:100E8000D1FCFFF749FDFFF7FDFC7120FFF7CAFC1D
:100E9000FFF742FD00240BE0691EA14201D00121B1
:100EA00000E000210846FFF787FC3855601CC4B2FB
:100EB000AC42F1DBFFF70CFDBDE8F08171B581B00C
:100EC0000024002660480078401C5F4908700846EE
:100ED00000780A2190FBF1F201FB120018B15A4888
:100EE00000780A2867DA012201A90220FFF7BAFF79
:100EF0009DF8040000F00F0000287BD09DF804004E
:100F000000F00F00062875DA9DF8040000F00F01CC
:100F1000FF208840C5B2E843C0B240F0C0004B4952
:100F200081F82000002457E0484890F82000012173
:100F3000A1400840F0B3464931F814000422694644
:100F4000FFF790FF414890F8300000F00100C0B179
:100F50009DF801009DF8001001F00F0100EB012049
:100F60003A49163121F814009DF803009DF802104B
:100F700001F00F0100EB012134480C3020F814106F
:100F800017E09DF801009DF8001001F00F0100EB43
:100F900001212E480C3020F814109DF803009DF814
:100FA000021001F00F0100EB01212848163020F853
:100FB000141001E00EE01DE09DF8000000F0F000CC
:100FC000802807D000212148163020F814100A3854
:100FD00020F81410601CC4B2052CA5DB01261B48A8
:100FE000808920B91948C08A08B9002001900020E2
:100FF000154908709DF8040000F01F00D0B913488F
:1010000090F8200000F0800040B1104890F82000D7
:1010100020F080000D4981F820000BE04FF6FF70B2
:101020000A498881C882084690F8200000F0E00054
:1010300081F8200004480078F02802DD0A200249E7
:10104000087030467CBD0000060D0020080D002011
:10105000FA6400082DE9F843002477A0FFF794FD17
:101060004FF6FF70009077484088183883B2754873
:1010700002881821002000F055FC00BF4BE07248A8
:1010800030F8140071490880DFF8B8C1BCF802508C
:1010900005EBD57C4FEA6C0CACF1190CC4EB0419D0
:1010A000CC440CF13C0C1FFA8CF3DFF898C1BCF86F
:1010B000006006EBD67C4FEA6C0CACF1190CC4EB6B
:1010C0000419CC440CF13C0C1FFA8CF2DFF874C10B
:1010D000BCF8027007EBD77C4FEA6C0CACF1190C32
:1010E000C4EB0419CC441FFA8CF1DFF858C1BCF8EA
:1010F000008008EBD87C4FEA6C0CACF1190CC4EB07
:101100000419CC441FFA8CF000F092FB642002F02A
:10111000D1FD601CC4B2052CB1DB002413E04A48A9
:1011200030F8140049490880C4EBC40101EB810187
:1011300001F132001E223C2100F098FB642002F0F5
:10114000B9FD601CC4B2052CE9DB40F2DC5002F0B2
:10115000B1FD00244EE03C4830F814003B490880C3
:1011600008460088DFF8DCC00090BCF8027007EB8E
:10117000D77C4FEA6C0CACF1190CC4EB0419CC44CD
:101180000CF13C0C1FFA8CF3DFF8B8C0BCF800502F
:1011900005EBD57C4FEA6C0CACF1190CC4EB0419CF
:1011A000CC440CF13C0C1FFA8CF2DFF898C0BCF870
:1011B000028008EBD87C4FEA6C0CACF1190CC4EB44
:1011C0000419CC441FFA8CF1DFF878C0BCF8006039
:1011D00006EBD67C4FEA6C0CACF1190CC4EB04198D
:1011E000CC441FFA8CF000F09DFB642002F062FDFD
:1011F000601CC4B2052CAEDB002415E0124830F8A8
:10120000140012490880C4EBC40101EB810101F113
:1012100032000E490B881E223C2102F099FD642009
:1012200002F048FD601CC4B2052CE7DB40F2DC5044
:1012300002F040FDBDE8F883CDBCD0CEB2E2CAD406
:1012400000000000A01A0020BE190020020D00209E
:101250002DE9F84F0546894690469A46AB4636201A
:10126000009000245DE004EB0410344911F81000F4
:1012700098F80010884251D104EB04102F4901EB7B
:101280004000407898F80110884247D110231A4650
:101290004946284600F0C8FD00F044FF00263BE028
:1012A000002734E0BAF1000F14D104EB04102349F5
:1012B00001EB4000801C805D80213941084020B155
:1012C0001F48008800F024FF1FE01E48008800F03F
:1012D0001FFF1AE004EB0410184901EB4000801CCA
:1012E000805D80213941084018B14946284600F008
:1012F0008FFA681C85B2A5EB0B00102805D15D465E
:1013000009F101001FFA80F903E0781CC7B2082F29
:10131000C8DB00BF701CC6B2202EC1DB00BF601C42
:1013200084B2009884429EDB0748438802880021EB
:10133000084600F079FDBDE8F88F00000A000020A3
:10134000020D0020040D0020A01A00202DE9F84F06
:101350000546894690469A46AB46062000900024F2
:1013600065E004EB840000EB4410374911F81000ED
:1013700098F80010884257D104EB840000EB441029
:10138000314901EB4000407898F8011088424BD178
:1013900018231A464946284600F046FD00F0C2FED2
:1013A00000263FE0002738E0BAF1000F16D104EB29
:1013B000840000EB4410244901EB4000801C805D58
:1013C00080213941084020B12048008800F0A0FE6B
:1013D00021E01F48008800F09BFE1CE004EB840025
:1013E00000EB4410184901EB4000801C805D802117
:1013F0003941084018B14946284600F009FA681CEE
:1014000085B2A5EB0B00182805D15D4609F1010056
:101410001FFA80F903E0781CC7B2082FC4DB00BFB5
:10142000701CC6B2482EBDDB00BF601C84B20098A1
:10143000844296DB0748438802880021084600F072
:10144000F3FCBDE8F88F000036070020020D0020F5
:10145000040D0020A01A00202DE9F84F054689460A
:1014600090469A46AB460820009000245DE004EBCD
:101470008410344911F8100098F80010884251D1B6
:1014800004EB84102F4901EB4000407898F80110DC
:10149000884247D120231A464946284600F0C4FC1A
:1014A00000F040FE00263BE0002734E0BAF1000FD8
:1014B00014D104EB8410234901EB4000801C805DB3
:1014C00080213941084020B11F48008800F020FEEB
:1014D0001FE01E48008800F01BFE1AE004EB841099
:1014E000184901EB4000801C805D80213941084093
:1014F00018B14946284600F08BF9681C85B2A5EB67
:101500000B00202805D15D4609F101001FFA80F982
:1015100003E0781CC7B2082FC8DB00BF701CC6B23E
:10152000802EC1DB00BF601C84B2009884429EDB29
:101530000748438802880021084600F075FCBDE892
:10154000F88F0000F2080020020D0020040D00209A
:10155000A01A00202DE9F04380468946154628232D
:101560001A464946404600F05FFC00F0DBFD0024CF
:1015700009E015F8147005EB4400467847EA0620A8
:1015800000F0C6FD641CB4F5C86FF2DB0448438864
:1015900002880021084600F047FCBDE8F083000007
:1015A000A01A00202DE9F84F0746894690461C46B0
:1015B000DDF828A04046FEF74FFF86B2102C0CDD68
:1015C000214604EBD17252100D4B1B8806FB1230E2
:1015D00000EBD072C2F34F0507E009490988A1EB7F
:1015E000C60000EBD071C1F34F05791988B22346CC
:1015F00042464946CDF800A000F082FFBDE8F88FD2
:10160000A01A002001464906084A926942F00102E8
:10161000064B9A61064A526822F0E062044B5A6017
:101620001A4652680A435A60704700000010024090
:101630000000014070B5064600240948058840882E
:1016400045430021084600F0D5FB00F06BFD00BFCC
:1016500003E0304600F05CFD641CAC42F9D370BD81
:10166000A01A002000B5282000F03AFD00BD00B50A
:10167000292000F035FD00BD00B503460BB1012B5C
:101680001CD1002035498871F02008804FF4A070EB
:1016900048802C2008812A2048812B20888133B95A
:1016A000362000F01DFD002000F002FD27E036206E
:1016B00000F016FDC02000F0FBFC20E0022B01D062
:1016C000032B1CD10120254988714FF4A07008809C
:1016D000F02048802C2008812A2048812B208881F6
:1016E000022B06D1362000F0FBFCA02000F0E0FC2D
:1016F00005E0362000F0F4FC602000F0D9FC17492A
:10170000488900F0EDFC002000F0D2FC002000F041
:10171000CFFC12490988491EC1F30F2000F0C8FC14
:101720000E490978491EC8B200F0C2FC0B498889ED
:1017300000F0D6FC002000F0BBFC002000F0B8FC5C
:1017400006494988491EC1F30F2000F0B1FC034946
:101750008978491EC8B200F0ABFC00BDA01A002079
:101760002DE9FF4F84B081468A4600200390029005
:101770000698A0EB09050798A0EB0A06CDF804909F
:10178000CDF800A0002D01DD012705E00DB90027EF
:1017900002E04FF0FF376D42002E02DD4FF00108EE
:1017A00006E016B94FF0000802E04FF0FF3876422D
:1017B000B54201DD2C4600E034464FF0000B21E03D
:1017C000009A91B2019A90B200F022F8039828444E
:1017D00003900298304402900398A04205DD0398DC
:1017E000001B03900198384401900298A04205DD47
:1017F0000298001B02900098404400900BF10100F9
:101800001FFA80FB601C8345DADD08B0BDE8F08F6D
:1018100030B504460D462946204600F0EBFA00F0AC
:1018200081FC0248008800F073FC30BD020D0020EE
:10183000F0B504460D4616461F462B46324629464D
:101840002046FFF78DFF3B46224629462046FFF7FC
:1018500087FF3B46324639462046FFF781FF3B462D
:10186000324629463046FFF77BFFF0BD2DE9F043B5
:1018700006460F469046002445460320A0EB480943
:101880003CE07A1B91B2321990B2FFF7C1FF3A1BCC
:1018900091B2721990B2FFF7BBFF3A1991B2721967
:1018A00090B2FFF7B5FF7A1991B2321990B2FFF7F3
:1018B000AFFF7A1991B2321B90B2FFF7A9FF3A1924
:1018C00091B2721B90B2FFF7A3FF7A1B91B2321B49
:1018D00090B2FFF79DFF3A1B91B2721B90B2FFF7D7
:1018E00097FF641CB9F1000F03DAA000801D81444A
:1018F00004E0601B80000A3081446D1EAC42C0DDF4
:10190000BDE8F08370B505460E46144631462846BC
:1019100000F070FA02490889214600F00BFC70BD06
:10192000A01A00202DE9FC4F05460E4617469846A2
:10193000DDF82C90002001902748808846F60401AD
:10194000884229D124488079012825D1AB463546E3
:1019500021480088C01B401E86B247461E480088AA
:10196000A0EB0B00401E1FFA80F800201A49887176
:101970002A2048812B20888143463A463146284612
:10198000CDF80090FFF7CEFF0120134988712B207E
:1019900048812A2088811CE0781B401C80B201907D
:1019A000344614E02146284600F024FA00F0BAFB41
:1019B0004FF0000A06E0484600F0AAFB0AF10100D9
:1019C0001FFA80FA01988245F5DB601C84B2444519
:1019D000E8DDBDE8FC8F0000A01A002010B58F489C
:1019E000806940F004008D4988610846806940F0B4
:1019F000080088610846806940F010008861084648
:101A0000806940F0010088610120FFF7FBFD8448F8
:101A1000006820F47060824908600846006840F45D
:101A200040700860081D00687E4908407C49091D17
:101A30000860084600687C4908437949091D086028
:101A400077480C30006840F4104075490C3108604C
:101A500076484068C0F313007449486008464068FF
:101A600073490843714948600846C06840F46040C3
:101A7000C8604FF033306F490860091F08604FF6A7
:101A8000FF706C49083108604FF4004067490861F5
:101A9000012002F00FF94FF40040644948610A2028
:101AA00002F008F94FF4004060490861782002F024
:101AB00001F9112000F014FB782002F0FBF8362029
:101AC00000F00EFB002000F0F3FA3A2000F008FBD3
:101AD000052000F0EDFAB22000F002FB0C2000F02F
:101AE000E7FA0C2000F0E4FA002000F0E1FA3320DD
:101AF00000F0DEFA332000F0DBFAB72000F0F0FA55
:101B0000352000F0D5FABB2000F0EAFA282000F0DA
:101B1000CFFAC02000F0E4FA2C2000F0C9FAC2206D
:101B200000F0DEFA012000F0C3FAC32000F0D8FA7A
:101B30000B2000F0BDFAC42000F0D2FA202000F003
:101B4000B7FAC62000F0CCFA0F2000F0B1FAD0208E
:101B500000F0C6FAA42000F0ABFAA12000F0A8FA29
:101B6000E02000F0BDFAD02000F0A2FA012000F041
:101B70009FFA082000F09CFA0F2000F099FA11203B
:101B800000F096FA2A2000F093FA362000F090FA3E
:101B9000552000F08DFA442000F08AFA3A2000F037
:101BA00087FA0B2000F084FA062000F081FA112059
:101BB00000F07EFA202000F07BFAE12000F090FA9D
:101BC000D02000F075FA022000F072FA072000F031
:101BD0006FFA0A2000F06CFA0B2000F069FA182066
:101BE00000F066FA342000F063FA432000F060FA57
:101BF0004A2000F05DFA2B2000F05AFA1B2000F07A
:101C000057FA1C2000F054FA222000F051FA1F204D
:101C100000F04EFA292000F063FA10BD00100240D7
:101C200000080140FFFFF00F0000033000100140EA
:101C300000003033040C014010B50246012000E0E2
:101C400050430B1EA1F10104E1B2F9D110BD000017
:101C50004FF08830144A1060121D10600020124AA4
:101C60000C3210604FF40040104A1060C010121D7A
:101C7000106080000E4A50610B480830006881B245
:101C80004FF4804010618010084A10604FF03330EC
:101C9000054A1060121D10604FF6FF70024A0C32A8
:101CA0001060081201467047000C01401008014006
:101CB000001001402DE9F041074688463848008869
:101CC000B84203DD36484088404502DC0020BDE8CC
:101CD000F0814146384600F08DF82E2000F000FAE1
:101CE0004FF088302F490860091D08604FF6FF70DB
:101CF0002C490C3108604FF400402B490860C0109B
:101D0000091D0860800029494861022002F09EF9FF
:101D100024480830006884B24FF4804023490861A9
:101D20004861022002F092F91E480830006884B22F
:101D300024124FF480401D4908614861022002F0DE
:101D400085F918480830006885B22D124FF480409C
:101D5000164908614861022002F078F911480830FC
:101D6000006886B236124FF4804010490861801036
:101D70000D49086000BF00BF00BF4FF03330094974
:101D80000860091D08604FF6FF7006490C310860B5
:101D9000E010C002A91040EA411040EAE60096E7D0
:101DA000A01A0020000C0140100801400010014062
:101DB00000B50346184600F093F9FFF749FFFFF717
:101DC00047FFFFF745FF0A498880084680884FF69D
:101DD000FF7101EA002006498880FFF739FF0449B6
:101DE00089880843024988800846808800BD000031
:101DF000A01A002010B503460C460A49488900F095
:101E00006FF9181200F054F9D8B200F051F90549F1
:101E1000888900F065F9201200F04AF9E0B200F07C
:101E200047F910BDA01A00202DE9F04104460D46E7
:101E30001646A019401E87B2E818401E1FFA80F807
:101E40001149488900F04CF9201200F031F9E0B254
:101E500000F02EF9381200F02BF9F8B200F028F952
:101E60000949888900F03CF9281200F021F9E8B20C
:101E700000F01EF94FEA282000F01AF908F0FF00E0
:101E800000F016F9BDE8F081A01A00202DE9F84F06
:101E900080460E4617461C46B3462046E31704EB21
:101EA0005373DB1021464FEAE47C04EB5C7C4FEA81
:101EB000EC0CA4EBCC0CBCF1000F02D04FF0010CE9
:101EC00001E04FF0000C6344224604EBD27C4FEA61
:101ED0006C0C03FB0CF3DBB20093A7F12000C7B23C
:101EE000002556E00C2C07D107EB47002B4901EBEE
:101EF000800010F8059013E0102C05D1284800EB65
:101F0000071010F805900BE0182C07D107EBC7005D
:101F1000244901EB800010F8059001E0BDE8F88F3E
:101F20004FF0000A2FE009F0800030B11E4802880F
:101F300031464046FFF7E6FC07E00A9828B91B48FF
:101F4000028831464046FFF7DDFC4FEA49604FEA20
:101F50001069701C86B216484088B04200DCDDE78C
:101F6000A6EB0B00A0420AD15E4608F101001FFA61
:101F700080F80F480088404500DCCFE706E00AF112
:101F8000010000F0FF0ABAF1080FCCDB00BF681CAB
:101F9000C5B200988542A5DB00BFBFE73A4D0008F7
:101FA000AE5100089E570008020D0020040D0020CD
:101FB000A01A00202DE9FF4F81B0074691461E462A
:101FC0000E9D4FF0000A002439E0301B401EC1B2C4
:101FD0000A20FFF731FEB9FBF0F00A21B0FBF1F265
:101FE00001FB1208BAF1000F16D1701EA04213DDDA
:101FF000B8F1000F0ED10020AB4605EBDB714910A4
:1020000001FB0471009088B22B4620220299FFF751
:102010003DFF12E04FF0010A0020AB4605EBDB71FB
:10202000491001FB0471009088B208F13001CAB276
:102030002B460299FFF72AFF00BF601CC4B2B442CE
:10204000C3DB05B0BDE8F08F2DE9F84704460D4627
:1020500090469946DDE9096704F0FF0A08EB0400A1
:102060001FFA80F809EB05001FFA80F916E04445D5
:1020700002DB5446A81985B24D4500DB14E0002070
:1020800000903A78334629462046FFF7FFFE304657
:1020900006EBD07104EB61018CB27F1C38787E288E
:1020A00002DC38782028E2DA00BFBDE8F8870000BB
:1020B0004FF40041074A1160C910121D116001025E
:1020C000054A11605114054A516111614910014AD4
:1020D00011607047100801400C0C014000100140D5
:1020E0004FF40041074A1160C91011600102064A0D
:1020F00011605114054A516111614910014A121FC2
:1021000011607047140801400C0C014000100140A0
:1021100000B503461812FFF7CBFF1846FFF7C8FFBC
:1021200000BD000000B502490889FFF7D9FF00BDD6
:10213000A01A002030B505460C462846FFF7D0FF10
:102140002046FFF7E5FF30BD0CB54FF6FF70FFF7F7
:1021500071FA1F200B4908804FF6FF700A4908806A
:102160000AA01021CDE9001009490988183988B260
:102170001023C8220021FFF767FF4FF47840014980
:1021800008800CBD020D0020040D002052535400A5
:10219000A01A002000B5002015490861C86014206D
:1021A000486100208861C8610846006840F001006D
:1021B0000860084640680F4908400D4948600846D5
:1021C00000680D4908400A4908600846006820F484
:1021D000802008600846406820F4FE004860002027
:1021E000886000214FF0006000F058F800BD00004A
:1021F000001002400000FFF8FFFFF6FE2DE9F0415D
:102200000746884614461D46284600F033F8C5F1B7
:10221000040007FA00F60F20284100EA08000643F0
:1022200006F00F06E21704EBD2625211920002F19F
:10223000E022D2F800212146E31704EBD3635B11BF
:10224000A4EB431C012303FA0CF31A432046E317C3
:1022500004EBD3635B119B0003F1E023C3F800217F
:102260000348005D40EA061001490855BDE8F081C9
:1022700000E400E00146072323EA01021202054BB5
:1022800018684FF6FF031840034B18431043014BE7
:10229000186070470CED00E00000FA05024A0A40A1
:1022A0000243024B1A60704780FFFF1F08ED00E0F9
:1022B00010B50AA0FEF768FC1F200C4908800C4AE4
:1022C00064213C20FFF746F9094A64218220FFF788
:1022D00041F940F2DC5001F0EDFC10BDCDBCC6ACC4
:1022E000CFD4CABEB2E2CAD400000000020D002062
:1022F0003E0D002030B589B0002006900790089070
:10230000142101A8FEF7F9F832A0FEF73DFC4FF6C4
:10231000FF70009034484088173883B232480288F2
:1023200017210020FFF7FEFA0420FFF741FD2E4899
:1023300082882EA106A8FDF78BFF4FF478402D4927
:1023400008800120102306AA192100904B2000F0DC
:10235000D7F8002435E0284830F8140025490880D3
:1023600008460088009004EBC40000EB041000F164
:10237000410304EBC40000EB04102D3081B2322283
:102380001E20FFF7CFFA04EBC40000EB041000F1AD
:1023900037012820FFF78EFC05462A4617A101A821
:1023A000FDF756FF0120009004EBC40000EB041081
:1023B0002F3081B2102301AA3C2000F0A1F8601C4C
:1023C000C4B2072CC7DB40F2DC5001F073FC09B04B
:1023D00030BD0000B6C14944BACDD1D5C9ABD6B5E0
:1023E000B2E2CAD400000000A01A002049443A30EA
:1023F00078257800020D0020C819002072656164FC
:1024000020636F6C6F723A307825303478000000AA
:1024100010B586B00024184B0FCBCDE90423CDE9CD
:10242000020100BF21E02046FFF726F913A0FEF7C6
:10243000ABFB1F20144908800120009002A850F82F
:10244000242010231E21142000F05AF80F4A3221B4
:102450001E20FFF77FF84FF47A7001F02BFC4FF449
:102460007A7001F027FC601CC4B2042CDBDB002076
:10247000FFF702F906B010BD14650008D0FDD7AA19
:10248000B2E2CAD400000000020D00203E0D002080
:10249000002000210FE00022084B1A604206100EB7
:1024A000074AD2F804210AB140F001000122034B8F
:1024B0001A604A1CD1B20829EDDB7047A001214205
:1024C00000002142002115E000220C4B1A6000F0B0
:1024D000800222B10122094B203B1A6003E0002256
:1024E000064B203B1A600122044B1A604206100E74
:1024F0004A1CD1B20829E7DB70470000A001214245
:102500002DE9F84706460F4615461C46DDF824809F
:10251000B1464FF0000A65E0BAF1000F3AD104EB82
:10252000D471334A1288A2EB6101B14204DB304915
:102530004988091BB94201DABDE8F8872878802864
:1025400002DD4FF0010A4DE028780D2804D138193A
:1025500087B24E466D1C1BE0182C0BDBCDF80080BB
:102560002A78182339463046FFF790FC06F10C0014
:1025700086B20DE0CDF800802A78234639463046F1
:10258000FFF784FC204604EBD07106EB61018EB2AC
:102590006D1C27E016480088001BB04204DB14487D
:1025A0004088001BB84200DAC6E74FF0000A202C32
:1025B00006D143462A4639463046FEF74DFF0EE027
:1025C000182C06D143462A4639463046FEF7BEFE51
:1025D00005E043462A4639463046FEF739FEAD1C33
:1025E000301986B22878002896D100BFA4E70000F1
:1025F000A01A002030B504460025FFF7CBFD1F4888
:10260000006840F480301D49086000BF1B48006826
:10261000400C0028FAD04FF4806018494860A01E92
:10262000C4B20846406840EA8440486008464068B2
:1026300040F4803048601248006840F03200104991
:1026400008600E48006840F080700C49086000BFC8
:102650000A480068400E0028FAD00848406840F058
:1026600002000649486005E004484068C0F3870559
:1026700005F00305022DF7D130BD00000010024027
:102680000020024010B503240BE0FEF7EBFF4FF4EF
:10269000C87001F00FFBFEF7EAFF4FF4C87001F0BD
:1026A00009FB201EA4F10101CCB2EED110BD000047
:1026B0002DE9FC5F04460D4617461E46DDE90EABCC
:1026C000DDE90C894FF478405749088057A0102164
:1026D000CDE90010564843880288A0212820FFF742
:1026E000B3FC54A01021CDE9001051484388028862
:1026F000A0217820FFF7A8FC4FA01021CDE9001001
:102700004B4843880288B4212820FFF79DFC4BA04A
:102710001021CDE90010464843880288B421782072
:10272000FFF792FC46A01021CDE9001040484388F5
:102730000288C8212820FFF787FC42A01021CDE99C
:1027400000103B4843880288C8217820FFF77CFCB2
:102750003DA01021CDE90010354843880288DC21D6
:102760002820FFF771FC39A01021CDE90010304876
:1027700043880288DC217820FFF766FC34A0102112
:10278000CDE900102A4843880288F0212820FFF76D
:102790005BFC102004232246A02100904020FFF77C
:1027A00009FC102004232A46A02100909020FFF766
:1027B00001FC102004233A46B42100904020FFF78A
:1027C000F9FB102004233246B42100909020FFF73B
:1027D000F1FB102004234246C82100904020FFF75F
:1027E000E9FB102004234A46C82100909020FFF7FF
:1027F000E1FB102004235246DC2100904020FFF72B
:10280000D9FB102004235A46DC2100909020FFF7CA
:10281000D1FB102003230090F0216020109AFFF7D5
:10282000C9FBBDE8FC9F0000020D002078313A0092
:10283000A01A002079313A0078323A0079323A0011
:1028400078333A0079333A0078343A0079343A00F0
:102850006661632069733A0000B597B0002012905A
:102860000B9012901F20FE4908804FF6FF70FD4923
:102870000880FEF7DFFE4FF47840F94908804FF6F4
:10288000FF70FEF7D7FE0020F5490880F648006883
:1028900010216423A022CDE9001028210846FFF76B
:1028A000D3FB4FF478421421084600F027FC0020A7
:1028B000EE4981F820004862D6E3EC4840680A906F
:1028C00001200A998847E94890F8200000F0C000EC
:1028D00040286FD100200B90E44890F8200020F0B1
:1028E0004000E24981F820000846818913AA129825
:1028F00022F82010DD48C18A129802EB8000418046
:102900001298401CC0B212901298012806D00228DA
:1029100015D0032829D0042810D141E04FF6FF72CA
:102920001421084600F0EAFBD1480088143880B230
:102930004FF4784214210A9000F0E0FB84E3CC4885
:102940000088143880B24FF6FF7214210A9000F00C
:10295000D5FBC7484088143880B24FF4784201460E
:102960000A90142000F0CAFB6EE3C1484088143876
:1029700080B24FF6FF7201460A90142000F0BEFBB1
:10298000BB484088143880B20A90B948008814388F
:1029900080B24FF4784209900A9900F0AFFB53E3FC
:1029A000BDF84C00BDF85010401A0A90002802DB18
:1029B0000A9802E049E30A9840420F90BDF84E1091
:1029C00013A8C088081A0A90002801DB0A9801E0C1
:1029D0000A9840420E900F9840430F900E98404343
:1029E0000E90DDE90E100844059001F03AFCCDE9A7
:1029F000060101F069FBCDE9080101F005FC80B298
:102A00001190BDF85400BDF85810401A0A900028E3
:102A100001DB0A9801E00A9840420F9013A841890F
:102A2000C089081A0A90002801DB0A9801E00A9878
:102A300040420E900F9840430F900E9840430E90E6
:102A4000DDE90E100844059001F00BFCCDE906010C
:102A500001F03AFBCDE9080101F0D6FB80B21090FD
:102A6000109802F00BF80990119802F007F80890FE
:102A7000099901F0EDFE0A9001F05CFECDE90C0130
:102A80004FF066327B4BDDE90C0101F0FDFB0AD310
:102A9000794A7A4BDDE90C0101F030FD03D311983E
:102AA00008B11098F0BB002012907148408814388B
:102AB00080B20A906E480088143880B24FF6FF72D8
:102AC00009900A9900F01AFB4FF478421421084645
:102AD00000F014FB00226A4BDDE90C0101F010FC50
:102AE000CDE9080101F090FB80B213A90A90C989D1
:102AF000BDF8582013AB5B89CDE90132CDE9031055
:102B0000BDF85400009013A8C0880990BDF850008B
:102B10000890BDF84E000790BDF84C00069007A93C
:102B20000EC900E002E0FFF7C3FD9DE2BDF84C00D6
:102B3000BDF85410401A0A90002801DB0A9801E001
:102B40000A9840420F90BDF84E1013A84089081A09
:102B50000A90002801DB0A9801E00A9840420E9092
:102B60000F9840430F900E9840430E90DDE90E10F1
:102B70000844059001F075FBCDE9060101F0A4FAC7
:102B8000CDE9080101F040FB80B21190BDF8500082
:102B9000BDF85810401A0A90002801DB0A9801E09D
:102BA0000A9840420F9013A8C188C089081A0A9059
:102BB000002801DB0A9801E00A9840420E900F9825
:102BC00040430F900E9840430E90DDE90E100844EC
:102BD000059001F046FBCDE9060101F075FACDE95B
:102BE000080101F011FB80B21090109801F046FF2F
:102BF0000990119801F042FF0890099901F028FE10
:102C00000A9001F097FDCDE90C014FF06632194BA7
:102C1000DDE90C0101F038FB06D3174A174BDDE95B
:102C20000C0101F06BFC53D2002012901048408838
:102C3000143880B20A900E480088143880B24FF6DB
:102C4000FF7209900A9900F059FA4FF47842142162
:102C5000084600F053FA0022094BDDE90C0111E0AF
:102C6000020D0020040D002004650008080D00205E
:102C7000A01A00206666EE3FCDCCCCCCCCCCF03F89
:102C80000000594001F03CFBCDE9080101F0BCFA1D
:102C900080B213A90A90C989BDF8582013AB5B898B
:102CA000CDE90132CDE90310BDF85400009013A81E
:102CB000C0880990BDF850000890BDF84E000790FC
:102CC000BDF84C00069007A90EC9FFF7F1FCCBE157
:102CD000BDF85000BDF85410401A0A90002801DBDE
:102CE0000A9801E00A9840420F9013A8C1884089D1
:102CF000081A0A90002801DB0A9801E00A9840426D
:102D00000E900F9840430F900E9840430E90DDE9CF
:102D10000E100844059001F0A4FACDE9060101F077
:102D2000D3F9CDE9080101F06FFA80B21190BDF836
:102D30004C00BDF85810401A0A90002801DB0A9890
:102D400001E00A9840420F90BDF84E1013A8C089C8
:102D5000081A0A90002801DB0A9801E00A9840420C
:102D60000E900F9840430F900E9840430E90DDE96F
:102D70000E100844059001F074FACDE9060101F047
:102D8000A3F9CDE9080101F03FFA80B21090109844
:102D900001F074FE0990119801F070FE08900999F5
:102DA00001F056FD0A9001F0C5FCCDE90C014FF091
:102DB0006632AF4BDDE90C0101F066FA06D3AD4A8D
:102DC000AD4BDDE90C0101F099FB41D200201290DE
:102DD000AA484088143880B20A90A848008814385D
:102DE00080B24FF6FF7209900A9900F087F94FF40C
:102DF00078421421084600F081F90022A04BDDE959
:102E00000C0101F07DFACDE9080101F0FDF980B275
:102E100002460A9013A8C089BDF8581013AB5B890D
:102E2000CDE90131CDE90302BDF85400009013A8AB
:102E3000C0880990BDF850000890BDF84E0007907A
:102E4000BDF84C00069007A90EC9FFF731FC0BE155
:102E5000BDF85000BDF84C10401A089001F0F6FD86
:102E60000A90864800882838089001F0EFFD099004
:102E70000A9901F0EDFC83494862BDF85000BDF8A5
:102E80004C100844059001F0E1FD06907D48406A31
:102E900001460590069801F005FE089077480088E5
:102EA000069001F0EBFD0790089901F0D1FE4FF07C
:102EB0008041099001F0CCFC0A9001F08BFD00B23A
:102EC0007049888513A84089BDF84E10401A0890B3
:102ED00001F0BCFD0A90694840882838089001F04C
:102EE000B5FD09900A9901F0B3FC6649886213A800
:102EF0004089BDF84E100844059001F0A7FD0690EA
:102F00006048806A01460590069801F0CBFD089064
:102F10005A484088069001F0B1FD0790089901F0E9
:102F200097FE4FF08041099001F092FC0A9001F069
:102F300051FD00B25349C8850846406A089001F027
:102F400049FD0990002801DB099801E009984042F9
:102F500002280DDC4B48806A089001F03BFD0A9086
:102F6000002801DB0A9801E00A984042022842DD6D
:102F70000020129041484088143880B20A903F489F
:102F80000088143880B24FF6FF7209900A9900F059
:102F9000B5F84FF478421421084600F0AFF83AA093
:102FA0001021CDE90010354840880A903348008848
:102FB000099002461A2128200A9BFFF745F831485C
:102FC00090F8300008B9012000E000202D4981F878
:102FD0003000084690F8300030B190202F4908703A
:102FE000D0202F49087005E0D0202C49087090208F
:102FF0002B49087038E01F202A4908804FF6FF70DF
:10300000FEF718FB28A01021CDE900101B484088CE
:103010000A901A480088099002466E2123200A9BD4
:10302000FFF712F84FF47A7000F044FE00F0E6FC6F
:103030004EF61571884201D100F0DCFA4FF6FF70B0
:10304000FEF7F8FA17B000BD00BF0A2000F032FE0C
:103050000B98401C80B20B900B98B0F57A7F02DD84
:1030600000F084F801E000BF27E400BF00BFE9E7FB
:103070006666EE3FCDCCCCCCCCCCF03FA01A002085
:1030800000005940080D00205450204E6565642012
:10309000726561646A757374210000003C0D002044
:1030A0003D0D0020020D0020546F756368205363AE
:1030B0007265656E2041646A757374204F4B210000
:1030C00070B504460D4616460B4806802946204634
:1030D000FEF79EFB611C88B22946FEF799FB681C2F
:1030E00081B22046FEF794FB6A1C91B2621C90B23A
:1030F000FEF78EFB70BD0000020D002070B5044687
:103100000D4616461848068004F10D018AB2193999
:1031100088B22B462946FEF723FB05F10D0083B24A
:10312000193881B222462046FEF71AFB6A1C91B27A
:10313000621C90B2FEF76CFB6A1C91B2621E90B2E8
:10314000FEF766FB6A1E91B2621C90B2FEF760FB4E
:103150006A1E91B2621E90B2FEF75AFB0622294601
:103160002046FEF783FB70BD020D00207FB500F006
:1031700045FC4EF61571884279D10E222821684609
:1031800000F07AFB9DF80D400B2C7AD100249DF8BD
:103190000300044324029DF80200044324029DF826
:1031A0000100044324029DF800000443204601F07E
:1031B0004DFC0546344901F04BFB3449486200247C
:1031C0009DF80700044324029DF8060004432402EE
:1031D0009DF80500044324029DF8040004432046A2
:1031E00001F034FC0546284901F032FB274988628A
:1031F000002088850846B0F92C009DF80910084386
:1032000022498885084690F82C00000200B2888583
:103210000846B0F92C009DF8081008431B49888522
:103220000020C8850846B0F92E009DF80B10084311
:103230001649C885084690F82E00000200B2C885DD
:103240000846B0F92E009DF80A1008430F49C885BA
:103250009DF80C0081F83000084690F8300038B135
:1032600090200B490870D0200A49087006E008E059
:10327000D02007490870902006490870012004B04A
:1032800070BD0020FBE7000020BCBE4C080D0020F4
:103290003C0D00203D0D002038B52824424890F810
:1032A000300008B1012000E00020012806D1FDF720
:1032B000C3FD3E483C494860002038BD3C48806919
:1032C00040F004003A4988610846806940F00100F6
:1032D000886138480068C0F30B003649086008462A
:1032E0000068354908433349086032480C300068AB
:1032F00040F0F8002F490C3108602B491631A1F13C
:103300000A0000F0FFF800F0E9FB4FF6FF70FEF74F
:1033100091F9FFF72BFF002838D031E022484168AF
:1033200000208847204890F8200000F0800040B13D
:103330004FF6FF70FEF77EF9FFF78EFA00F05AF9AC
:103340001EE04FF478401D490880012010231CA284
:10335000662100904920FFF7D3F8012010231CA21A
:10336000842100903020FFF7CBF8012010231DA20C
:10337000982100902320FFF7C3F80A2000F09AFC60
:10338000201EA4F10101CCB2C8D196E7FFF764FA80
:1033900000F034FB4EF61571884201D100F02AF995
:1033A000FFF7E4FE012088E7080D0020BD0E0008AD
:1033B000001002400008014000808333020D00200D
:1033C000B5E7D7E8B4A5C3FEB2E2CAD40000000056
:1033D000C8E7D0E8D2AAD6D8D0C2D0A3D7BCB4A56B
:1033E000C3FE2100C7EBB5E3BBF7C6C1C4BB21B721
:1033F000F1D4F2C7EBB5C8B4FD21000070B50646A4
:103400000025002400201F4908601F49C1F89001D1
:103410001C49091D0860304600F0C6F9062000F07E
:1034200067FC00201849C1F89801012000F060FCF9
:1034300001201449086000F05BFC00201249C1F82B
:10344000980100BF15E04FF6FF7000EA4404002029
:103450000C490860012000F04BFC01200A49C1F82A
:10346000980108488C38006808B1601C84B2681C58
:10347000C5B2102DE7DB241101200249091D0860A7
:10348000204670BD98012142000021422DE9FE43F3
:1034900080460027002406E04046FFF7AFFF2DF8E6
:1034A0001400601C84B2052CF6DB002416E0601CBE
:1034B00085B20FE03DF814003DF81510884207DD95
:1034C0003DF814603DF815002DF814002DF8156036
:1034D000681C85B2052DEDDB601C84B2042CE6DB94
:1034E0000027012405E03DF81400384487B2601C31
:1034F00084B2042CF7DB032097FBF0F086B2304651
:10350000BDE8FE832DE9F04104460D4607480078EA
:10351000FFF7BCFF064606480078FFF7B7FF0746EF
:1035200026802F800120BDE8F08100003C0D0020A6
:103530003D0D00207FB504460D4602A903A8FFF704
:10354000E1FF064616B9002004B070BD694601A827
:10355000FFF7D8FF06460EB90020F5E7BDF80400D6
:10356000BDF80C10884206DCBDF80C10BDF8040054
:10357000323081420CDBBDF80C00BDF804108842EB
:1035800036DCBDF80410BDF80C00323081422FDA71
:10359000BDF80000BDF80810884206DCBDF8081030
:1035A000BDF80000323081420CDBBDF80800BDF8E8
:1035B000001088421CDCBDF80010BDF80800323055
:1035C000814215DABDF80C10BDF80420881800EB14
:1035D000D071C1F34F012180BDF80810BDF8002063
:1035E000881800EBD071C1F34F0129800120ABE7AF
:1035F0000020A9E77FB52649486A264901F052FA1A
:10360000054601F0E7F90446E0B28DF80000200A13
:103610008DF80100200C8DF80200200E8DF80300BB
:103620001B49886A1B4901F03DFA054601F0D2F9B1
:103630000446E0B28DF80400200A8DF80500200C45
:103640008DF80600200E8DF80700114890F82C0028
:103650008DF808000E48808D000A8DF809000C488E
:1036600090F82E008DF80A000948C08D000A8DF8E8
:103670000B00074890F830008DF80C000B248DF8F3
:103680000D400E222821684600F034F97FBD00006D
:10369000080D002020BCBE4C2DE9F04104464048F6
:1036A0000068002856D12CB13E49A1F10A00FFF76D
:1036B00041FF3DE03B49A1F10A00FFF73BFFB8B3F2
:1036C00038491639B1F92C0001F0C0F907463549DF
:1036D0001639888901F0D2F9804632481638416A95
:1036E000404601F0DFF90646394601F04FF805463D
:1036F00001F08CF92B4916398881B1F92E0001F0BF
:10370000A5F9074627491639C88A01F0B7F9804656
:1037100024481638816A404601F0C4F90646394605
:1037200001F034F8054601F071F91E491639C882D6
:103730001C48163890F8200000F0800038BBC020EC
:103740001849163981F82000084681898182C18A8A
:10375000C1831CE01348163890F8200000F0800068
:1037600050B11048163890F8200020F080000D4924
:10377000163981F820000AE000210A4816388182B3
:10378000C1834FF6FF70074916398881C882054802
:10379000163890F8200000F08000BDE8F0810000AD
:1037A000140121421E0D002070B50446002500BF03
:1037B00018E004F0800018B101200C49086002E014
:1037C00000200A4908606006040E002007490831FD
:1037D0000860012000F08CFA01200549C1F8980129
:1037E000681CC5B2082DE4DB70BD000090012142C9
:1037F000000021421D49098801F0200111B31B4935
:10380000091D0988C8B21A49098801F40041C9B9DB
:103810001749098801F4804161B10A2803D00021C9
:10382000134A118020E01249098841F40041104AEE
:10383000118019E00D2806D10D49098841F4804115
:103840000B4A118010E00A490988C1F30D01094AA9
:10385000505407490988491C054A118011460988B6
:10386000C72901DD002111807047000000380140A8
:1038700008000020D8190020F0B506460C4617466F
:1038800000BF00F021F80028FBD10E49086003209A
:10389000FEF718FEC4F30740FEF714FEC4F307203A
:1038A000FEF710FEE0B2FEF70DFE002504E0FEF785
:1038B000EFFD7055681C85B2BD42F8DB012001495F
:1038C0000860F0BDA401214210B50020074908603E
:1038D0000520FEF7F7FDFEF7DBFD04460120044955
:1038E000C1F8A40104F00104204610BDA401214246
:1038F000000021422DE9F04F81460F461646DFF8C1
:10390000A8B04FEA1738C7F30B0ACAF58054A6428D
:1039100000DC344644E04FEA08314FF48052584608
:10392000FFF7AAFF002508E00AEB05001BF80000DE
:10393000FF2800D003E0681C85B2A542F4DB00BF7D
:10394000A54216DA404600F031F8002507E019F8E4
:10395000050005EB0A010BF80100681C85B2A542C1
:10396000F5DB4FEA08314FF48052584600F094F8E6
:1039700004E022463946484600F08EF8A64200D1BF
:103980000FE008F101084FF0000AA1442744301B62
:1039900086B2B6F5805F02DD4FF4805400E0344615
:1039A000B9E700BFBDE8F08FAE1A002010B504469D
:1039B000240300F0C9F800BFFFF786FF0028FBD101
:1039C0000C4908602020FEF77DFDC4F30740FEF798
:1039D00079FDC4F30720FEF775FDE0B2FEF772FD36
:1039E00001200549C1F8A40100BFFFF76DFF0028C1
:1039F000FBD110BDA40121420000214210B50024DA
:103A000000200D4908609020FEF75CFD0020FEF7C5
:103A100059FD0020FEF756FD0020FEF753FDFEF78E
:103A200037FD44EA0024FEF733FD04430120034937
:103A3000C1F8A401204610BDA4012142000021428A
:103A4000F0B506460C46174600F07EF800201149F6
:103A500008600220FEF736FDC4F30740FEF732FD92
:103A6000C4F30720FEF72EFDE0B2FEF72BFD002584
:103A700004E0705DFEF726FD681C85B2BD42F8DBF0
:103A800001200449086000BFFFF71EFF0028FBD19A
:103A9000F0BD0000A4012142F0B507460E461446D1
:103AA000F0B2C0F58075AC4200DC254612E02A4633
:103AB00031463846FFF7C4FFAC4200D10BE02F443B
:103AC0002E44601B84B2B4F5807F02DD4FF4807514
:103AD00000E02546EBE700BFF0BD000010B516483A
:103AE000806940F00400144988610120FDF78AFDD7
:103AF0001248006820F0FF0010490860084600687E
:103B000040F083000860081D00680D4908400B491B
:103B1000091D0860084600680A4908430749091D4D
:103B2000086006480C30006840F20331084303493E
:103B30000C31086010BD0000001002400008014078
:103B400000FFFF0F3300003000B50020044908607B
:103B50000620FEF7B7FC01200249C1F8A40100BD10
:103B6000A40121420000214230380A2801D201205C
:103B7000704700207047014600BF704788B000249E
:103B800071E03948416800208847002469E03648E0
:103B900090F820000121A140084000285AD0324866
:103BA0000C3030F8140031490988884257DA2E4821
:103BB000163030F814002D49498888424FDA03A89E
:103BC00030F824004FF6FF7188420DD126480C30A2
:103BD00030F8140003A921F824002348163030F8E7
:103BE000140001EB84014880214830F814000221C0
:103BF0001D4D1635CDE9001035F814300A3D35F865
:103C0000142003AD05EB8405698803AD35F8240065
:103C100000F0F6F814480C3030F8140003A921F82D
:103C200024001148163030F8140001EB840148805C
:103C30000D480C3030F814100C48008818388142B8
:103C40000DDD0948163030F81400102807DAFEF7A9
:103C50007BFA04E04FF6FF7003A921F82400601CF2
:103C6000C4B2052C93DB8CE7080D0020A01A0020BD
:103C7000086500084FF0E021096921F004014FF0C8
:103C8000E0221161C21700EB5272C2F3C702074B68
:103C90001A701946097801EB4102C2EBC1114FF6C7
:103CA000FF7202EAC101024A118070470000002041
:103CB0000200002001460D4A12884A434FF0E023DB
:103CC0005A6100229A6101221A6100BF4FF0E0227E
:103CD000106900F001021AB100F48032002AF5D018
:103CE00000224FF0E0231A619A6170470200002021
:103CF00001460D4A12784A434FF0E0235A610022F0
:103D00009A6101221A6100BF4FF0E022106900F0B1
:103D100001021AB100F48032002AF5D000224FF0DF
:103D2000E0231A619A61704700000020F8B505464B
:103D30000E4614461F4604B9F8BD2819401E82B22B
:103D40003346314628460097FDF7ECFD00BFF3E708
:103D50002DE9F04F0746884616469A4640F2C320A2
:103D600070434FF47A71B0FBF1F000F1010906FBEA
:103D700006F000EB560B344671040A0CB91B88B2EE
:103D800053464146FFF7D2FF012535E005FB05F01C
:103D900004FB040058451AD94C4517D96B1E5B0427
:103DA0001A0C08EB040399B27B1B5B1C98B25346B8
:103DB000FFF7BCFF6B1E5B041A0CA8EB040399B25F
:103DC0007B1B5B1C98B25346FFF7B0FF641E630475
:103DD0001A0C08EB050399B23B1B98B25346FFF748
:103DE000A5FF63041A0CA8EB050399B23B1B98B21C
:103DF0005346FFF79BFF6D1C4D45C7D9BDE8F08FBB
:103E00002DE9FF4F85B080468946129F0020039020
:103E10000290B84507DB0798B84204DBB94502DBDE
:103E20000898B84202DA09B0BDE8F08F0798A0EB15
:103E300008040898A0EB0905CDF80480CDF800909F
:103E4000002C02DD4FF0010A06E014B94FF0000A21
:103E500002E04FF0FF3A6442002D02DD4FF0010B0B
:103E600006E015B94FF0000B02E04FF0FF3B6D424A
:103E7000AC4201DD264600E02E460020049023E0FF
:103E8000009A91B2019A90B23A46139BFFF760FFF5
:103E90000398204403900298284402900398B0426B
:103EA00005DD0398801B039001985044019002980F
:103EB000B04205DD0298801B0290009858440090A3
:103EC0000498401C80B20490711C04988842D7DD8D
:103ED00000BFA8E710B50920FEF78CFB4FF4165180
:103EE000482000F017F94820FFF7C4FEFDF776FDE3
:103EF0001D4890F830001C4981F830000020FDF783
:103F0000BBFB4FF6FF70FDF795FB012017490860DA
:103F100017A000F035F8FCF78DFDFEF7EBF9FDF783
:103F200099F8FCF7C5FEFCF727FDFEF7C1F9FEF78F
:103F3000A9FBFEF76DFA0020FDF79EFB0A49086811
:103F400080474FF478400D490880FEF7FDF8064899
:103F500090F8300000F0800010B1FFF70FFE01E094
:103F600000F07CF8002010BD080D002088012142DF
:103F700049433A535437373839000000020D0020C6
:103F800038B5044620A0FCF7FFFD4FF478402249E5
:103F900008800120202321A2642100900020FDF749
:103FA00001FB4FF4FC601C490880012020231DA266
:103FB000872100900020FDF7F5FA1F2016490880A0
:103FC000012018232246AA2100900020FDF7EAFADA
:103FD0000020114908800120182315A2C421009057
:103FE0000020FDF7DFFA00200B490880012018238C
:103FF00012A2EB2100900020FDF7D4FA4FF4E1600B
:10400000FFF758FE38BD0000CFD4CABEC6C1B2E229
:10401000CAD4B3CCD0F20000020D0020CFD4CABE67
:10402000C6C10000B2E2CAD4B3CCD0F20000000096
:104030003234305247422A333230000054454C3A31
:1040400031333532383838363336350000BF011E4B
:10405000A0F10102D0B2FAD1704700002EE018485A
:10406000416800208847164890F8200000F0800042
:1040700008B3134880891349098888421EDA10481A
:10408000C08A10494988884218DA0D4881890D484C
:1040900000881838814206DD0948C08A102802DAF3
:1040A000FEF752F80AE0064AD18A90894FF4784226
:1040B000FFF706F802E00A20FFF7FCFDCFE700005B
:1040C000080D0020A01A00202DE9F04106460F46F9
:1040D00000F04AFA041E0D4618BF0120284320F0C4
:1040E0000040C0F17F6000F1E040C00F0ED0301CF6
:1040F00018BF0120384320F00040C0F17F6000F17C
:10410000E040C00F04BF0120FCF727FA20462946F3
:10411000BDE8F0812DE9F05F05460E46300100F064
:10412000ADFC81462E4905FB01F000F0A7FC82465C
:10413000494600F08DFB0746384600F067FC84B224
:10414000204600F09BFC8346394600F077FD82460E
:104150004FF0834100F0A6FC814600F057FC8046FA
:104160004FF6FF7000EA041404EB080084B21D4807
:10417000806940F004001B4988610846806940F46A
:10418000804088611848006820F47F601649086004
:104190000846006840F40B6008601248C06840F4AC
:1041A00080401049C8600846C06820F48040C8605C
:1041B0000E480480001D008842F20C0108430B49A0
:1041C000091D08800846008840F02000088002236E
:1041D000252203210846FEF711F8BDE8F09F0000F4
:1041E00040420F000010024004080140083801401E
:1041F000491058BFC1F140415B1058BFC3F1404363
:104200008B42EFF3008070474FEA1153A3F58063B0
:10421000D3F11E03A8BFD3F1200C08DB4FF00042FE
:1042200042EAC12252EA505232FA03F07047094280
:104230000BD4102BC4BF0020704703F5787CBCF171
:10424000FF3F05D04FF0FF3070474FF00000704740
:1042500070B500F0FFF800BF49922480002070473D
:10426000F0E7B0FA80F310FA03F10AD0C3F11D03AE
:1042700003F580634FEA41504FEA035202EBD1212C
:1042800070474FF00000704751EA030C17D41CF53B
:10429000801F58BFBCF5801F00F10680994218BFEF
:1042A000704708BF9042704707D711F5801F58BF6D
:1042B00013F5801F19D499427047894270471CF545
:1042C000801F08D5BCF5801FF7D58B4218BF7047FB
:1042D00008BF824270474FF4001C1CEB410F38BFEF
:1042E0001CEB430F01D28B42704770B500F0B2F85F
:1042F000922449004FF000514FF08053FFF778BFF0
:10430000DFF848C170B51CEA111E1EBF1CEA131568
:104310009EEA0C0F95EA0C0F00F06F8081EA03040F
:1043200023EA4C134EEAD47E21EA4C1141F4801169
:1043300043F48013AE44A1FB024CA0FB0365AEF135
:104340007F7E361955EB0C05A1FB034C4CF10003A5
:10435000A0FB021C16EB0C06654153F10003094259
:1043600018BF46F0010613F4007F0BD14FEA03316A
:104370004FEA0530340341EA155140EA16506FF018
:1043800003020AE04FEAC3214FEAC520F40241EAE2
:10439000555140EA56506FF0020202EB2E4201EBFB
:1043A000025585EACE710AD05FEA440C18BF24F0AA
:1043B000004450F1000041F1000120EAD47040F2C5
:1043C000FE7C624500D270BDA84214BF4FF080440D
:1043D0004FF04044002E08BF0024BEF1806FA8BFFC
:1043E000A1F1C041BDE8704080F282804FF0000032
:1043F00001F1C04101F0004170479EEA0C0F0CEA48
:10440000131518BF95EA0C0F06D04FF0000081EA93
:10441000030E0EF0004170BD00F01CF88900013E53
:1044200000F007B800F009B84FEA430C5FEA5C5CA3
:1044300008D081EA030100F05BB84FEA410C5FEA63
:104440005C5CF6D14FF00000014970470000FF07A7
:104450000000F87F0EF1020E2EF0030E5EF8046BE2
:10446000364205D4012A43EB030515F5001F12D887
:10447000012841EB010C1CF5001F0CD80ED14FEAAE
:10448000D17C15F5001F0CEB4C0C0CF1020C08BF95
:104490004CEBD37C04E04FF0080C01E04FEAD37CF6
:1044A0000CEB4C0526FA05F606F00706B6F1040CEF
:1044B00006D20EEB860CBDE870404CF0010C604754
:1044C000DFE80CF0090B02024FF000414FF0000052
:1044D000A1F5002170BD19461046012851EB0104D9
:1044E00018BFD4F5001484BF002001F0004170BD56
:1044F0000808A0F500114FEA3101704753EA010C9A
:1045000017D41CF5801F58BFBCF5801F00F1068032
:104510008B4218BF704708BF8242704707D713F518
:10452000801F58BF11F5801F19D48B4270479B42E2
:1045300070471CF5801F08D5BCF5801FF7D5994240
:1045400018BF704708BF904270474FF4001C1CEB27
:10455000430F38BF1CEB410F01D2994270470FB493
:104560000CBC03BCFFF7C1BE2DE9F04101F5801C76
:10457000BCF5001FC0F2C3804FEA115C21EA0C5168
:104580000CF1FD0C41F480115FEA5C0C0CF5C07C71
:1045900001D3400049413DA4890241EA905187027C
:1045A0008E0E0A0CA45D04FB04F602FB06F6C6F1AF
:1045B0004046A4FB0662F60D46EA422606FB06F4D8
:1045C000A4FB01235242C3F1404338BF5B1EA6FB4C
:1045D00002420024E6FB0324D20B42EA4446A6FB37
:1045E0000623A1FB02E2A3FB07E4A4184FF000029C
:1045F00052F10002E3FB01426442C2F1404E38BF77
:10460000AEF1010EA6FB04234FF00002E6FB0E32D2
:10461000A2FB03464FF00004B61954F10004E2FB7C
:104620000264A1FB06E6A4FB07E816EB08064FF0C0
:10463000000858F10008E4FB01687642C8F14058D0
:1046400038BFA8F10108A2FB06E4A3FB08E52D1979
:104650004FF0000454F10004E2FB0854A1FB05E60E
:10466000A7FB04E818EB06084FF0000656F1000619
:10467000E1FB048618F1200556F10006A809A8F10F
:104680001B08B10908F03F08B8F10A0F40EA86603C
:104690001CD901EB0C51BDE8F08100BFFCF5EEE840
:1046A000E2DDD8D3CFCBC7C3C0BDB9B6B4B1AEACD1
:1046B000A9A7A5A3A19F9D9B9A9896959392908F49
:1046C0008D8C8B898887868584838281A0FB006896
:1046D00000FB01F208EB4208B8EB872807D5341835
:1046E00058EB0104D5D5401C51F10001D1E7341A33
:1046F00078EB0104CDD4401E71F10001C9E75FEAF7
:104700004C0C5FEA9C5C0DD105D34FF0000001F02A
:104710000041BDE8F081BDE8F04170B5FFF79AFEB9
:104720006DDBFFBEBDE8F0414FF00000004970476F
:104730000000F87F43004FEAD30C4FEA3C0C4340A3
:104740001FBF40070CF1605113F0FE4F70471CF083
:10475000006F03D100200CF0004170470CF00043C3
:1047600043EA507010B540EACC0000F01CFA00BFDC
:10477000000000924FEA0001FFF7BABE4FF000417F
:104780004FF00000A1F500217047000090EA010FF2
:1047900048BF81F0004100F16282421A3CBF801A9A
:1047A00089184FEAD0524FF07F4C1CEA410FA2EB20
:1047B000D15318BF9CEA026F00F03B804FF0004CD1
:1047C0004CEA00204CEA012121FA03FC10EB0C0C0E
:1047D0001ED202F1FF325FEA1C2040EBC25038BF0C
:1047E00070471CF07F0F4FEA400C18BFBCF17F4FA1
:1047F00038BF7047C3F12003994008BF20F0010083
:10480000BCF17F4F38BF7047A0F1C04000F011BA33
:104810004FEA3C00000A40EBC25028BF1CF0FF0FDB
:104820004FEA400CE6D018BFBCF17F4F38BF70474D
:10483000EAE79CEA026F05D010EA5C0F08BF00F0BF
:104840000040704710B500F0AEF900BF64FBBE3EFB
:104850004FF47F0C1CEAD0121EBF1CEAD11392EA5F
:104860000C0F93EA0C0F00F0858090EA010F48BF0F
:1048700042F4807240F4000C41F400002CF07F41BF
:1048800020F07F4000B58142A2EB03020FF2081C2A
:10489000ACEB504EC0F100009EF800E04FEA4E0E27
:1048A00000FB0EFC38BF49004FEA2C1C02F5FA024F
:1048B0000CFB0EF34FEACE1E4FEA112C4FEAC1213A
:1048C0000EEB635E42EB22420EFB0CFC4FEA1C53E4
:1048D00000FB03114FEA112C4FEA01310EFB0CFCD7
:1048E0004FEADC4C00FB0C11C14228BF09184CEB0D
:1048F00003335DF804EB10EB410143EBC250B2F51A
:104900007C0F38BF704729D512F0F00F1CBF00F1A3
:10491000C04000F000407047008182838485868714
:1049200088898B8C8D8E8F919293959697999A9C6E
:104930009D9FA0A2A3A5A7A8AAACAEB0B2B3B5B7DD
:10494000B9BCBEC0C2C5C7C9CCCED1D4D7D9DCDFB3
:10495000E2E6E9ECF0F3F7FAFE0000004FEA400C63
:104960000CF1807CBCF17E4F28BF7047B0F1C04095
:1049700000F05FB990EA010F0CEAD11348BF42F48E
:104980008072624538BF634507D213F47F0F16D09B
:1049900080EA010000F00040704710B500F003F914
:1049A000097EFC3E00F005B880EA010000F00040FE
:1049B000704780EA010000F0004000F03AB912F4BC
:1049C0007F0F04BF0248704780EA010000F031B950
:1049D0000000C07F41000B0ED3F19E0208D950F4B5
:1049E00000034FEA032323FA02F048BF4042704716
:1049F00010B500F0D8F800BF49922480002070471D
:104A00006FF0004282EA200070470000C10DD1F132
:104A10009E0206DB4FEA002343F0004323FA02F034
:104A20007047004207D54FEA4001B1F1FE4F02D274
:104A30004FF00000704710B500F0B5F8499224809F
:104A4000002070476FEA20007047000010F000411E
:104A500048BF4042B0FA80F310FA03F2C3F19D035D
:104A60000BD051EAC35101EB1220530638BF7047F7
:104A700000F1010008BF20F001007047B0FA80F398
:104A800010FA03F2C3F19D030AD0D90501EB1220FD
:104A9000530638BF704700F1010008BF20F0010045
:104AA000704700004FF47F0C1CEAD0121EBF1CEAB6
:104AB000D11392EA0C0F93EA0C0F00F0478090EAB2
:104AC000010F48BF42F480724FF0004C4CEA0020C6
:104AD0004CEA012102EB0302A0FB0113A2F5000244
:104AE000002918BF43F001035B0028BF4FEA3303DE
:104AF00042EB22425FEA132C4CEBC2502EBFBCEBC0
:104B0000436FB2F57C0F70474FEA036CBCF1004F66
:104B100008BF20F00100B2F57C0F38BF70470BD5FD
:104B200082F0FF0212F5803FC8BF704700F1C0401D
:104B3000D8BF00F00040704700F5000C5FEA4C0C55
:104B400048BF7047B0F1C04000F073B890EA010F61
:104B50000CEAD11348BF42F48072624538BF634506
:104B600004D280EA010000F00040704710B500F068
:104B70001AF800BF8900013E00F007B800F009B83C
:104B80005FEA410C5FEA1C6C08D080EA010000F08B
:104B900050B85FEA400C5FEA1C6CF6D14FF0004061
:104BA000A0F5800070470EF1020E2EF0030E5EF8A5
:104BB000044B244204D44FEA4102B2F17F4F11D892
:104BC0004FEA4003B3F17F4F0CD80ED14FEAD07CAF
:104BD000B2F17F4F0CEB4C0C0CF1020C08BF4CEB0C
:104BE000D17C04E04FF0080C01E04FEAD17C0CEBE3
:104BF0004C0324FA03F404F00704B4F1040C06D2C5
:104C00000EEB840CBDE810404CF0010C6047DFE86F
:104C10000CF0070802024FF00040A0F5800010BD24
:104C20000846420018BFD2F1807288BF00F00040F1
:104C300010BDFF2141EAD050C005704780F0004010
:104C400090EA010F7FF5A9AD81F0004100F007B8AF
:104C500090EA010F48BF81F000413FF59EAD421A36
:104C600004D882F00042A0EB020011444FEAD05277
:104C70004FF07F4C1CEA410FA2EBD15318BF9CEAC6
:104C8000026F4AD04FF0004C4CEA00204CEA012160
:104C900021FA03FCB0EB0C0C0FD412F0FE0F36D04F
:104CA0005FEA4C001DD5001240EBC25038BF704780
:104CB0001CF03F0F18BF70470BE0A2F101025FEA42
:104CC0001C2040EBC25038BF70471CF07F0F18BF4C
:104CD0007047C3F12003994014BF401E20F001002B
:104CE000704780084FEA122308BF7047B0FA80FC73
:104CF000A2EB0C02CCF1280C60FA0CF093EA122F14
:104D000004BF00EBC25070474FEAC3707047130AEC
:104D10005FEADC1008BF7047F6E79CEA026F04D038
:104D200010EA5C0F08BF0020704710B5FFF73BFF8B
:104D300040DFF63E81F000407047000000000000B8
:104D4000000000000000000000003F4000000000E4
:104D5000000000003000400030004000000009006A
:104D60000BC03D000BC03D00090018C024407FE08F
:104D7000224031800000180024C01B000D8032400A
:104D8000018003801C4027401C8007400040100029
:104D900060000000000000000000000000000000B3
:104DA0001F80204040200000402020401F80000045
:104DB0000000090006001F80060009000000040032
:104DC00004003F80040004000000001000600000A8
:104DD00000000000000004000400040004000400BF
:104DE0000000000000400000000000000000002063
:104DF00001C006003800400000001F802040204015
:104E000020401F800000000010403FC00040000014
:104E1000000018C0214022402440184000001080AB
:104E20002040244024401B80000002000D0011009F
:104E30003FC0014000003C802440244024402380A7
:104E400000001F80244024403440038000003000D4
:104E5000200027C03800200000001B802440244090
:104E600024401B8000001C0022C0224022401F80E2
:104E700000000000000008400000000000000000EA
:104E800000000460000000000000000004000A00B0
:104E900011002080404009000900090009000900B4
:104EA000000000004040208011000A0004001800AB
:104EB000200023402400180000001F8020402740CD
:104EC00029401F400000004007C039000F0001C00A
:104ED000004020403FC0244024401B8000001F8031
:104EE0002040204020403080000020403FC0204033
:104EF00020401F80000020403FC024402E4030C092
:104F0000000020403FC024402E00300000000F0071
:104F10001080204022403380020020403FC0040027
:104F200004003FC02040204020403FC0204020409F
:104F300000000060202020203FC0200020002040F2
:104F40003FC024400B0030C0204020403FC02040E4
:104F50000040004000C03FC03C0003C03C003FC0D8
:104F6000000020403FC00C4023003FC020001F80B5
:104F70002040204020401F80000020403FC02440AF
:104F80002400180000001F802140214020E01FA0C5
:104F9000000020403FC02440260019C0004018C037
:104FA00024402440224031800000300020403FC097
:104FB00020403000000020003F80004000403F8043
:104FC000200020003E0001C007003800200038000B
:104FD00007C03C0007C038000000204039C0060070
:104FE00039C0204000002000384007C03840200071
:104FF0000000304021C02640384020C000000000A2
:1050000000007FE0402040200000000070000C0005
:105010000380004000000000402040207FE00000AE
:1050200000000000200040002000000000000010F0
:1050300000100010001000100010000000004000E0
:10504000000000000000000002800540054003C091
:10505000004020003FC004400440038000000000E6
:105060000380044004400640000000000380044028
:1050700024403FC00040000003800540054003403D
:105080000000000004401FC0244024402000000015
:1050900002E0055005500650042020403FC0044067
:1050A000040003C000400000044027C0004000008E
:1050B000000000100010041027E000000000204055
:1050C0003FC00140070004C00440204020403FC0D2
:1050D00000400040000007C0040007C0040003C0F7
:1050E0000000044007C00440040003C0004000006A
:1050F00003800440044003800000041007F00450C3
:10510000044003800000000003800440045007F0C6
:105110000010044007C0024004000400000000002A
:1051200006400540054004C00000000004001F8048
:10513000044000400000040007800040044007C015
:1051400000400400070004C00180060004000600BF
:1051500001C0070001C006000000044006C00100B5
:1051600006C0044000000410071004E0018006009F
:1051700004000000044005C0064004400000000098
:10518000000004007BE04020000000000000000060
:10519000FFF000000000000040207BE00400000061
:1051A000000040008000400020002000400000007F
:1051B00000000000000000000000000000000000EF
:1051C000000000001FCC000C0000000000000000E8
:1051D000080030006000080030006000000002207D
:1051E00003FC1E20022003FC1E2002200000000001
:1051F0000E1811043FFF10840C78000000000F000F
:1052000010840F3800C007781884007800000078F8
:105210000F8410C411240E9800E4008400080800D4
:1052200068007000000000000000000000000000A6
:105230000000000007E018182004400200000000F1
:1052400040022004181807E000000000000002409F
:10525000024001800FF00180024002400000008007
:10526000008000800FF800800080008000000001B6
:10527000000D000E00000000000000000000000013
:10528000008000800080008000800080008000009E
:10529000000C000C000000000000000000000000F6
:1052A00000060018006001800600180020000000C1
:1052B00007F0080810041004080807F000000000B8
:1052C000080408041FFC00040004000000000000A3
:1052D0000E0C10141024104411840E0C0000000059
:1052E0000C1810041104110412880C700000000046
:1052F00000E00320042408241FFC00240000000018
:105300001F98108411041104108810700000000010
:1053100007F00888110411041888007000000000CC
:105320001C00100010FC13001C0010000000000006
:105330000E3811441084108411440E38000000000F
:105340000700088C10441044088807F00000000093
:1053500000000000030C030C00000000000000002F
:105360000000000101060000000000000000000035
:1053700000800140022004100808100400000220F0
:105380000220022002200220022002200000000051
:1053900010040808041002200140008000000000F2
:1053A0000E001200100C106C10800F00000003E0C3
:1053B0000C1813E4142417C4082807D000000004B4
:1053C000003C03C41C40074000E4001C000410041F
:1053D0001FFC1104110411040E880070000003E08A
:1053E0000C1810041004100410081C100000100405
:1053F0001FFC100410041004080807F0000010043B
:105400001FFC1104110417C4100408180000100434
:105410001FFC1104110017C010000800000003E079
:105420000C181004100410441C78004000001004F4
:105430001FFC10840080008010841FFC10040000FA
:10544000100410041FFC10041004000000000003EE
:105450000001100110011FFE1000100000001004D8
:105460001FFC110403801464181C100400001004B5
:105470001FFC1004000400040004000C00001004D1
:105480001FFC1F0000FC1F001FFC10040000100484
:105490001FFC0C04030000E010181FFC100007F0B4
:1054A0000808100410041004080807F00000100495
:1054B0001FFC10841080108010800F00000007F087
:1054C000081810241024101C080A07F20000100409
:1054D0001FFC1104110011C011300E0C000400005B
:1054E0000E1C11041084108410441C380000180095
:1054F000100010041FFC1004100018000000100021
:105500001FF810040004000410041FF8100010001D
:105510001E0011E0001C007013801C0010001FC052
:10552000103C00E01F0000E0103C1FC00000100411
:10553000180C163401C001C01634180C10041000E9
:105540001C00130400FC13041C00100000000804DD
:10555000101C1064108413041C04101800000000B8
:10556000000000007FFE40024002400200000000F8
:1055700030000C0003800060001C000300000000ED
:105580004002400240027FFE0000000000000000D8
:10559000000020004000400040002000000000010A
:1055A00000010001000100010001000100010000F4
:1055B000400040002000000000000000000000004B
:1055C0000098012401440144014400FC000410003F
:1055D0001FFC008801040104008800700000000026
:1055E000007000880104010401040088000000002C
:1055F000007000880104010411081FFC0004000071
:1056000000F8014401440144014400C800000000C6
:10561000010401040FFC1104110411001800000022
:1056200000D601290129012901C901060000100441
:105630001FFC008401000100010400FC00040000C4
:105640000104190419FC000400040000000000001B
:10565000000300010101190119FE000000001004FF
:105660001FFC0024004001B4010C010400000000F4
:10567000100410041FFC00040004000000000104DA
:1056800001FC0104010001FC0104010000FC010413
:1056900001FC008401000100010400FC0004000082
:1056A00000F8010401040104010400F800000101F4
:1056B00001FF008501040104008800700000000063
:1056C0000070008801040104010501FF00010104CC
:1056D000010401FC008401040100018000000000BD
:1056E00000CC0124012401240124019800000000C1
:1056F0000100010007F8010401040000000001009E
:1057000001F8000400040004010801FC0004010089
:1057100001800170000C001001600180010001F0A7
:10572000010C003001C00030010C01F0010000004C
:105730000104018C00740170018C0104000001015E
:1057400001810171000E001801600180010000005C
:105750000184010C013401440184010C00000000AB
:1057600000000000000001003EFC4002400200007A
:10577000000000000000FFFF00000000000000002B
:10578000400240023EFC010000000000000000005A
:1057900060008000800040004000200020000000E9
:1057A00000000000000000000000000000000000F9
:1057B00000000000000000000000000000000000E9
:1057C00000000000000000000000000000000000D9
:1057D000000F80380FFE380F8038000000000000F6
:1057E00000000000000000000000000001000006B2
:1057F00000000C00003800003100000600000C0022
:10580000003800003000000000000000000061804F
:105810000067F807F9800061800061800061800006
:1058200061800067F807F9800061800000000000D7
:105830000000000001C0E003E0F006300804180892
:105840001FFFFE040E080787F00381E00000000040
:10585000000001F000060C00040408060C7001F9B9
:10586000C0000E00003BE000EC18070808040C180C
:105870000003E00000000001E00007F003F8180456
:105880001C0804170807E1D003C0E00023B0003C67
:1058900008002008000010000000000000010000C7
:1058A0003100003200001C00000000000000000079
:1058B00000000000000000000000000000000000E8
:1058C00000000000000000000000000000007F0059
:1058D00001FFC00780F00C00181000042000020037
:1058E00000000000002000021000040C00180780D7
:1058F000F001FFC0007F0000000000000000000079
:1059000000000000000000000000420000660000EF
:105910006600003C0000180003FFC0001800003CB7
:105920000000660000660000420000000000080061
:1059300000080000080000080000080001FFC00087
:10594000080000080000080000080000080000002F
:105950000000000100003100003200001C000000C7
:105960000000000000000000000000000000000037
:105970000000000000000800000800000800000807
:1059800000000800000800000800000800000800EF
:1059900000080000000000000000000000003800C7
:1059A0000038000038000000000000000000000087
:1059B00000000000000000000000000000000006E1
:1059C00000001C000070000180000E000038000084
:1059D000C0000700001C00003000000000000000B4
:1059E00000007F8001FFE0038070060018040008BB
:1059F00004000806001803807001FFE0007F8000AB
:105A00000000000000000000010008010008010083
:105A10000803FFF807FFF80000080000080000086E
:105A200000000000000000000001C03802C058045F
:105A30000098040118040218040418061C1803F83E
:105A40001801E0F800000000000000000001C0E0C4
:105A500003C0F00400080408080408080618080336
:105A6000F41801E7F00001E0000000000000000071
:105A700000000300000D000011000061000081081B
:105A800003010807FFF80FFFF800010800010800F4
:105A900000000000000000E007FCD0060808061027
:105AA00008061008061008061838060FF00607C08A
:105AB000000000000000000000003F8001FFE00344
:105AC000843002081804100804100804100807188D
:105AD00010030FF00007C0000000000000000000ED
