:020000040800F2
:1000000048090020D5010008D9010008DB010008DB
:10001000DD010008DF010008E10100080000000028
:10002000000000000000000000000000E3010008E4
:10003000E501000800000000E7010008E9010008F0
:10004000EB010008EB010008EB010008EB010008E0
:10005000EB010008EB010008A90900080D0A0008DF
:10006000EB010008EB010008EB010008EB010008C0
:10007000EB010008EB010008EB010008EB010008B0
:10008000EB010008EB010008EB010008EB010008A0
:10009000EB010008EB010008EB010008EB01000890
:1000A000EB010008EB010008EB010008EB01000880
:1000B000A51B0008EB010008EB010008EB0100089C
:1000C000EB010008EB010008EB010008EB01000860
:1000D000EB010008ED360008EB010008EB01000819
:1000E000D9090008EB010008EB010008EB0100084A
:1000F000EB010008EB010008EB010008EB01000830
:10010000EB010008EB010008EB010008EB0100081F
:10011000EB010008EB010008EB010008EB0100080F
:10012000EB010008EB010008EB010008EB010008FF
:1001300000F002F800F03FF80AA090E8000C8244BA
:100140008344AAF10107DA4501D100F034F8AFF297
:10015000090EBAE80F0013F0010F18BFFB1A43F0A5
:100160000103184780B80000A0B80000103A24BF6F
:1001700078C878C1FAD8520724BF30C830C144BF0C
:1001800004680C607047000000230024002500264E
:10019000103A28BF78C1FBD8520728BF30C148BFEA
:1001A0000B607047752900F07580002070471FB5FF
:1001B0001FBD10B510BD00F06DFA1146FFF7F7FF37
:1001C00006F08EFD00F08BFA03B4FFF7F2FF03BCDC
:1001D00003F0D5FA08480047FEE7FEE7FEE7FEE732
:1001E000FEE7FEE7FEE7FEE7FEE7FEE70348044919
:1001F000044A054B70470000310100084803002005
:1002000048090020480500204805002070470000EC
:100210000FB41CB50C0007AA009001D02044401E6A
:10022000074B7B4469460190069800F00AFA002CBF
:1002300003D06946002000F017FA1CBC5DF814FBDF
:100240004D04000070B5044685690068C10601D5FB
:10025000302600E02026C00707D070BDD4E9012178
:1002600030469047206A401C20626D1EF6D570BD56
:1002700070B5044685690078C00707D170BDD4E920
:10028000012120209047206A401C20626D1EF6D577
:1002900070BD00002DE9F041064600241068752964
:1002A000314616A510D0AFF30080002802DA404294
:1002B00013A507E031688A0701D512A502E04907B6
:1002C00004D511A5012401E0AFF3008000210A222A
:1002D00006F1240709E0B0FBF2FCB0FBF2F302FBED
:1002E0001C00303078541846491C0028F3D12346AE
:1002F0002A463046BDE8F04100F045B90000000054
:100300002D0000002B000000200000002DE9F05F10
:10031000894604464FF0000ADFF874B1FB44C0F888
:1003200020A02046E1688847002874D0252806D000
:10033000D4E901219047206A401C2062F1E70026A1
:100340005F462046E16888472028054607DB312DB7
:1003500005D2781910F8200C08B10643F1E7B00770
:1003600001D526F00406C4F81CA00027C4F818A084
:100370002A2D09D0284603F0FBF938B304EB87088F
:10038000303DC8F8185019E059F8041B204604EB1A
:1003900087029161E1688847012F054618D1E0691D
:1003A000002820DA26F020061DE0D8F8180000EB1F
:1003B000800005EB40003038C8F818002046E1689E
:1003C0008847054603F0D4F90028EED1012F0AD062
:1003D0002E2D08D12046E16888477F1C0546022F54
:1003E00046F02006C4DBA069002803DA404246F04C
:1003F0000106A061F00701D026F010066C2D0BD08D
:10040000682D09D04C2D39D06A2D35D0742D35D0BA
:100410007A2D33D016E038E0E1682F462046884731
:10042000B842054609D16C2F26D04FF48060E168B0
:10043000064320468847054604E06C2F1AD04FF447
:10044000807006430DB3A5F14100192802D820356C
:1004500046F400664A462946204626604E46FFF787
:10046000A1FE80B101280BD0F61D26F0070000F197
:10047000080956E74020E4E78020D8E70020D6E7C7
:1004800006F104094DE7284652E7206ABDE8F09FCF
:100490007CB3000040EA0103024630B59B0710D14F
:1004A0004FF0013400E008C208C91D1B9D4315EA46
:1004B000C41FF8D013F0FF0102F8011B0DD01B0A76
:1004C000F8E711F8013B002B02F8013B05D011F8C9
:1004D000013B002B02F8013BF3D130BD10B5431CAA
:1004E00002E010F8011B71B18107FAD14FF001321F
:1004F00002C88C1A8C4314EAC211F9D0C01A0A0639
:1005000003D0C01E10BDC01A10BD0A0401D0801E49
:1005100010BD0902FCD0401E10BD4FF0000200B516
:10052000134694469646203922BFA0E80C50A0E816
:100530000C50B1F12001BFF4F7AF090728BFA0E8C4
:100540000C5048BF0CC05DF804EB890028BF40F890
:10055000042B08BF704748BF20F8022B11F0804FD2
:1005600018BF00F8012B70477047704770477047FD
:1005700010B500F087F8006810BD10B5044600F013
:1005800081F8046010BD2DE9F0470D46994692466A
:10059000044600F124080168880604D5E06921F0CA
:1005A0001001216000E00120A84201DD471B00E0AE
:1005B0000027A1697A1902EB0900081AA0612078C6
:1005C000C00602D42046FFF73DFE002608E0D4E92D
:1005D00001211AF806009047206A401C761C206210
:1005E0004E45F4DB2078C0060AD52046FFF72AFEE8
:1005F00006E0D4E9012130209047206A401C2062A7
:10060000381EA7F10107F4DC07E0D4E9012118F84E
:1006100005009047206A401C2062281EA5F10105B4
:10062000F3DC2046FFF724FE2078000602D50220E6
:10063000BDE8F0870120FBE701694A1C02610878E8
:10064000704700B58FB0CDE9013100210591054912
:100650007944CDE9031011466846FFF757FE0FB005
:1006600000BD0000E5FFFFFF0A6802F8010B0A6009
:100670007047D1E900239A4202D2531C0B601070DC
:100680007047000000487047E402002000487047AF
:10069000E40200207546FFF7F9FFAE460500694603
:1006A000534620F00700854618B020B5FFF79EFDA1
:1006B000BDE820404FF000064FF000074FF0000863
:1006C0004FF0000B21F00701AC46ACE8C009ACE8E4
:1006D000C009ACE8C009ACE8C0098D46704710B548
:1006E0000446AFF300802046BDE81040FFF76CBD24
:1006F00010B5052003F008F910BD000010B500206A
:100700000F4908600F48006820F470200D49086008
:100710000846006840F440300860FFF7E9FF002019
:100720000949C1F89001FFF7E3FF0120044908607F
:10073000FFF7DEFF00200449C1F8980110BD00005A
:100740009801214200080140000021420F488069C1
:1007500040F004000D4988610846806940F00100BE
:1007600088610B480068C0F30B000949086008461F
:100770000068084908430649086005480C300068CD
:1007800040F0F80002490C31086070470010024048
:10079000000801400080833310B500200F49086035
:1007A0000F48006820F470200D4908600846006872
:1007B00040F440300860FFF79BFF01200949C1F871
:1007C0009001FFF795FF012004490860FFF790FFB3
:1007D00000200449C1F8980110BD00009801214291
:1007E000000801400000214270B50546002416486B
:1007F000006820F47020144908600846006840F43E
:10080000002008601E2003F07FF8002612E0002080
:100810000E490860FFF76CFF01200D49C1F89801EF
:100820006006040E09488838006808B1601CC4B22C
:10083000701CC6B2082EEADB15B9FFF7ADFF01E068
:10084000FFF75CFF204670BD00080140980121427F
:100850000000214270B504461348006820F470205F
:10086000114908600846006840F4403008600020E4
:100870000E490860FFF73CFF002512E0E0090B4934
:10088000083908606006040E01200949C1F8980182
:10089000FFF72EFF002005490860FFF729FF681CBD
:1008A000C5B2082DEADB70BD000801409801214265
:1008B0000000214210B50F48006820F470200D4957
:1008C00008600846006840F44030086001200A498A
:1008D00008600A49C1F898011E2003F015F80020AD
:1008E00005490860FFF704FF00200449C1F898019A
:1008F00010BD00000008014090012142000021428B
:1009000010B50E48006820F470200C4908600846B5
:10091000006840F4403008600120094908601E204A
:1009200002F0F2FF00200749C1F89001FFF7E0FE56
:10093000012003490839086010BD0000000801408B
:10094000980121420000214210B50024134800689C
:1009500020F47020114908600846006840F4002027
:10096000086001200E4908600E49C1F89801FFF7A0
:10097000BFFE09E0601CC4B2FA2C03DDFFF7C0FF24
:10098000012010BDFFF7B4FE05488038006800283C
:10099000F0D103490831086000BFF2E700080140C8
:1009A000900121420000214210B50948006800F082
:1009B000010060B10748006808B9012000E000208C
:1009C0000146002005F0DCFA01200149086010BD55
:1009D000140401400081214210B50A48006800F467
:1009E000004068B10848006808B9012000E0002014
:1009F0000146022005F0C4FA4FF4004001490860A6
:100A000010BD0000140401403C01214210B509480A
:100A1000006800F0020060B10748006808B90120D2
:100A200000E000200146012005F0AAFA0220014959
:100A3000086010BD140401400481214210B5FFF785
:100A400085FE002006490860142002F03FFF0120C7
:100A50000449C1F89C014FF4967002F037FF10BDB5
:100A60009C012142000021422DE9F04106460F463B
:100A70001546FFF71FFF7020FFF7ECFEFFF764FF3E
:100A8000F0B2FFF7E7FEFFF75FFFFFF713FF7120FC
:100A9000FFF7E0FEFFF758FF00240BE0691EA142BC
:100AA00001D0012100E000210846FFF79DFE3855E6
:100AB000601CC4B2AC42F1DBFFF722FFBDE8F0815D
:100AC00071B581B00024002660480078401C5F4961
:100AD0000870084600780A2190FBF1F201FB120031
:100AE00018B15A4800780A2867DA012201A90220C1
:100AF000FFF7BAFF9DF8040000F00F0000287BD03C
:100B00009DF8040000F00F00062875DA9DF8040037
:100B100000F00F01FF208840C5B2E843C0B240F0AA
:100B2000C0004B4981F82000002457E0484890F865
:100B300020000121A1400840F0B3464931F81400DB
:100B400004226946FFF790FF414890F8300000F01A
:100B50000100C0B19DF801009DF8001001F00F01E7
:100B600000EB01203A49163121F814009DF80300EA
:100B70009DF8021001F00F0100EB012134480C3008
:100B800020F8141017E09DF801009DF8001001F006
:100B90000F0100EB01212E480C3020F814109DF8B5
:100BA00003009DF8021001F00F0100EB012128481D
:100BB000163020F8141001E00EE01DE09DF8000052
:100BC00000F0F000802807D000212148163020F8DE
:100BD00014100A3820F81410601CC4B2052CA5DBD0
:100BE00001261B48808920B91948C08A08B900200D
:100BF00001900020154908709DF8040000F01F00C6
:100C0000D0B9134890F8200000F0800040B110489F
:100C100090F8200020F080000D4981F820000BE0C2
:100C20004FF6FF700A498881C882084690F8200074
:100C300000F0E00081F8200004480078F02802DD90
:100C40000A200249087030467CBD00000E000020DA
:100C500010000020B4B300082DE9F84F054689467E
:100C600090469A46AB46AF20009000245DE004EB2E
:100C70000410344911F8100098F80010884251D13E
:100C800004EB04102F4901EB4000407898F8011064
:100C9000884247D110231A464946284600F07EFC78
:100CA00000F01EFE00263BE0002734E0BAF1000F02
:100CB00014D104EB0410234901EB4000801C805D3B
:100CC00080213941084020B11F48008800F002FE11
:100CD0001FE01E48008800F0FDFD1AE004EB041040
:100CE000184901EB4000801C805D8021394108409B
:100CF00018B14946284600F031FA681C85B2A5EBC8
:100D00000B00102805D15D4609F101001FFA80F99A
:100D100003E0781CC7B2082FC8DB00BF701CC6B246
:100D2000202EC1DB00BF601C84B2009884429EDB91
:100D30000748438802880021084600F02FFCBDE8E0
:100D4000F88F0000AA9600080A0000200C0000207E
:100D50002C0100202DE9F84F0546894690469A4619
:100D6000AB4606200090002465E004EB840000EB15
:100D70004410374911F8100098F80010884257D1F4
:100D800004EB840000EB4410314901EB4000407853
:100D900098F8011088424BD118231A464946284634
:100DA00000F0FCFB00F09CFD00263FE0002738E04F
:100DB000BAF1000F16D104EB840000EB4410244973
:100DC00001EB4000801C805D80213941084020B14A
:100DD0002048008800F07EFD21E01F48008800F0D8
:100DE00079FD1CE004EB840000EB4410184901EB92
:100DF0004000801C805D80213941084018B149467F
:100E0000284600F0ABF9681C85B2A5EB0B0018284A
:100E100005D15D4609F101001FFA80F903E0781C55
:100E2000C7B2082FC4DB00BF701CC6B2482EBDDBA2
:100E300000BF601C84B20098844296DB0748438858
:100E400002880021084600F0A9FBBDE8F88F0000E9
:100E5000E8AD00080A0000200C0000202C01002052
:100E60002DE9F84F0546894690469A46AB4608203C
:100E7000009000245DE004EB8410344911F8100068
:100E800098F80010884251D104EB84102F4901EBEF
:100E90004000407898F80110884247D120231A4634
:100EA0004946284600F07AFB00F01AFD00263BE098
:100EB000002734E0BAF1000F14D104EB8410234969
:100EC00001EB4000801C805D80213941084020B149
:100ED0001F48008800F0FEFC1FE01E48008800F05C
:100EE000F9FC1AE004EB8410184901EB4000801C67
:100EF000805D80213941084018B14946284600F0FC
:100F00002DF9681C85B2A5EB0B00202805D15D46A4
:100F100009F101001FFA80F903E0781CC7B2082F1D
:100F2000C8DB00BF701CC6B2802EC1DB00BF601CD6
:100F300084B2009884429EDB0748438802880021DF
:100F4000084600F02BFBBDE8F88F0000A4AF0008B6
:100F50000A0000200C0000202C01002072B670470F
:100F600062B6704701464906084A926942F001029A
:100F7000064B9A61064A526822F0E062044B5A60BE
:100F80001A4652680A435A60704700000010024037
:100F90000000014070B506460024094805884088D5
:100FA00045430021084600F0DFFA00F099FC00BF3D
:100FB00003E0304600F08EFC641CAC42F9D370BDF7
:100FC0002C01002000B503460BB1012B1CD10020E1
:100FD00035498871F02008804FF4A07048802C209B
:100FE00008812A2048812B20888133B9362000F0DF
:100FF00045FC002000F016FC27E0362000F03EFC07
:10100000C02000F00FFC20E0022B01D0032B1CD1EC
:101010000120254988714FF4A0700880F020488095
:101020002C2008812A2048812B208881022B06D180
:10103000362000F023FCA02000F0F4FB05E0362071
:1010400000F01CFC602000F0EDFB1749488900F01F
:1010500015FC002000F0E6FB002000F0E3FB124945
:101060000988491EC1F30F2000F0DCFB0E49097806
:10107000491EC8B200F0D6FB0B49888900F0FEFB80
:10108000002000F0CFFB002000F0CCFB064949888F
:10109000491EC1F30F2000F0C5FB03498978491EA2
:1010A000C8B200F0BFFB00BD2C0100202DE9FF4FAE
:1010B00084B081468A460020039002900698A0EBF7
:1010C00009050798A0EB0A06CDF80490CDF800A01A
:1010D000002D01DD012705E00DB9002702E04FF0EA
:1010E000FF376D42002E02DD4FF0010806E016B911
:1010F0004FF0000802E04FF0FF387642B54201DDC4
:101100002C4600E034464FF0000B21E0009A91B2EB
:10111000019A90B200F022F80398284403900298B4
:10112000304402900398A04205DD0398001B039011
:101130000198384401900298A04205DD0298001BF6
:1011400002900098404400900BF101001FFA80FBD0
:10115000601C8345DADD08B0BDE8F08F30B5044689
:101160000D462946204600F0FFF900F0B9FB024881
:10117000008800F0AFFB30BD0A0000202DE9F043ED
:1011800006460F469046002445460320A0EB48093A
:101190003CE07A1B91B2321990B2FFF7DFFF3A1BA5
:1011A00091B2721990B2FFF7D9FF3A1991B2721940
:1011B00090B2FFF7D3FF7A1991B2321990B2FFF7CC
:1011C000CDFF7A1991B2321B90B2FFF7C7FF3A19DF
:1011D00091B2721B90B2FFF7C1FF7A1B91B2321B22
:1011E00090B2FFF7BBFF3A1B91B2721B90B2FFF7B0
:1011F000B5FF641CB9F1000F03DAA000801D814423
:1012000004E0601B80000A3081446D1EAC42C0DDEA
:10121000BDE8F08370B505460E46144631462846B3
:1012200000F0A2F902490889214600F061FB70BD77
:101230002C0100202DE9FC4F05460E461746984626
:10124000DDF82C90002001902748808846F60401A4
:10125000884229D124488079012825D1AB463546DA
:1012600021480088C01B401E86B247461E480088A1
:10127000A0EB0B00401E1FFA80F800201A4988716D
:101280002A2048812B20888143463A463146284609
:10129000CDF80090FFF7CEFF0120134988712B2075
:1012A00048812A2088811CE0781B401C80B2019074
:1012B000344614E02146284600F056F900F010FBB1
:1012C0004FF0000A06E0484600F004FB0AF1010076
:1012D0001FFA80FA01988245F5DB601C84B2444510
:1012E000E8DDBDE8FC8F00002C01002010B592481D
:1012F000806940F00400904988610846806940F0A8
:10130000080088610846806940F01000886108463E
:10131000806940F0010088610120FFF723FE4FF053
:10132000333086490860081D00686FF31300091DFB
:10133000086008460068824908438049091D086022
:101340007E480C30006840F4F8507C490C3108604D
:101350007C48006800F007007B4908437949086031
:10136000081D00686FF30A0000F23330091D0860A1
:1013700074480C30006840F4FF6072490C3108601A
:101380007248406820F070607049486008464068C4
:1013900040F0407048600846C06820F48040C86053
:1013A000C814664910310860012002F08FFA4FF42A
:1013B00000606249143108600A2002F087FA4FF495
:1013C00000605E4910310860782002F07FFA112039
:1013D00000F054FA782002F079FA362000F04EFA44
:1013E000002000F01FFA3A2000F048FA052000F033
:1013F00019FAB22000F042FA0C2000F013FA0C2087
:1014000000F010FA002000F00DFA332000F00AFA84
:10141000332000F007FAB72000F030FA352000F052
:1014200001FABB2000F02AFA282000F0FBF9C020C6
:1014300000F024FA2C2000F0F5F9C22000F01EFA8A
:10144000012000F0EFF9C32000F018FA0B2000F0A3
:10145000E9F9C42000F012FA202000F0E3F9C620D8
:1014600000F00CFA0F2000F0DDF9D02000F006FAB1
:10147000A42000F0D7F9A12000F0D4F9E02000F07A
:10148000FDF9D02000F0CEF9012000F0CBF90820C2
:1014900000F0C8F90F2000F0C5F9112000F0C2F9E2
:1014A0002A2000F0BFF9362000F0BCF9552000F0EA
:1014B000B9F9442000F0B6F93A2000F0B3F90B2056
:1014C00000F0B0F9062000F0ADF9112000F0AAF903
:1014D000202000F0A7F9E12000F0D0F9D02000F0A2
:1014E000A1F9022000F09EF9072000F09BF90A20E4
:1014F00000F098F90B2000F095F9182000F092F90F
:10150000342000F08FF9432000F08CF94A2000F0DD
:1015100089F92B2000F086F91B2000F083F91C20AC
:1015200000F080F9222000F07DF91F2000F07AF908
:10153000292000F0A3F910BD00100240000801406E
:1015400033330300000C01403033333300100140CB
:1015500010B50246012000E050430B1EA1F101042A
:10156000E1B2F9D110BD000010B503460C460A499E
:10157000488900F083F9181200F054F9D8B200F04D
:1015800051F90549888900F079F9201200F04AF9EB
:10159000E0B200F047F910BD2C0100202DE9F04128
:1015A00004460D461646A019401E87B2E818401E94
:1015B0001FFA80F81149488900F060F9201200F004
:1015C00031F9E0B200F02EF9381200F02BF9F8B240
:1015D00000F028F90949888900F050F9281200F034
:1015E00021F9E8B200F01EF94FEA282000F01AF9BC
:1015F00008F0FF0000F016F9BDE8F0812C01002092
:101600002DE9F84F80460E4617461C46B346204645
:10161000E31704EB5373DB1021464FEAE47C04EB41
:101620005C7C4FEAEC0CA4EBCC0CBCF1000F02D0BC
:101630004FF0010C01E04FF0000C6344224604EB34
:10164000D27C4FEA6C0C03FB0CF3DBB20093A7F1E6
:101650002000C7B2002556E00C2C07D107EB47004D
:101660002B4901EB800010F8059013E0102C05D1F8
:10167000284800EB071010F805900BE0182C07D154
:1016800007EBC700244901EB800010F8059001E04A
:10169000BDE8F88F4FF0000A2FE009F0800030B16C
:1016A0001E48028831464046FFF7B4FD07E00A981D
:1016B00028B91B48028831464046FFF7ABFD4FEA88
:1016C00049604FEA1069701C86B216484088B042E3
:1016D00000DCDDE7A6EB0B00A0420AD15E4608F174
:1016E00001001FFA80F80F480088404500DCCFE772
:1016F00006E00AF1010000F0FF0ABAF1080FCCDBA6
:1017000000BF681CC5B200988542A5DB00BFBFE7DB
:10171000EA7E00085E8300084E8900080A00002067
:101720000C0000202C0100202DE9FF4F81B007465E
:1017300091461E460E9D4FF0000A002439E0301BF2
:10174000401EC1B20A20FFF703FFB9FBF0F00A21E7
:10175000B0FBF1F201FB1208BAF1000F16D1701EB6
:10176000A04213DDB8F1000F0ED10020AB4605EB0F
:10177000DB71491001FB0471009088B22B462022D6
:101780000299FFF73DFF12E04FF0010A0020AB463F
:1017900005EBDB71491001FB0471009088B208F180
:1017A0003001CAB22B460299FFF72AFF00BF601C26
:1017B000C4B2B442C3DB05B0BDE8F08F2DE9F847F1
:1017C00004460D4690469946DDE9096704F0FF0A94
:1017D00008EB04001FFA80F809EB05001FFA80F9F6
:1017E00016E0444502DB5446A81985B24D4500DB9E
:1017F00014E0002000903A78334629462046FFF74F
:10180000FFFE304606EBD07104EB61018CB27F1C09
:1018100038787E2802DC38782028E2DA00BFBDE87C
:10182000F88700004FF48071124A116000BF111F49
:1018300009684EF68072114000F07F02114300F0FB
:10184000800241EA42110B4A121F11600A490968DD
:101850004FF60702114000F47F4241EA5211064A56
:10186000116000BF5115034A121D1160121F116053
:1018700070470000100801400C0C01404FF48071CB
:10188000124A116000BF1149083909684EF680728A
:10189000114000F07F02114300F0800241EA421142
:1018A0000A4A083A11600A4909684FF607021140CE
:1018B00000F47F4241EA5211054A116000BF511500
:1018C000024A1160121F11607047000014080140A5
:1018D0000C0C014000B503461846FFF7A3FF00BDFE
:1018E00000B502490889FFF7C9FF00BD2C0100209F
:1018F00030B505460C462846FFF7C0FF2046FFF7E7
:10190000E9FF30BD00B5002015490861C86014200A
:10191000486100208861C8610846006840F0010005
:101920000860084640680F4908400D49486008466D
:1019300000680D4908400A4908600846006820F41C
:10194000802008600846406820F4FE0048600020BF
:10195000886000214FF0006000F058F800BD0000E2
:10196000001002400000FFF8FFFFF6FE2DE9F041F5
:101970000746884614461D46284600F033F8C5F150
:10198000040007FA00F60F20284100EA0800064389
:1019900006F00F06E21704EBD2625211920002F138
:1019A000E022D2F800212146E31704EBD3635B1158
:1019B000A4EB431C012303FA0CF31A432046E3175C
:1019C00004EBD3635B119B0003F1E023C3F8002118
:1019D0000348005D40EA061001490855BDE8F08162
:1019E00000E400E00146072323EA01021202054B4E
:1019F00018684FF6FF031840034B18431043014B80
:101A0000186070470CED00E00000FA05024A0A4039
:101A10000243024B1A60704780FFFF1F08ED00E091
:101A20002DE9F84706460F4615461C46DDF824808A
:101A3000B1464FF0000A65E0BAF1000F3AD104EB6D
:101A4000D471334A1288A2EB6101B14204DB304900
:101A50004988091BB94201DABDE8F887287880284F
:101A600002DD4FF0010A4DE028780D2804D1381925
:101A700087B24E466D1C1BE0182C0BDBCDF80080A6
:101A80002A78182339463046FFF7BAFD06F10C00D4
:101A900086B20DE0CDF800802A78234639463046DC
:101AA000FFF7AEFD204604EBD07106EB61018EB26C
:101AB0006D1C27E016480088001BB04204DB144868
:101AC0004088001BB84200DAC6E74FF0000A202C1D
:101AD00006D143462A4639463046FFF7C1F90EE0A3
:101AE000182C06D143462A4639463046FFF732F9CC
:101AF00005E043462A4639463046FFF7ADF8AD1CAF
:101B0000301986B22878002896D100BFA4E70000DB
:101B10002C01002030B504460025FFF7F3FE1F48D6
:101B2000006840F480301D49086000BF1B48006811
:101B3000400C0028FAD04FF4806018494860A01E7D
:101B4000C4B20846406840EA84404860084640689D
:101B500040F4803048601248006840F0320010497C
:101B600008600E48006840F080700C49086000BFB3
:101B70000A480068400E0028FAD00848406840F043
:101B800002000649486005E004484068C0F3870544
:101B900005F00305022DF7D130BD00000010024012
:101BA000002002404FF08040008A00F0010068B140
:101BB0004FF08040008A20F001004FF08041088201
:101BC0000348006800F58030014908607047000054
:101BD000500000202DE9FC5F04460D4617461E46C6
:101BE000DDE90EABDDE90C894FF4784057490880F8
:101BF00057A01021CDE90010564843880288A02143
:101C00002820FFF7DBFD54A01021CDE9001051483A
:101C100043880288A0217820FFF7D0FD4FA0102133
:101C2000CDE900104B4843880288B4212820FFF7F3
:101C3000C5FD4BA01021CDE900104648438802881D
:101C4000B4217820FFF7BAFD46A01021CDE900109D
:101C5000404843880288C8212820FFF7AFFD42A0F2
:101C60001021CDE900103B4843880288C821782024
:101C7000FFF7A4FD3DA01021CDE9001035484388B1
:101C80000288DC212820FFF799FD39A01021CDE939
:101C90000010304843880288DC217820FFF78EFD51
:101CA00034A01021CDE900102A4843880288F02191
:101CB0002820FFF783FD102004232246A021009056
:101CC0004020FFF731FD102004232A46A021009078
:101CD0009020FFF729FD102004233A46B4210090FC
:101CE0004020FFF721FD102004233246B42100904C
:101CF0009020FFF719FD102004234246C8210090D0
:101D00004020FFF711FD102004234A46C82100900F
:101D10009020FFF709FD102004235246DC2100909B
:101D20004020FFF701FD102004235A46DC210090DB
:101D30009020FFF7F9FC102003230090F021602091
:101D4000109AFFF7F1FCBDE8FC9F00000A0000209C
:101D500078313A002C01002079313A0078323A008B
:101D600079323A0078333A0079333A0078343A00DD
:101D700079343A006661632069733A0000B597B020
:101D8000002012900B9012901F20FE4908804FF601
:101D9000FF70FD490880FFF7FDF84FF47840F949DE
:101DA00008804FF6FF70FFF7F5F80020F54908802E
:101DB000F648006810216423A022CDE900102821F4
:101DC0000846FFF7FBFC4FF478421421084600F068
:101DD00001FC0020EE4981F820004862CDE3EC4888
:101DE00040680A9001200A998847E94890F8200045
:101DF00000F0C00040286FD100200B90E44890F81C
:101E0000200020F04000E24981F820000846818946
:101E100013AA129822F82010DD48C18A129802EB0A
:101E2000800041801298401CC0B212901298012884
:101E300006D0022815D0032829D0042810D141E06B
:101E40004FF6FF721421084600F0C4FBD148008809
:101E5000143880B24FF4784214210A9000F0BAFB93
:101E60007DE3CC480088143880B24FF6FF7214210D
:101E70000A9000F0AFFBC7484088143880B24FF496
:101E8000784201460A90142000F0A4FB67E3C148A1
:101E90004088143880B24FF6FF7201460A90142031
:101EA00000F098FBBB484088143880B20A90B948CB
:101EB0000088143880B24FF4784209900A9900F0F3
:101EC00089FB4CE3BDF84C00BDF85010401A0A9055
:101ED000002802DB0A9802E042E30A9840420F9091
:101EE000BDF84E1013A8C088081A0A90002801DB1C
:101EF0000A9801E00A9840420E900F9840430F90D4
:101F00000E9840430E90DDE90E100844059005F050
:101F10008AFACDE9060105F035F9CDE9080105F0A9
:101F200055FA80B21190BDF85400BDF85810401A0F
:101F30000A90002801DB0A9801E00A9840420F90BD
:101F400013A84189C089081A0A90002801DB0A9861
:101F500001E00A9840420E900F9840430F900E986F
:101F600040430E90DDE90E100844059005F05BFA41
:101F7000CDE9060105F006F9CDE9080105F026FADC
:101F800080B21090109805F05BFE0990119805F052
:101F900057FE0890099905F03DFD0A9005F0ACFC4C
:101FA000CDE90C014FF066327B4BDDE90C0105F009
:101FB0004DFA0AD3794A7A4BDDE90C0105F080FB32
:101FC00003D3119808B11098F0BB0020129071480B
:101FD0004088143880B20A906E480088143880B265
:101FE0004FF6FF7209900A9900F0F4FA4FF4784224
:101FF0001421084600F0EEFA00226A4BDDE90C01DC
:1020000005F060FACDE9080105F0E0F980B213A906
:102010000A90C989BDF8582013AB5B89CDE901321C
:10202000CDE90310BDF85400009013A8C0880990B2
:10203000BDF850000890BDF84E000790BDF84C0068
:10204000069007A90EC900E002E0FFF7C3FD94E285
:10205000BDF84C00BDF85410401A0A90002801DB6E
:102060000A9801E00A9840420F90BDF84E1013A85C
:102070004089081A0A90002801DB0A9801E00A98B2
:1020800040420E900F9840430F900E9840430E90A0
:10209000DDE90E100844059005F0C5F9CDE906010B
:1020A00005F070F8CDE9080105F090F980B21190C3
:1020B000BDF85000BDF85810401A0A90002801DB06
:1020C0000A9801E00A9840420F9013A8C188C0897D
:1020D000081A0A90002801DB0A9801E00A98404299
:1020E0000E900F9840430F900E9840430E90DDE9FC
:1020F0000E100844059005F096F9CDE9060105F0AB
:1021000041F8CDE9080105F061F980B2109010980E
:1021100005F096FD0990119805F092FD0890099937
:1021200005F078FC0A9005F0E7FBCDE90C014FF0D3
:102130006632194BDDE90C0105F088F906D3174A20
:10214000174BDDE90C0105F0BBFA53D200201290C9
:1021500010484088143880B20A900E48008814381D
:1021600080B24FF6FF7209900A9900F033FA4FF4EB
:1021700078421421084600F02DFA0022094BDDE9CF
:102180000C0111E00A0000200C000020C0B3000880
:10219000100000202C0100206666EE3FCDCCCCCC98
:1021A000CCCCF03F0000594005F08CF9CDE9080196
:1021B00005F00CF980B213A90A90C989BDF858201E
:1021C00013AB5B89CDE90132CDE90310BDF85400B2
:1021D000009013A8C0880990BDF850000890BDF881
:1021E0004E000790BDF84C00069007A90EC9FFF7F6
:1021F000F1FCC2E1BDF85000BDF85410401A0A903D
:10220000002801DB0A9801E00A9840420F9013A8C9
:10221000C1884089081A0A90002801DB0A9801E069
:102220000A9840420E900F9840430F900E984043FA
:102230000E90DDE90E100844059005F0F4F8CDE9A4
:10224000060104F09FFFCDE9080105F0BFF880B258
:102250001190BDF84C00BDF85810401A0A900028A3
:1022600001DB0A9801E00A9840420F90BDF84E1039
:1022700013A8C089081A0A90002801DB0A9801E017
:102280000A9840420E900F9840430F900E9840439A
:102290000E90DDE90E100844059005F0C4F8CDE974
:1022A000060104F06FFFCDE9080105F08FF880B258
:1022B0001090109805F0C4FC0990119805F0C0FC2E
:1022C0000890099905F0A6FB0A9005F015FBCDE9E9
:1022D0000C014FF06632AB4BDDE90C0105F0B6F8AE
:1022E00006D3A94AA94BDDE90C0105F0E9F940D272
:1022F00000201290A6484088143880B20A90A44862
:102300000088143880B24FF6FF7209900A9900F0E5
:1023100061F94FF478421421084600F05BF900227D
:102320009C4BDDE90C0105F0CDF8CDE9080105F085
:102330004DF880B213A90A90C989BDF8582013AB93
:102340005B89CDE90132CDE90310BDF8540000905E
:1023500013A8C0880990BDF850000890BDF84E0041
:102360000790BDF84C00069007A90EC9FFF732FC94
:1023700003E1BDF85000BDF84C10401A089005F07C
:1023800047FC0A90824800882838089005F040FCF5
:1023900009900A9905F03EFB7F494862BDF850005C
:1023A000BDF84C100844059005F032FC06907A48C0
:1023B000406A01460590069805F056FC089074485E
:1023C0000088069005F03CFC0790089905F018FD80
:1023D0004FF08041099005F01DFB0A9005F0DCFBF1
:1023E00000B26D49888513A84089BDF84E10401A87
:1023F000089005F00DFC0A90654840882838089040
:1024000005F006FC09900A9905F004FB6249886210
:1024100013A84089BDF84E100844059005F0F8FB5C
:1024200006905D48806A01460590069805F01CFC00
:10243000089057484088069005F002FC07900899DC
:1024400005F0DEFC4FF08041099005F0E3FA0A90B8
:1024500005F0A2FB00B25049C8850846406A0890C2
:1024600005F09AFB0990002801DB099801E0099822
:10247000404202280DDC4848806A089005F08CFB39
:102480000A90002801DB0A9801E00A9840420228DD
:1024900042DD002012903E484088143880B20A90F5
:1024A0003B480088143880B24FF6FF7209900A99B1
:1024B00000F090F84FF478421421084600F08AF8B2
:1024C00036A01021CDE90010314840880A903048EC
:1024D0000088099002461A2128200A9BFFF76EF90E
:1024E0002D4890F8300008B9012000E000202A496A
:1024F00081F83000084690F8300030B190202C4927
:102500000870D0202B49087005E0D02028490870B9
:1025100090202849087030E01F20274908804FF696
:10252000FF70FEF737FD25A01021CDE900101848F7
:1025300040880A9016480088099002466E212320A0
:102540000A9BFFF73BF94FF47A7001F0BFF900F0F6
:102550004DFA4FF6FF70FEF71DFD17B000BD00BF2E
:102560000A2001F0B3F90B98401C80B20B900B9835
:10257000B0F57A7F00DD01E000BF30E400BF00BFAE
:10258000EBE700006666EE3FCDCCCCCCCCCCF03F88
:102590002C01002000005940100000205450204E13
:1025A00065656420726561646A757374210000005A
:1025B00044000020450000200A000020546F75638D
:1025C000682053637265656E2041646A7573742078
:1025D0004F4B210070B504460D461646184806803C
:1025E00004F10D018AB2193988B22B462946FEF74B
:1025F0005DFD05F10D0083B2193881B222462046F7
:10260000FEF754FD6A1C91B2621C90B2FEF7A6FD63
:102610006A1C91B2621E90B2FEF7A0FD6A1E91B2D2
:10262000621C90B2FEF79AFD6A1E91B2621E90B2D1
:10263000FEF794FD062229462046FEF79FFD70BD59
:102640000A0000200348C06840F034000149C86017
:10265000704700000020024010B5044600F054F816
:10266000FFF7F0FF0B48006940F0020009490861DC
:1026700008464461006940F04000086100F044F8F9
:102680000448006920F0020002490861FFF7DAFF00
:1026900010BD0000002002400348006940F08000A7
:1026A00001490861704700000020024070B50446EF
:1026B0000D4600F029F8FFF7C5FF0948006940F012
:1026C000010007490861258000F01EF804480069F0
:1026D00020F0010002490861FFF7B4FF70BD00005F
:1026E000002002400548006900F0800020B1044845
:1026F00002494860034848607047000000200240DB
:1027000023016745AB89EFCD00BF0348C06800F0E7
:1027100001000028F9D170470020024010B52C4874
:1027200090F8300008B1012000E00020012806D117
:10273000FEF784F9274826494860002010BD264846
:10274000806940F00800244988610846806940F0AB
:102750000100886121480068C0F30B00204908434C
:102760001E4908601D480830006840F478401B4945
:102770000831086016491631A1F10A0000F0BEF8D0
:102780001848134948621848886240F25D108885ED
:1027900040F20110C885084690F8300000F0800033
:1027A000401C81F83000084690F8300000F001002D
:1027B00030B190200D490870D0200D49087005E017
:1027C000D0200A4908709020094908700020B5E718
:1027D00010000020C10A000800100240040C014053
:1027E000003033882F08BBBD1A6286BD440000202C
:1027F0004500002070B506460025002400201F4932
:1028000008601F49C1F8B4011C49091D0860304621
:1028100000F0E8F9062001F077F800201849C1F827
:10282000AC01012001F070F801201449086001F0AA
:102830006BF800201249C1F8AC0100BF15E04FF65B
:10284000FF7000EA440400200C490860012001F0F8
:102850005BF801200A49C1F8AC01084874380068E7
:1028600008B1601C84B2681CC5B2102DE7DB2411CE
:1028700001200249091D0860204670BDAC8121423B
:10288000008021422DE9FE4380460027002406E017
:102890004046FFF7AFFF2DF81400601C84B2052CF2
:1028A000F6DB002416E0601C85B20FE03DF8140052
:1028B0003DF81510884207DD3DF814603DF815001D
:1028C0002DF814002DF81560681C85B2052DEDDB80
:1028D000601C84B2042CE6DB0027012405E03DF8EF
:1028E0001400384487B2601C84B2042CF7DB032048
:1028F00097FBF0F086B23046BDE8FE832DE9F0414B
:1029000004460D4607480078FFF7BCFF0646064818
:102910000078FFF7B7FF074626802F800120BDE82B
:10292000F081000044000020450000207FB50446EF
:102930000D4602A903A8FFF7E1FF064616B90020DD
:1029400004B070BD694601A8FFF7D8FF06460EB96E
:102950000020F5E7BDF80400BDF80C10884206DC45
:10296000BDF80C10BDF80400323081420CDBBDF81C
:102970000C00BDF80410884236DCBDF80410BDF828
:102980000C00323081422FDABDF80000BDF808108B
:10299000884206DCBDF80810BDF8000032308142E4
:1029A0000CDBBDF80800BDF8001088421CDCBDF847
:1029B0000010BDF808003230814215DABDF80C1065
:1029C000BDF80420881800EBD071C1F34F012180BD
:1029D000BDF80810BDF80020881800EBD071C1F3D5
:1029E0004F0129800120ABE70020A9E72DE9FF4135
:1029F0000020009001900290039043208DF8000089
:102A000054208DF801003049486A304905F02CF90E
:102A1000074605F0C1F80446E0B28DF80200200A2E
:102A20008DF80300200C8DF80400200E8DF80500B1
:102A30002549886A254905F017F9074605F0ACF8DD
:102A40000446E0B28DF80600200A8DF80700200C3D
:102A50008DF80800200E8DF809001B4890F82C0016
:102A60008DF80A001848808D000A8DF80B00164872
:102A700090F82E008DF80C001348C08D000A8DF8D8
:102A80000D00114890F830008DF80E00A5208DF84B
:102A90000F00FFF727FE0E48FFF7DEFD00250DE0D3
:102AA0001DF80510681C1DF8000041EA00260849C1
:102AB00068183146FFF7FAFDA81CC5B2102DEFDBF0
:102AC000FFF7EAFDBDE8FF811000002020BCBE4CEE
:102AD00000FC00082DE9F041044640480068002849
:102AE00056D12CB13E49A1F10A00FFF71FFF3DE08E
:102AF0003B49A1F10A00FFF719FFB8B3384916396D
:102B0000B1F92C0005F084F8074635491639888953
:102B100005F096F8804632481638416A404605F07E
:102B2000A3F80646394604F013FF054605F050F8B1
:102B30002B4916398881B1F92E0005F069F807464E
:102B400027491639C88A05F07BF88046244816388C
:102B5000816A404605F088F80646394604F0F8FEDA
:102B6000054605F035F81E491639C8821C48163846
:102B700090F8200000F0800038BBC02018491639BA
:102B800081F82000084681898182C18AC1831CE0C6
:102B90001348163890F8200000F0800050B110481B
:102BA000163890F8200020F080000D49163981F881
:102BB00020000AE000210A4816388182C1834FF6BE
:102BC000FF70074916398881C8820548163890F881
:102BD000200000F08000BDE8F08100003C8121422F
:102BE0002600002070B50446002500BF18E004F060
:102BF000800018B101200C49086002E000200A4959
:102C000008606006040E00200749083908600120AA
:102C100000F07AFE01200549C1F8AC01681CC5B27C
:102C2000082DE4DB70BD0000B48121420080214208
:102C300038B502F045FE4EF67B70EF2340F23F12AE
:102C4000242100900020FEF7F5FA002406E04FF65C
:102C5000FF71204602F02AFB601CC4B2042CF6DB94
:102C6000002406E04FF6FF71204601F06FFF601C64
:102C7000C4B2052CF6DB38BD2DE9F0412748416888
:102C800000208847254890F8200000F0800028B9EF
:102C9000012023490870FF20BDE8F081204800781A
:102CA00008B9FF20F8E700201D4908701B488689F5
:102CB000C78A142000F00AFE3946304603F0FAFEB7
:102CC0000546FF2D09D042F64F21284602F0EEFAC4
:102CD000782000F0FBFD2846DEE73946304603F059
:102CE00093FD0446FF2C17D0042C05D14FF453411B
:102CF000204601F02BFF04E042F64F21204601F070
:102D000025FF782000F0E2FD4FF6FF71204601F02C
:102D10001DFF44F01000BFE7FF20BDE710000020BA
:102D20004600002010B504461848002101604160AB
:102D30000181817204700120144948714872002099
:102D400088720120087203200871012C05D1082027
:102D5000087101208871C87114E0032C07D1062086
:102D60000A490871012088710320C8710AE0042C07
:102D700008D1022005490871012088710420C8711A
:102D80000020087201F0BCFA10BD0000D80200203B
:102D90002DE9F04141484168002088473F4890F8BC
:102DA000200000F0800028B901203D490870FF2074
:102DB000BDE8F0813A48007808B9FF20F8E7002024
:102DC0003749087035488689C78A142000F07EFD8F
:102DD0003448807960B13946304603F0E5FE054657
:102DE000FF2D05D02F48057202F0BAFCFF20DFE767
:102DF0003946304603F0A0FD0446FF2C00D1D7E74A
:102E0000042C05D14FF45341204600F0D3FF04E0D9
:102E100042F64F21204600F0CDFF782000F056FD0D
:102E20004FF6FF71204600F0C5FF012C01D11020A4
:102E3000BEE734B91B48807908B904F029F9FF20AE
:102E4000B6E7022C0BD11748807930B9012015491B
:102E500048700020887002F0AFFEFF20A8E7032C26
:102E600006D11048807908B904F0C6F9FF209FE721
:102E7000042C10D10B48807910B100F083FC08E0DD
:102E80000020084948700120887002F095FE03F088
:102E900032F8FF208CE7FF208AE7000010000020B6
:102EA00058000020D802002038B502F029FE4EF666
:102EB0007B70C72340F23F12242100900020FEF7D0
:102EC000B9F94EF67B70EF2340F23F12C821009013
:102ED0000020FEF7AFF9002404E0204602F08AFA51
:102EE000601CC4B2052CF8DB002406E04FF6FF712D
:102EF000204601F037FF601CC4B2052CF6DB38BD5C
:102F00000148007870470000550000202DE9F0418D
:102F10003348416800208847314890F8200000F08D
:102F2000800028B901202F490870FF20BDE8F081FA
:102F30002C48007808B9FF20F8E7002029490870DC
:102F400027488689C78A142000F0C0FC39463046DD
:102F500003F0E8FD0546FF2D11D023480078854297
:102F60000BD0214890F800800570404602F042FAEC
:102F70001D48007802F03EFA00BF2846D6E73946E1
:102F8000304603F0B3FC0446FF2C27D0042C05D1B7
:102F90004FF45341204601F0E5FE04E042F64F2194
:102FA000204601F0DFFE782000F090FC4FF6FF7124
:102FB000204601F0D7FE0CB91220B7E7012C01D151
:102FC0001020B3E7022C01D11320AFE7032C01D16D
:102FD0001120ABE7042C01D12020A7E7FF20A5E7B3
:102FE00010000020570000205500002010B50446B6
:102FF0000CB1012000E000200249087002F080FDC1
:1030000010BD00005600002010B5002003490870D4
:10301000487000F0D6FC04F0DBF810BD5F00002023
:1030200070B52848416800208847264890F820005D
:1030300000F0800020B9012023490870FF2070BDF6
:103040002148007808B9FF20F9E700201E490870E0
:103050001C488589C68A142000F038FC3146284671
:1030600003F002FD0446FF2C00D1E8E7042C05D153
:103070004FF45341204602F093F804E042F64F210A
:10308000204602F08DF8782000F020FC4FF6FF710A
:10309000204602F085F80CB1042C02D104F098F817
:1030A0000EE0012C01D11020C9E7022C08D100202C
:1030B000064908700320487002F0BEFE00F0A2FF2F
:1030C000FF20BCE710000020610000205F0000200E
:1030D00038B502F067FE4EF67B70C72340F23F1210
:1030E000242100900020FEF7A5F84EF67B70EF2318
:1030F00040F23F12C82100900020FEF79BF801F03B
:10310000F9FC01F0B7FB002406E04FF6FF71204602
:1031100001F0BEFF601CC4B2052CF6DB38BD000018
:1031200070B52B48416800208847294890F8200056
:1031300000F0800020B9012026490870FF2070BDF2
:103140002448007808B9FF20F9E7002021490870D9
:103150001F488689C58A142000F0B8FBB6F5A07F09
:1031600005DA282D03DB422D01DA0020E7E72946A6
:10317000304603F053FC0446FF2C27D0042C05D125
:103180004FF45341204601F083FF04E042F64F2103
:10319000204601F07DFF782000F098FB4FF6FF718C
:1031A000204601F075FF0CB91220C8E7012C01D1AF
:1031B0001020C4E7022C01D11320C0E7032C01D159
:1031C0001120BCE7042C01D12020B8E7FF20B6E78E
:1031D000100000205E00002010B501200349087097
:1031E0000020487000F0D2FB10BD00005B00002002
:1031F00070B52E484168002088472C4890F8200080
:1032000000F0800020B9012029490870FF2070BD1E
:103210002748007808B9FF20F9E700202449087002
:1032200022488589C68A142000F050FB3146284682
:1032300003F0CEFB0446FF2C00D1E8E7042C05D1B7
:103240004FF45341204601F09DFE04E042F64F2129
:10325000204601F097FE782000F038FB4FF6FF7112
:10326000204601F08FFE14B903F06CFF1BE0012C27
:1032700001D11020CBE7022C07D100200D49487066
:1032800002F040FD00F04AFE0DE0032C02D103F0F5
:1032900067FF08E0042C06D101200649487002F0BF
:1032A00031FD00F03BFEFF20B1E7000010000020E0
:1032B0005D0000205B00002038B502F0C9FC4EF62E
:1032C0007B70C72340F23F12242100900020FDF7BD
:1032D000B1FF4EF67B70EF2340F23F12C821009001
:1032E0000020FDF7A7FF01F0D9FB002406E04FF610
:1032F000FF71204601F0BEFD601CC4B2052CF6DB58
:1033000038BD000070B52B48416800208847294827
:1033100090F8200000F0800020B9012026490870B4
:10332000FF2070BD2448007808B9FF20F9E700208D
:10333000214908701F488689C58A142000F0C6FA02
:10334000B6F5A07F05DA282D03DB422D01DA002037
:10335000E7E72946304603F015FB0446FF2C27D04B
:10336000042C05D14FF45341204601F083FD04E0C5
:1033700042F64F21204601F07DFD782000F0A6FAAC
:103380004FF6FF71204601F075FD0CB91220C8E719
:10339000012C01D11020C4E7022C01D11320C0E779
:1033A000032C01D11120BCE7042C01D12020B8E767
:1033B000FF20B6E7100000205A00002010B5044698
:1033C0000CB1012000E000200249087002F040FC2E
:1033D00010BD00005900002010B504464FF48E7156
:1033E0000F48FDF79AF80E48047001200C498872C6
:1033F00048718871FF20C871012C01D1012000E0C3
:1034000000200749087103F009FF02F0E5FD03F011
:1034100067FF012003F050FF00F062FF10BD0000C5
:103420003C0100202DE9FC4111E05448007818B916
:10343000684603F05BFD0AE050480078012803D19C
:10344000684603F093FD02E0684603F031FD6846EC
:1034500002F068FD0028E8D148488078B0B14748BC
:10346000C07898B94548007980B944480078022866
:103470000CD003F0FDFE054640480069281A40497B
:10348000884203D33D48056102F01CFD3D48416878
:10349000002088473B4890F8200000F0800028B9C1
:1034A000012039490870FF20BDE8FC8136480078CA
:1034B00008B9FF20F8E700203349087031488789B0
:1034C000B0F81680142000F001FA2C48007960B1A1
:1034D0004146384603F042FB0646FF2E05D02748FA
:1034E000467102F0D9F8FF20DEE74146384603F086
:1034F000D7F90446FF2C00D1D6E7042C05D14FF4B0
:103500005341204600F0D0FB04E042F64F21204614
:1035100000F0CAFB782000F0D9F94FF6FF71204681
:1035200000F0C2FB012C06D1002003F0C5FE02F022
:1035300053FD1020B8E734B91048007908B903F0FA
:1035400003F9FF20B0E7022C07D10C48007910B92D
:10355000012003F0E3FDFF20A6E7032C06D1074876
:10356000007908B903F026F9FF209DE7042C03D168
:1035700003F002F9FF2097E7FF2095E73C010020C8
:10358000E0930400100000205400002038B502F041
:10359000E3F94EF67B70C72340F23F1224210090DE
:1035A0000020FDF747FE4EF67B70EF2340F23F12FE
:1035B000C82100900020FDF73DFE002404E02046D5
:1035C00001F0D4FE601CC4B2032CF8DB002406E03A
:1035D0004FF6FF71204601F03FFB601CC4B2052C82
:1035E000F6DB38BD01480078704700004700002036
:1035F0002DE9F0413348416800208847314890F870
:10360000200000F0800028B901202F490870FF2019
:10361000BDE8F0812C48007808B9FF20F8E70020C9
:103620002949087027488689C78A142000F04EF976
:103630003946304603F05BFA0546FF2D11D023488A
:10364000007885420BD0214890F8008005704046F4
:1036500001F08CFE1D48007801F088FE00BF28466E
:10366000D6E73946304603F0F5F80446FF2C27D05C
:10367000042C05D14FF45341204601F0EDFA04E04B
:1036800042F64F21204601F0E7FA782000F01EF9BB
:103690004FF6FF71204601F0DFFA0CB91220B7E7B0
:1036A000012C01D11020B3E7022C01D11320AFE788
:1036B000032C01D11120ABE7042C01D12020A7E776
:1036C000FF20A5E71000002049000020470000204F
:1036D00010B504460CB1012000E00020024908703A
:1036E00002F03AF910BD0000480000201D49098889
:1036F00001F0200111B31B49091D0988C8B21A49FC
:10370000098801F40041C9B91749098801F48041C9
:1037100061B10A2803D00021134A118020E0124928
:10372000098841F40041104A118019E00D2806D1A2
:103730000D49098841F480410B4A118010E00A4983
:103740000988C1F30D01094A505407490988491CE9
:10375000054A118011460988C72901DD0021118021
:10376000704700000038014008000020640000207D
:1037700030380A2801D201207047002070470146E6
:1037800000BF704710B50C48807900B910BD0A48D9
:10379000C079042804D10848007A0749887203E0F8
:1037A0000548007A0449487200200349887100F0F6
:1037B000A7FD00BFEAE70000D802002007484078D4
:1037C00010B10748806870470448807810B10448F9
:1037D0004068F8E702480068F5E700003C01002077
:1037E000ACB400082348007850B92248C0780321BF
:1037F00090FBF1F201FB12001F4951F820007047C5
:103800001C48007801280BD11A48C178C81701EB71
:103810005070C010A1EBC000184A52F82000EEE72B
:103820001448007802280AD11248C078032290FB7D
:10383000F2F302FB1300124A52F82000DFE70D48B2
:10384000007803280AD10B48C078062290FBF2F3D7
:1038500002FB13000B4A52F82000D0E70548C2785B
:1038600002EBD2704010A2EB4000074B53F820004F
:10387000C5E70000D802002090B500089CB50008FC
:10388000BCB50008C8B50008E0B500084FF0E0215D
:10389000096921F004014FF0E0221161C21700EB29
:1038A0005272C2F3C702074B1A701946097801EB2E
:1038B0004102C2EBC1114FF6FF7202EAC101024A96
:1038C00011807047000000200200002001460D4AD0
:1038D00012884A434FF0E0235A6100229A61012284
:1038E0001A6100BF4FF0E022106900F001021AB126
:1038F00000F48032002AF5D000224FF0E0231A6154
:103900009A6170470200002001460D4A12784A432E
:103910004FF0E0235A6100229A6101221A6100BF30
:103920004FF0E022106900F001021AB100F4803279
:10393000002AF5D000224FF0E0231A619A61704707
:103940000000002010B51048C07840B10E48007A41
:1039500028B10D48417A183050F8210010BD0A48AE
:103960000078022803D10848D0F81801F6E7064885
:10397000807828B103F07CFC0349C968401AEDE760
:1039800001484069EAE700003C01002038B502F038
:10399000B9F900F0C3FA4EF67B70EF2340F23F1204
:1039A000C82100900020FDF745FC002406E04FF6FA
:1039B000FF71204601F0E6FA601CC4B2052CF6DB6C
:1039C00038BD38B502F038FA00F01CFB4EF67B70BB
:1039D000EF2340F23F12C82100900020FDF72AFC9F
:1039E000002406E04FF6FF71204601F0D9FB601C71
:1039F000C4B2052CF6DB38BD2DE9FC4707460C4662
:103A000015469846182C01D10C2000E0082082466B
:103A10002846FCF763FD00FB0AF086B2C6F5A070ED
:103A200000EBD071C1F34F094FF6FF7008490880D1
:103A30000848A0F80080E0B2CDE90005B01C82B2D1
:103A4000234639464846FDF7B9FEBDE8FC8700002D
:103A50000C0000200A0000202DE9FC4707460C4618
:103A600015469846182C01D10C2000E0082082460B
:103A70002846FCF733FD00FB0AF086B2C6F5A070BD
:103A800000EBD071C1F34F094FF6FF700849088071
:103A90000848A0F80080E0B2CDE90005B01C82B271
:103AA000234639464846FDF789FEBDE8FC870000FD
:103AB0000C0000200A00002000B58BB04FF6FF700C
:103AC000C72340F23F12242100900020FDF7B2FBF3
:103AD0004FF6FF703F4908803F480078F8B93E48EC
:103AE000C079FF2804D13DA101A8FCF7D3FC07E071
:103AF0003948C079431C3CA2102101A8FCF788FB7F
:103B000042F649123A4801683A2000F04BFC42F66E
:103B1000491301AA10214E20FFF76EFF21E02E4825
:103B20000078012812D142F64912324801683A2041
:103B300000F038FC284880792F4951F8202042F6BF
:103B4000491310214E20FFF757FF0AE02248007862
:103B5000022806D142F64912284801683A2000F0AE
:103B600021FC02F0AFF91C480078022807D142F688
:103B70004912234801689C2000F014FC28E01648F4
:103B8000C078B0B11448007A98B11348007A009018
:103B90001148407A431C1BA2182105A8FCF738FBEA
:103BA00042F6491305AA1A4801689C2000F0B8FBA8
:103BB0000EE00948837A17A2182105A8FCF728FB14
:103BC00042F6491305AA124801689C2000F0A8FBA0
:103BD0000BB000BD0C0000203C010020474D3120FF
:103BE0002F20474D32000000474D25750000000092
:103BF00098B400089CB40008B8B40008A0B4000849
:103C0000A4B40008253032752F253032750000002D
:103C1000A8B40008253032750000000008B54FF642
:103C2000FF70C72340F23F12242100900020FDF7CF
:103C300001FB19480078194A52F8201042F649123F
:103C40003A2000F0DBFB1448007804280BD112481E
:103C5000807A134951F8202042F6491310214E2052
:103C6000FFF7FAFE12E00C480078012803D00A485A
:103C7000007803280AD10848407A0A4951F82020E0
:103C800042F6491310214E20FFF7E6FE02F033F909
:103C900000F0DCFA08BD0000D802002058B500088A
:103CA00088B5000878B500082DE9FC5F04460D468C
:103CB0003B4830F814603B4830F81470042C01D1B4
:103CC000182000E020208046042C08D1B5F5534F81
:103CD00002D14FF4534003E04FF6202000E0284685
:103CE000814642F64F20854202D0B5F5534F01D1AF
:103CF000012000E000208246042C09D10D20202361
:103D00003A46CC21CDE90009304602F019FA08E024
:103D10000D2020233A46CC21CDE90009304601F0A0
:103D2000E9FB2148A0F80090BAF1000F01D1042C62
:103D300004D14FF6FF701D49088009E024B94EF206
:103D400007001A49088003E041F6E300174908809C
:103D5000042C12D1164850F824001821A7EB080BA8
:103D6000CDE900100BEBDB7106EB610188B2182383
:103D70004246D021FDF722FD0FE00020A7EB080B03
:103D80000BEBDB7106EB6101009088B2084951F83A
:103D900024201023D421FDF743FEBDE8FC9F000042
:103DA00054B400085EB400080C0000200A00002093
:103DB00078B400082DE9FC5F04460D463B4830F816
:103DC00014603B4830F81470042C01D1182000E036
:103DD00020208046042C08D1B5F5534F02D14FF472
:103DE000534003E04FF6202000E02846814642F68B
:103DF0004F20854202D0B5F5534F01D1012000E09C
:103E000000208246042C09D10D2020233A46CC21E3
:103E1000CDE90009304602F037FA08E00D202023F2
:103E20003A46CC21CDE90009304601F09FFB2148FC
:103E3000A0F80090BAF1000F01D1042C04D14FF684
:103E4000FF701D49088009E024B94EF207001A49A5
:103E5000088003E041F6E30017490880042C12D1E2
:103E6000164850F824001821A7EB080BCDE90010E4
:103E70000BEBDB7106EB610188B218234246D021BF
:103E8000FDF79CFC0FE00020A7EB080B0BEBDB71B0
:103E900006EB6101009088B2084951F824201023F4
:103EA000D421FDF7BDFDBDE8FC9F000004B500086E
:103EB0000EB500080C0000200A00002028B50008FC
:103EC00038B54EF67B70EF2340F23F12C8210090C8
:103ED0000020FDF7AFF9002406E04FF6FF71204601
:103EE000FFF7E2FE601CC4B2052CF6DB38BD38B526
:103EF0004EF67B70EF2340F23F12C8210090002065
:103F0000FDF798F9002406E04FF6FF712046FFF711
:103F100051FF601CC4B2052CF6DB38BD1CB54FF652
:103F2000FF70C72340F23F12242100900020FDF7CC
:103F300081F942F64910244908804FF6FF70234961
:103F400008800020102322A23A2100907020FDF763
:103F500067FD41F6E3001C490880214800782149AB
:103F600051F8200018210B467822CDE9001060217D
:103F70006E20FDF723FC42F649101349088000200B
:103F8000102319A2922100905C20FDF749FD00202A
:103F900010233A22922100909C20FDF731FB10481B
:103FA000407840B10020102312A292210090A82056
:103FB000FDF736FD07E00020102310A292210090AB
:103FC000A820FDF72DFD1CBD0A0000200C000020DC
:103FD000B5B1C7B0CAB1B1EAD6DCC6DA000000009C
:103FE0005B00002024B60008CAE4B3F6D7B4CCAC1A
:103FF00000000000BFAAC6F400000000B9D8B1D587
:10400000000000001CB54FF6FF70C72340F23F12BE
:10401000242100900020FDF70DF942F649103B499C
:1040200008804FF6FF703A4908800020102339A21B
:104030003A2100904420FDF7F3FC38A010210B46F4
:104040000A46CDE900103A217420FDF7B7FB0020A5
:10405000102333A23A2100908620FDF7E1FC33487B
:10406000407810B941F6E30001E04EF2070027491D
:1040700008802E48407801280AD12DA018210B462F
:104080007822CDE9001064216A20FDF797FB27E034
:104090002648407802280AD128A018210B46782209
:1040A000CDE9001064216A20FDF788FB18E01F4865
:1040B000407803280AD124A018210B463022CDE9EC
:1040C000001064219020FDF779FB09E01FA0182162
:1040D0000B463022CDE9001064219220FDF76EFBE3
:1040E00012484078012803D01048407802280BD1AC
:1040F0004EF20700054908800020102314A29221E7
:1041000000905820FDF78CFC1CBD00000A00002028
:104110000C000020B9E2B5E7C3C50000260000008E
:10412000D5FBBBFAD7D4BCEC000000005F00002038
:10413000474D31204552524F52000000474D32202A
:104140004552524F520000002D2D00004F4B0000F1
:10415000C7EBBCECB2E9B4ABB8D0C6F7C1ACBDD3C9
:104160000000000070B505460E46144641F6E30017
:104170000A490880052231462846FCF7FFFF042241
:1041800031462846FCF7FAFF34B141F6E303032237
:104190003146284602F080FA70BD00000A00002077
:1041A00070B505460E46144641F6E3000A490880FC
:1041B000052231462846FCF7E1FF04223146284615
:1041C000FCF7DCFF34B141F6E30303223146284615
:1041D00002F062FA70BD00000A00002070B50446CB
:1041E0000D4641F6E3000A4908800522294620468B
:1041F000FCF7C4FF042229462046FCF7BFFF41F626
:10420000E30303222946204602F046FA70BD00006F
:104210000A00002070B504460D4641F6E3000A4945
:104220000880052229462046FCF7A8FF04222946DB
:104230002046FCF7A3FF41F6E3030322294620466C
:1042400002F02AFA70BD00000A0000207FB5202489
:104250001D4843791DA2082102A8FBF7D9FF02A837
:10426000FCF73CF94FF6FF7101EAC005C4F5A070F8
:10427000401B0E3886B20846AE2340F23F129C2106
:104280000090D220FCF7D6FF4FF6FF70114908804E
:1042900042F64910104908800020102300900F4872
:1042A0009C2102683046FDF7BBFB02A81021CDE936
:1042B0000010A91C8AB23119091D88B210239C2153
:1042C000FDF77CFA7FBD0000D80200202530327552
:1042D000000000000C0000200A00002074B5000857
:1042E00010B501F093FBFFF7E7FBFFF7E9FD03488B
:1042F000007908B101F0D0F910BD00003C010020A8
:1043000010B501F059FCFFF789FCFFF7F0FD0348F9
:10431000807908B101F024FA10BD0000D802002015
:104320002DE9FC5F06460C4615461F462046FCF765
:10433000D5F81FFA80FB0BEBDB7040104FF6FF71D6
:1043400001EA00182846FCF7C9F84FF6FF7101EAA8
:10435000C009C8F5A070A0EB09000E381FFA80FA5A
:1043600008460E4908800E48078000201023224688
:10437000314600905046FDF753FB102009F1020131
:104380008AB20AEB0801091DCDE9000588B21023A5
:104390003146FDF713FABDE8FC9F00000C00002039
:1043A0000A0000202DE9F84305460C461646204633
:1043B000FCF794F81FFA80F909EBD97040104FF61A
:1043C000FF7101EA0017C7F5A07000EBD071C1F3CF
:1043D0004F084FF6FF700749088007480680002005
:1043E00010232246294600904046FDF719FBBDE800
:1043F000F88300000C0000200A0000202DE9F8439B
:1044000005460C4616462046FCF768F81FFA80F968
:1044100009EBD97040104FF6FF7101EA0017C7F59C
:10442000A07000EBD071C1F34F084FF6FF70074941
:104430000880074806800020102322462946009065
:104440004046FDF7EDFABDE8F88300000C000020BF
:104450000A0000202DE9FC4104460D46164605F1F0
:10446000120291B204F1120290B23346102201F00E
:10447000F7F9012005F11207BBB204F11207BAB235
:1044800005F10807B9B204F11207CDE90006B8B288
:1044900001F004FA012005F10C07BBB204F11B077F
:1044A000BAB205F11207B9B204F11307CDE900065B
:1044B000B8B201F0F3F905F1120291B27A1E90B28E
:1044C0003346032202F0E8F80120AF1DBBB204F12D
:1044D0001207BAB22F1DB9B204F11207CDE90006D6
:1044E000B8B201F0DBF9012005F12007BBB204F1FD
:1044F0001207BAB205F11E07B9B204F11207CDE9ED
:104500000006B8B201F0CAF9012005F11207BBB2EA
:10451000A71DBAB205F11207B9B2271DCDE90006F1
:10452000B8B201F0BBF9012005F11207BBB204F1EA
:104530002007BAB205F11207B9B204F11E07CDE99E
:104540000006B8B201F0AAF9BDE8FC812DE9FC41F2
:1045500004460D46164605F1120291B204F112020C
:1045600090B233460E2202F097F805F10907BBB26C
:1045700004F11507BAB2A9B2BF1FB8B20096FCF792
:1045800059FE05F12407BBB204F11507BAB205F1D3
:104590001B07B9B204F10F07B8B20096FCF74AFE48
:1045A00005F11507BBB204F10907BAB205F10F070F
:1045B000B9B2A0B20096FCF73DFEBF1DBBB204F13C
:1045C0002407BAB205F10F07B9B204F11B07B8B25C
:1045D0000096FCF72FFE032005F10C07BBB204F197
:1045E0000C07BAB2AF1DB9B2A71DCDE90006B8B22B
:1045F00001F054F9032005F10C07BBB204F11807D0
:10460000BAB2AF1DB9B204F11E07CDE90006B8B2C7
:1046100001F044F9032005F11807BBB204F10C07BF
:10462000BAB205F11E07B9B2A71DCDE90006B8B2AE
:1046300001F034F9032005F11807BBB204F11807A3
:10464000BAB205F11E07B9B204F11E07CDE90006A2
:10465000B8B201F023F905F1120291B204F112028D
:1046600090B2034A1388072202F016F8BDE8FC81D5
:104670000C0000202DE9FC4104460D4616460220A0
:1046800005F12007BBB204F11807BAB2EF1DB9B2A9
:1046900004F11807CDE90006B8B201F0FFF80220D6
:1046A00005F11F07BBB204F12307BAB205F11F07DA
:1046B000B9B204F10C07CDE90006B8B201F0EEF88A
:1046C000022005F11A07BBB204F10C07BAB205F1DA
:1046D0000807B9B204F11807CDE90006B8B201F035
:1046E000DDF8012005F11907BBB204F11007BAB2D9
:1046F00005F10A07B9B204F11607CDE90006B8B210
:1047000001F0CCF80120EF1DBBB204F12107BAB2D1
:10471000EF1DB9B204F11907CDE90006B8B201F0F6
:10472000BDF805F11A0291B204F10C0290B23346C1
:10473000062201F0B1FFEA1D91B27A1E90B2334613
:10474000052201F0A9FFEA1D91B27A1E90B2034A38
:104750001388022201F0A0FFBDE8FC810C000020BC
:104760002DE9FC4104460D461646012005F11407CB
:10477000BBB2E71DBAB205F11407B9B2CDE9000624
:10478000A0B201F08BF8022005F10C07BBB204F1D6
:104790000B07BAB205F11407B9B2E71DCDE900065F
:1047A000B8B201F07BF8022005F11D07BBB204F19D
:1047B0001007BAB205F10C07B9B204F10B07CDE945
:1047C0000006B8B201F06AF80220AF1DBBB204F1D6
:1047D0001607BAB205F11D07B9B204F11007CDE909
:1047E0000006B8B201F05AF8022005F11D07BBB26D
:1047F00004F11C07BAB2AF1DB9B204F11607CDE936
:104800000006B8B201F04AF8022005F10C07BBB26D
:1048100004F12107BAB205F11D07B9B204F11C0772
:10482000CDE90006B8B201F039F8022005F114070D
:10483000BBB204F12607BAB205F10C07B9B204F114
:104840002107CDE90006B8B201F028F8012005F1F2
:104850001407BBB204F12D07BAB205F11407B9B2BF
:1048600004F12607CDE90006B8B201F017F8BDE85B
:10487000FC8100001CB542F64910504908804EF6F4
:104880007B704F4908804FA010210B465022CDE984
:10489000001048210820FCF791FF002010234CA2B3
:1048A000482100905820FDF7BBF8002010234DA2AE
:1048B0005A2100900820FDF7B3F84DA010210B46B7
:1048C0004022CDE900105A214820FCF777FF002054
:1048D000102349A26C2100900820FDF7A1F848A000
:1048E00010210B464FF48272CDE900106C21282074
:1048F000FCF764FF0020102349A27E2100900820CD
:10490000FDF78EF849A010210B465A22CDE9001080
:104910007E214820FCF752FF0020102346A27E2172
:104920000090A820FDF77CF846A010210B465422E9
:10493000CDE900107E21E820FCF740FF0020102385
:1049400042A2902100900820FDF76AF842A01021B1
:104950000B460A46CDE9001090214820FCF72EFFB7
:10496000002010233DA2902100905420FDF758F81C
:10497000002010233DA2A22100900820FDF750F84E
:104980003DA010210B466E22CDE90010A221482047
:10499000FCF714FF002010233BA2A2210090BC20B2
:1049A000FDF73EF83BA010210B464022CDE9001058
:1049B000A221FC20FCF702FF1CBD00000A00002021
:1049C0000C0000204A303230312D4C434D000000A5
:1049D000B4E6D6FCCABDCAFDD7D6BAC1C3EBBCC6C5
:1049E00000000000B9CCBCFEB0E6B1BE0000000083
:1049F0003A2056312E300000B5E7D4B40000000054
:104A00003A20412E432E2032323056282B2F2D3182
:104A10003025292C3530487A282B2F2D3525290093
:104A2000BBB7BEB3CEC2B6C8000000003A202D31DD
:104A300030437E2B34304300CFE0B6D4CAAAB6C888
:104A4000000000003A203C3D38352500B9A4D7F7D6
:104A5000CAB1B3A4000000003A000000D6A7B3D644
:104A6000C1ACD0F8B9A4D7F700000000CDE2D0CE99
:104A7000B3DFB4E7000000003A203234306D6D78C7
:104A80003238306D6D000000D5FBBBFAD6D8C1BFFF
:104A9000000000003A20312E306B67001CB54DF24B
:104AA000DF7006211A234FF4A072CDE900102821EF
:104AB000002001F03BFC35211220FFF78FFB41F66F
:104AC000E300074908804DF2DF70064908800020A6
:104AD000102305A22D2100902220FCF7A1FF1CBD70
:104AE0000A0000200C000020CAB1B1EACAE4B3F603
:104AF000000000001CB54DF2DF7006211A234FF4B0
:104B0000A072CDE900102821002001F0B3FC35216E
:104B10001220FFF77FFB41F6E300074908804DF2C2
:104B2000DF70064908800020102305A22D21009087
:104B30002220FCF775FF1CBD0A0000200C0000209D
:104B4000C9E8B1B8D7D4BCEC000000002DE9FC5F87
:104B500004460D463B4830F814603B4830F814706A
:104B6000042C01D1182000E020208046042C08D11C
:104B7000B5F5534F02D14FF4534003E04FF62020D8
:104B800000E02846814642F64F20854202D0B5F526
:104B9000534F01D1012000E000208246042C09D1AE
:104BA0000D2020233A46CC21CDE90009304601F002
:104BB00023FA08E00D2020233A46CC21CDE9000954
:104BC000304600F05BFC2148A0F80090BAF1000FDD
:104BD00001D1042C04D14FF6FF701D49088009E073
:104BE00024B94EF207001A49088003E041F6E300B9
:104BF00017490880042C12D1164850F824001821B7
:104C0000A7EB080BCDE900100BEBDB7106EB6101A4
:104C100088B218234246D021FCF7D0FD0FE00020D7
:104C2000A7EB080B0BEBDB7106EB6101009088B280
:104C3000084951F824201023D421FCF7F1FEBDE8E7
:104C4000FC9F0000D4B30008DEB300080C00002075
:104C50000A0000200CB400082DE9FC5F04460D4654
:104C60003B4830F814603B4830F81470042C01D1F4
:104C7000182000E020208046042C08D1B5F5534FC1
:104C800002D14FF4534003E04FF6202000E02846C5
:104C9000814642F64F20854202D0B5F5534F01D1EF
:104CA000012000E000208246042C09D10D202023A1
:104CB0003A46CC21CDE90009304601F0EFF908E091
:104CC0000D2020233A46CC21CDE90009304600F0E2
:104CD000F3FB2148A0F80090BAF1000F01D1042C99
:104CE00004D14FF6FF701D49088009E024B94EF247
:104CF00007001A49088003E041F6E30017490880DD
:104D0000042C12D1164850F824001821A7EB080BE8
:104D1000CDE900100BEBDB7106EB610188B21823C3
:104D20004246D021FCF74AFD0FE00020A7EB080B1C
:104D30000BEBDB7106EB6101009088B2084951F87A
:104D400024201023D421FCF76BFEBDE8FC9F00005B
:104D500020B400082AB400080C0000200A0000203B
:104D600040B400082DE9FC5F04460D463C4830F88D
:104D700014603C4830F81470042C01D1182000E075
:104D800020208046042C08D1B5F5534F02D14FF4B2
:104D9000534003E04FF6202000E02846814642F6CB
:104DA0004F20854202D0B5F5534F01D1012000E0DC
:104DB00000208246042C09D10D2020233A46CC2124
:104DC000CDE90009304601F00DFA08E00D2020235E
:104DD0003A46CC21CDE90009304600F0A9FB224833
:104DE000A0F80090BAF1000F01D1042C04D14FF6C5
:104DF000FF701E4908800BE00CB1022C04D142F672
:104E000049101A49088003E041F6E3001749088079
:104E1000042C12D1164850F824001821A7EB080BD7
:104E2000CDE900100BEBDB7106EB610188B21823B2
:104E30004246D021FCF7C2FC0FE00020A7EB080B94
:104E40000BEBDB7106EB6101009088B2084951F869
:104E500024201023D421FCF7E3FDBDE8FC9F0000D3
:104E6000C8B40008D2B400080C0000200A000020DA
:104E7000F0B400082DE9FC5F04460D463C4830F8CC
:104E800014603C4830F81470042C01D1182000E064
:104E900020208046042C08D1B5F5534F02D14FF4A1
:104EA000534003E04FF6202000E02846814642F6BA
:104EB0004F20854202D0B5F5534F01D1012000E0CB
:104EC00000208246042C09D10D2020233A46CC2113
:104ED000CDE90009304601F029FA08E00D20202331
:104EE0003A46CC21CDE90009304600F05DFB22486E
:104EF000A0F80090BAF1000F01D1042C04D14FF6B4
:104F0000FF701E4908800BE00CB1022C04D142F660
:104F100049101A49088003E041F6E3001749088068
:104F2000042C12D1164850F824001821A7EB080BC6
:104F3000CDE900100BEBDB7106EB610188B21823A1
:104F40004246D021FCF73AFC0FE00020A7EB080B0B
:104F50000BEBDB7106EB6101009088B2084951F858
:104F600024201023D421FCF75BFDBDE8FC9F00004A
:104F7000E8B50008F2B500080C0000200A00002087
:104F8000FCB500082DE9FC5F04460D463B4830F8AF
:104F900014603B4830F81470042C01D1182000E054
:104FA00020208046042C08D1B5F5534F02D14FF490
:104FB000534003E04FF6202000E02846814642F6A9
:104FC0004F20854202D0B5F5534F01D1012000E0BA
:104FD00000208246042C09D10D2020233A46CC2102
:104FE000CDE90009304601F0F3F908E00D20202357
:104FF0003A46CC21CDE90009304600F0F3FA2148C9
:10500000A0F80090BAF1000F01D1042C04D14FF6A2
:10501000FF701D49088009E024B94EF207001A49C3
:10502000088003E041F6E30017490880042C12D100
:10503000164850F824001821A7EB080BCDE9001002
:105040000BEBDB7106EB610188B218234246D021DD
:10505000FCF7B4FB0FE00020A7EB080B0BEBDB71B8
:1050600006EB6101009088B2084951F82420102312
:10507000D421FCF7D5FCBDE8FC9F000010B6000869
:105080001AB600080C0000200A00002038B60008FC
:105090002DE9FC5F04460D463C4830F814603C485E
:1050A00030F81470042C01D1182000E02020804634
:1050B000042C08D1B5F5534F02D14FF4534003E00F
:1050C0004FF6202000E02846814642F64F208542D8
:1050D00002D0B5F5534F01D1012000E000208246F7
:1050E000042C09D10D2020233A46CC21CDE900091A
:1050F000304601F0BFF908E00D2020233A46CC21CC
:10510000CDE90009304600F08BFA2248A0F8009063
:10511000BAF1000F01D1042C04D14FF6FF701E49E3
:1051200008800BE00CB1022C04D142F649101A4958
:10513000088003E041F6E30017490880042C12D1EF
:10514000164850F824001821A7EB080BCDE90010F1
:105150000BEBDB7106EB610188B218234246D021CC
:10516000FCF72CFB0FE00020A7EB080B0BEBDB712F
:1051700006EB6101009088B2084951F82420102301
:10518000D421FCF74DFCBDE8FC9F00004CB60008A4
:1051900056B600080C0000200A00002060B6000887
:1051A0002DE9FC5F04460D463B4830F814603B484F
:1051B00030F81470042C01D1182000E02020804623
:1051C000042C08D1B5F5534F02D14FF4534003E0FE
:1051D0004FF6202000E02846814642F64F208542C7
:1051E00002D0B5F5534F01D1012000E000208246E6
:1051F000042C09D10D2020233A46CC21CDE9000909
:10520000304601F089F908E00D2020233A46CC21F0
:10521000CDE90009304600F021FA2148A0F80090BD
:10522000BAF1000F01D1042C04D14FF6FF701D49D3
:10523000088009E024B94EF207001A49088003E00B
:1052400041F6E30017490880042C12D1164850F8A3
:1052500024001821A7EB080BCDE900100BEBDB7144
:1052600006EB610188B218234246D021FCF7A6FA6A
:105270000FE00020A7EB080B0BEBDB7106EB6101E5
:10528000009088B2084951F824201023D421FCF75B
:10529000C7FBBDE8FC9F000074B600087EB600089E
:1052A0000C0000200A00002088B600082DE9FC4709
:1052B00004460D46264830F81460264830F814702D
:1052C0002549095D9122A2EB011000EBD07106EB9C
:1052D00061011FFA81F842F64F20854202D14FF654
:1052E000FF7001E041F6E300814642F64F2085421F
:1052F00002D14FF6FF7001E042F64F2082460E20A9
:10530000462391223946CDE90005304600F0B6F833
:105310001248A0F800901248058000200090114823
:1053200050F8242007F1080081B210234046FCF712
:1053300077FB0B48058007F11C0291B206F132029F
:1053400090B2094A52F8243052469847BDE8FC878B
:10535000C4B30008CCB3000808B400080A00002059
:105360000C000020F8B30008E8B300087CB5044640
:10537000C4EB0410282101EB40051A480078844250
:1053800002D14DF2DF7001E04FF6FF7006460620B5
:105390001A234FF4A0722946CDE90006002000F040
:1053A0007DFE10480078844201D1012000E00020F9
:1053B000024605F10D0081B21220FEF7D3FE41F640
:1053C000E300094908800948068000200090084849
:1053D00050F82420681D81B210232220FCF720FB06
:1053E0007CBD0000470000200A0000200C000020C7
:1053F00034B400087CB50446C4EB0410282101EB4A
:1054000040051A480078844202D14DF2DF7001E075
:105410004FF6FF70064606201A234FF4A072294665
:10542000CDE90006002000F0DDFE1048007884423F
:1054300001D1012000E00020024605F10D0081B2FB
:105440001220FEF7ADFE41F6E30009490880094845
:10545000068000200090084850F82420681D81B282
:1054600010232220FCF7DCFA7CBD00005500002050
:105470000A0000200C000020DCB400082DE9FC47E5
:1054800004460D4617469846DDE90A694DF29A60D2
:10549000AA1C91B2A21CCDE9006090B243463A46E4
:1054A00000F0AAFD43463A4629462046CDE9006968
:1054B00000F0A2FDBDE8FC872DE9FC4704460D463F
:1054C00017469846DDE90A694DF29A60AA1C91B226
:1054D000A21CCDE9006090B243463A4600F0DEFDE2
:1054E00043463A4629462046CDE9006900F0D6FDFC
:1054F000BDE8FC872DE9FC4704460D461746984653
:10550000DDE90A694DF29A60AA1C91B2A21CCDE9AC
:10551000006090B243463A4600F012FE43463A46D7
:1055200029462046CDE9006900F00AFEBDE8FC8767
:105530002DE9FC4704460D4617469846DDE90A6901
:105540004DF29A60AA1C91B2A21CCDE9006090B203
:1055500043463A4600F046FE43463A462946204630
:10556000CDE9006900F03EFEBDE8FC872DE9FC476F
:1055700004460D4617469846DDE90A694DF29A60E1
:10558000AA1C91B2A21CCDE9006090B243463A46F3
:1055900000F07AFE43463A4629462046CDE90069A6
:1055A00000F072FEBDE8FC872DE9FC4704460D467D
:1055B00017469846DDE90A694DF29A60AA1C91B235
:1055C000A21CCDE9006090B243463A4600F0AEFE20
:1055D00043463A4629462046CDE9006900F0A6FE3A
:1055E000BDE8FC872DE9FC4704460D461746984662
:1055F000DDE90A694DF29A60AA1C91B2A21CCDE9BC
:10560000006090B243463A4600F0E2FE43463A4616
:1056100029462046CDE9006900F0DAFEBDE8FC87A6
:105620002DE9FC4704460D4617469846DDE90A6910
:105630004DF29A60AA1C91B2A21CCDE9006090B212
:1056400043463A4600F016FF43463A46294620466E
:10565000CDE9006900F00EFFBDE8FC872DE9FC47AD
:1056600004460D4617469846DDE90A694DF29A60F0
:10567000AA1C91B2A21CCDE9006090B243463A4602
:1056800000F04AFF43463A4629462046CDE90069E4
:1056900000F042FFBDE8FC877FB54FF6FF700821A0
:1056A0007C23F022CDE9001036212820FFF722FFCD
:1056B0004FF6FF702349088041F6E3002249088035
:1056C0000246224801684220FEF76CFE002436E0C4
:1056D0001F484079A04202D14DF2DF7001E04FF641
:1056E000FF70054606201B4ACDE9000532F814106C
:1056F000194A32F814001C23582200F021FD1148E9
:10570000058041F6E30010490880144850F8241041
:1057100002A8FAF7BFFE02A810210E4ACDE9001038
:1057200032F81420921D91B20B4A32F8142016322E
:1057300090B210233222FCF741F8601CC4B2042C52
:10574000C6DB7FBD0C0000200A0000209CB40008CE
:105750003C01002070B4000868B40008B8B4000828
:105760002DE9FC413548C079042801D1022000E030
:10577000042006463148C079042802D13048006828
:1057800001E03048006807464FF6FF7008217C238F
:10579000F022CDE9001036212820FFF7E7FE4FF672
:1057A000FF702949088041F6E30028490880024635
:1057B00039464220FEF722FE00243BE01F48007AD3
:1057C000A04202D14DF2DF7001E04FF6FF700546B6
:1057D0001A48C079042803D11D4850F8240002E07B
:1057E0001C4850F82400804606201B4ACDE90005DD
:1057F00032F81410194A32F814001C23582200F011
:1058000043FD1148058041F6E3001049088010204F
:10581000114ACDE9000832F81420921D91B20F4AC6
:1058200032F81420103290B210234022FBF7C6FF4A
:10583000601CC4B2B442C1DBBDE8FC81D8020020C8
:1058400070B500086CB500080C0000200A000020AC
:1058500088B5000878B5000820B5000818B500081C
:105860002DE9F04106460F4614461D460A480580BC
:10587000224639463046FBF781FC601EC2B23946EB
:105880003046FBF77BFCA01EC2B239463046FBF720
:1058900075FCBDE8F08100000A0000202DE9FC47FE
:1058A00004460D4616461F46DDE90A893B46324648
:1058B00029462046CDE9008901F0A8F9BDE8FC871A
:1058C0001CB542F64F20232340F23F1200210090E6
:1058D0000846FBF7AFFC4FF6FF701549088042F60B
:1058E0004F201449088014A018210B467822CDE9D6
:1058F000001006210820FBF761FF0020102311A2F1
:105900000A2100908C20FCF78BF810A010210B4688
:105910000822CDE900100A21BC20FBF74FFF002030
:1059200010230BA20A210090C620FCF779F81CBDB9
:105930000A0000200C0000204A303230312D4C4348
:105940004D000000D6F7B2CBB5A500002D00000039
:10595000B4FDBBFA0000000008B542F64F20232337
:1059600040F23F12002100900846FBF763FC4FF61F
:10597000FF701949088042F64F201849088000201E
:10598000102317A20A2100900846FCF749F80020CE
:10599000102316A20A2100906E20FCF741F84FF662
:1059A000FF7301221221B22000F076FE1248007827
:1059B00040B10020102311A20A210090B820FCF76A
:1059C0002FF807E0002010230EA20A210090B82033
:1059D000FCF726F808BD00000A0000200C0000209B
:1059E000BBF9B4A1BCC6CAB1C0E00000B2CBB5A53A
:1059F000D1A1D4F10000000048000020B2E2C1BFF4
:105A0000D6D00000B4FDBBFA000000007FB5002036
:105A100002900390FDF7D2FE06463046FAF75EFD8F
:105A200085B205EBD57040104FF6FF7101EA001406
:105A300042F64F20232340F23F12002100900846F7
:105A4000FBF7F8FB4FF6FF702649088042F64F201F
:105A5000254908800020009024480078244951F806
:105A6000202010230A210820FBF7DAFF1F480078C6
:105A700020B920A102A8FAF70DFD10E01B4800781C
:105A8000012804D11CA102A8FAF704FD07E0174879
:105A90000078022803D119A102A8FAF7FBFC9DF8AF
:105AA000080048B102A810210B462822CDE90010B9
:105AB0000A215620FBF782FE4FF6FF7301221221C6
:105AC000B02000F0E9FD0020C4F5A07505EBD5710C
:105AD0000090C1F34F00102332460A21FBF7A0FFCC
