:020000040800F2
:1000000048090020D5010008D9010008DB010008DB
:10001000DD010008DF010008E10100080000000028
:10002000000000000000000000000000E3010008E4
:10003000E501000800000000E7010008E9010008F0
:10004000EB010008EB010008EB010008EB010008E0
:10005000EB010008EB010008CB090008EF090008DC
:10006000EB010008EB010008EB010008EB010008C0
:10007000EB010008EB010008EB010008EB010008B0
:10008000EB010008EB010008EB010008EB010008A0
:10009000EB010008EB010008EB010008EB01000890
:1000A000EB010008EB010008EB010008EB01000880
:1000B000390A0008EB010008EB010008EB01000819
:1000C000EB010008EB010008EB010008EB01000860
:1000D000EB010008A1540008EB010008EB01000847
:1000E000130A0008EB010008EB010008EB0100080F
:1000F000EB010008EB010008EB010008EB01000830
:10010000EB010008EB010008EB010008EB0100081F
:10011000EB010008EB010008EB010008EB0100080F
:10012000EB010008EB010008EB010008EB010008FF
:1001300000F002F800F03FF80AA090E8000C8244BA
:100140008344AAF10107DA4501D100F034F8AFF297
:10015000090EBAE80F0013F0010F18BFFB1A43F0A5
:100160000103184754AC000074AC0000103A24BFDF
:1001700078C878C1FAD8520724BF30C830C144BF0C
:1001800004680C607047000000230024002500264E
:10019000103A28BF78C1FBD8520728BF30C148BFEA
:1001A0000B607047752902F0D383002070471FB59C
:1001B0001FBD10B510BD02F0CBFD1146FFF7F7FFD4
:1001C00000F024F802F0E9FD03B4FFF7F2FF03BCEE
:1001D00005F0AFF908480047FEE7FEE7FEE7FEE757
:1001E000FEE7FEE7FEE7FEE7FEE7FEE70348044919
:1001F000044A054B70470000310100084803002005
:100200004809002048050020480500200024092056
:1002100003F094FF482005F0FFF903F07BFB7A4ED2
:1002200096F8300086F83000032003F0DFF94FF62F
:10023000FF7003F0C3F975480125C0F8B851306864
:10024000804700F098F804F0EFFF1AE0CCB1012CE1
:1002500036D0022C46D0032C4ED0042C5AD0052C7C
:1002600062D0062C6CD0072C75D0082CEED102F091
:1002700082FA1028EAD1072400F0B8F801F0A5FFAF
:10028000E4E704F0F5FF30B101280BD0022810D0CC
:100290000328F0D0DAE7012400F0A8F8002000F0ED
:1002A0001BFA26E0032400F0A1F8002001F0F5F984
:1002B00037E0052400F09AF8002001F09DFB46E0AD
:1002C00000F012FA102852D01228BFD01328BDD047
:1002D0002028BBD1022400F089F800F002FA00F0D7
:1002E000CFFDB3E700F006FE1028AFD1012400F0E7
:1002F0007DF800F0C8F9A9E701F0D7F9102836D049
:100300002028A3D1042400F071F801F0CBF905F006
:1003100005F89BE705F038F8102897D1032400F082
:1003200065F801F091F991E701F06DFB10281ED0FE
:1003300020288BD1062400F059F801F047FD85E70D
:1003400001F064FD102881D1052400F04FF801F080
:1003500030FB7BE7FFE701F05FFF102807D0202884
:100360008ED1082400F042F802F0E3F96EE7002491
:1003700004F05AFF6AE72648816941F00D01816166
:100380002448416821F0E0614160416841F000711A
:1003900041602148016821F070410160016841F02D
:1003A000405101601C498020143108601B480168DD
:1003B00021F0FF010160016841F0880101601748E8
:1003C0000C30016841F0030101601348001D016811
:1003D00021F070410160016841F0004101600E4868
:1003E0000C30016841F400410160704710B5064CC3
:1003F000002061688847142005F02EF994F8200049
:100400000006F5D410BD00001000002000002242BC
:10041000001002400000014000080140000C0140B3
:100420002DE9F84F8246DDE90A49CD180AEB020BA7
:10043000681EABEB040683B2761E0AEB04080F4677
:10044000B2B21FFA88F0CDF8009003F007FA2D1B26
:10045000ABF101006D1E82B22744ABB2B9B2504677
:10046000CDF8009003F0FAF9B9B21FFA88F04B46C4
:10047000224605F0E5FFB9B2B0B24B46224605F080
:10048000DFFFA9B21FFA88F04B46224605F0D8FFDD
:1004900001B0A9B2B0B24B462246BDE8F04F05F01C
:1004A000CFBF38B542F64F240021232340F23F123C
:1004B0000846009403F0D2F9C9484FF6FF750A21A7
:1004C0000580C8481023C8A2048000240846009470
:1004D00003F0BAFD1023C7A20A216E20009403F096
:1004E000B3FD2B4601221221B22005F0A9FFC4481A
:1004F0004FF010034078009408B1C2A200E0C3A2FC
:100500000A21B82003F0A0FD38BD2DE9FC5F0446A8
:10051000BB4FC0EB0410282101EB40053878844222
:1005200002D14DF2DF7601E04FF6FF760620CDE9ED
:1005300000061A234FF4A07229460020FFF770FF2F
:1005400005F10D001FFA80FA38784FF0120B844243
:1005500001D1012700E00027DFF8849241F6E3088B
:100560000522A9F800805146584603F01BF90422E1
:100570005146584603F016F92FB14346032251461F
:10058000584605F05DFF9748A9F800806D1D06806C
:10059000002000909F48A9B2102350F82420222068
:1005A00003F052FDBDE8FC9F2DE9FC5F044699482D
:1005B0008946143830F814500A30042C30F814608E
:1005C00012D04FF0200712D14FF620284FF00D0126
:1005D000CDE900184FF0200332464FF0CC012846F9
:1005E000FFF71EFF40461EE04FF01807EBE74FF005
:1005F0000D084DF29A60CDE900804FF0200A05F118
:1006000002004FF0CC0B4FF0CE0180B25346324681
:10061000FFF706FF5346324659462846CDE9008982
:10062000FFF7FEFE48466F4908807A496C480C3156
:100630009CB1042C14D041F6E3020280F01B00228E
:10064000009200EBD07051F8242005EB600080B2DE
:100650001023D42103F0F8FCA4E74EF20702ECE7E4
:100660004FF6FF72028009691822CDE90021F01BC4
:1006700000EBD07005EB6000134680B23A46D02103
:1006800003F0B0FB8EE738B5FFF70BFF4EF67B7437
:1006900040F23F15C7232A4624210020009403F08E
:1006A000DDF8EF232A46C8210020009403F0D6F895
:1006B00000242046FFF729FF641CE4B2032CF8D382
:1006C00000244FF6FF7529462046FFF76DFF641C96
:1006D000E4B2052CF7D338BD00B101204849487079
:1006E000DFE64748007870472DE9F0414A4C00208A
:1006F0006168884794F82000414F000602D4012029
:10070000B8705DE0B878E8B30020B870A689E58AD3
:10071000142004F0A1FF002428234FF4A07CFF2024
:10072000C4EB041103EB4101664504D28D4202D3B0
:100730001A318D4204D3641CE4B2032CF0D3044676
:10074000FF2C0BD03878844205D03C70FFF7DDFEDB
:100750003878FFF7DAFE2046BDE8F081CC3D202D49
:1007600013D22C4A0024143A02F10A0332F814106E
:10077000B14204D833F814502944B14206D8641C5D
:10078000E4B200E01CE0052CF0D30446FF2C17D0A7
:10079000042C17D04DF2DF712046FFF705FF7820BB
:1007A00004F05AFF4FF6FF712046FFF7FDFE64B1DB
:1007B000012C0CD0022C0CD0032C0CD0042C0CD00F
:1007C000FF20C9E74FF62021E6E71220C4E71020FA
:1007D000C2E71320C0E71120BEE72020BCE70000DD
:1007E0000A0000200C000020BBF9B4A1BCC6CAB1AD
:1007F000C0E00000B2CBB5A5D1A1D4F1000000004B
:1008000047000020B2E2C1BFD6D00000B4FDBBFA61
:100810000000000008A80008100000202DE9F84F93
:100820008246DDE90A49CD180AEB020B681EABEBE4
:10083000040683B2761E0AEB04080F46B2B21FFA12
:1008400088F0CDF8009003F009F82D1BABF1010002
:100850006D1E82B22744ABB2B9B25046CDF80090BB
:1008600002F0FCFFB9B21FFA88F04B46224605F0B1
:10087000E7FDB9B2B0B24B46224605F0E1FDA9B2A0
:100880001FFA88F04B46224605F0DAFD01B0A9B206
:10089000B0B24B462246BDE8F04F05F0D1BD2DE980
:1008A000FC470546DDE90A674DF29A60CDE9006034
:1008B0000C46881C81B2A81C9846914680B2FFF76E
:1008C000ADFF43464A4621462846CDE90067FFF77B
:1008D000A5FFBDE8FC872DE9FC410446F8488846A1
:1008E00030F814700A3030F814600D20042C0FD04A
:1008F0004FF020050FD14FF62028CDE900084FF02A
:10090000200332464FF0CC013846FFF787FF0CE05A
:100910004FF01805EEE7CDE900084FF0200332460E
:100920004FF0CC013846FFF7BAFFE649E648A1F898
:100930000080E3491431A4B1042C15D041F6E30240
:100940000280701B0022009200EBD07051F824202E
:1009500007EB600080B21023D42103F075FBBDE8E3
:10096000FC814EF20702EBE74FF6FF720280096945
:100970001822CDE90021701B00EBD07007EB60005E
:10098000134680B22A46D02103F02CFAE7E72DE97E
:10099000F041CE4D07460E466878401C00F00F042B
:1009A00000F0CAFB0146A87884420CD0C8486A7897
:1009B00000F832706A7800EBC20256706A7800EB79
:1009C000C20041606C70BDE8F08110B5C14C206878
:1009D000C00709D0C048D0F8000130B10021002084
:1009E000FFF7D5FF0120206010BD0121F7E710B50A
:1009F000B84C2068800709D5B748D0F8040130B159
:100A000000210120FFF7C3FF0220206010BD01215B
:100A1000F7E710B5AF4C206800040AD5AF48D0F80E
:100A20003C0138B100210220FFF7B1FF4FF4004034
:100A3000206010BD0121F6E74FF08040018AC90710
:100A400008D0018A21F001010182A048416801F526
:100A5000803141607047A24B10B5197A402906D207
:100A600003EB81018861187A401C18720AE00121A9
:100A700003EB8102491C9469C9B254614029F7D340
:100A8000C3F81401187A401E58720020D870987A62
:100A9000FF2801D2401C987210BD10B5904CE07830
:100AA00030B1207A20B1607A04EB8000806910BDFB
:100AB0002078022806D0A07838B100F03DFBE1682C
:100AC000401A10BDD4F8180110BD606910BD2DE9A1
:100AD000FC411E460C468046154618291BD00827A7
:100AE000104602F059F8774B4FF6FF7278431A80A0
:100AF000754A81B2C1F5A0701680E2B2CDE9002539
:100B0000891C00EBD0708AB2C0F34F0023464146E7
:100B100003F068F923E70C27E2E7F8B50646154627
:100B20000C46084602F038F84FF6FF71654AC0F3EC
:100B30004E0001EA001011806349C0F5A07000EB7F
:100B4000D0700D8000210091C0F34F001023224689
:100B5000314603F079FAF8BD2DE9FC5F83469A46E9
:100B600090468946084602F017F8C0F34E004FF64B
:100B7000FF7606EA0015404602F00EF806EAC004C9
:100B8000C5F5A070001B0E3887B24E484E491023A1
:100B90000680A1F800A0002000904A465946384639
:100BA00003F052FA1021CDE900187819A41C001D99
:100BB0000B46A2B280B2594603F014F9BDE8FC9F7F
:100BC0002DE9FF470026464C029603963C48617883
:100BD000343009B1806804E0A17809B1406800E0D0
:100BE0000068814601F0D8FFC0F34E004FF6FF7752
:100BF00007EA001542F64F280021232340F23F1256
:100C00000846CDF8008002F029FE2F482D49102318
:100C10000780A1F80080009629492078283151F8F2
:100C200020200A21082003F00FFA207820B10128A3
:100C300004D0022804D007E02AA102E02AA100E0A3
:100C40002AA102A801F084FF9DF8080048B11020F5
:100C500002A9CDE90001034628220A21562003F00B
:100C6000C1F83B4601221221B02005F0E9FBC5F591
:100C7000A07000EBD070C0F34F0010234A460A2149
:100C8000009603F0E1F9BDE8FF8770B58CB04FF630
:100C9000FF74C72340F23F1224210020009402F089
:100CA000DDFD08480E4D42F649160480044C2878B4
:100CB000243CE8B1012831D002283ED042E00000B7
:100CC0004CA800080C0000200A0000204C00002066
:100CD00058020020140401400080214200002142FB
:100CE0003C010020205331002053320020430000FB
:100CF000EB79FF2B0DD0F8A2102107A85B1C01F0A7
:100D0000E5FD32463A202168FFF707FF334607AA80
:100D10000EE0F3A107A801F01BFFF2E732463A20EC
:100D20006168FFF7FAFEA879F049334651F82020B0
:100D300010214E20FFF7CBFE04E032463A20A16896
:100D4000FFF7EBFE00F059FA287802280CD0E8787B
:100D500088B1287A78B100906B7AE5A2182101A8B1
:100D60005B1C01F0B3FD0CE032469C20E168FFF70C
:100D7000D4FE0CB070BDAB7AE0A2182101A801F03E
:100D8000A5FD334601AA9C202169FFF7E5FEF0E7A7
:100D90002DE9FF5F4FF6FF780820CDE900084446B3
:100DA0007C23F02236212820FFF779FDD54DD64E41
:100DB000CE4841F6E3072C806438378041683A46D4
:100DC0004220FFF7AAFEB146C84E0024BA46483E6C
:100DD000AB46A6F10807CD484079A04202D14DF2BA
:100DE000DF7500E045460620CDE9000536F8141011
:100DF00037F814001C235822FFF710FDBB48ABF84E
:100E00000050A9F800A050F8241002A801F0A0FE9C
:100E100002A91020CDE9000136F814001023801D2E
:100E200081B237F814003222163080B202F0DAFFB5
:100E3000641CE4B2042CCED3BDE8FF9F38B5FFF7A5
:100E4000BFFEFFF722FF4EF67B700090EF2340F2CB
:100E50003F12C821002002F001FD00244FF6FF756B
:100E600029462046FFF737FD641CE4B2052CF7D372
:100E7000A6480079002802D0BDE8384088E738BD90
:100E800070B504464FF48E71A04801F0A4FE9F494E
:100E90000125FF200C708D724D718D71C871012C70
:100EA00026D0002008719A48C16941F00101C16152
:100EB0004FF08044002020800B2121854FF6FF71E8
:100EC000A185A0842082A58192494860A5822082C4
:100ED00002231C22014603F05DF8258000F03BF957
:100EE00000F044F9012000F07DF9BDE87040A5E76D
:100EF0000120D7E72DE9FC474FF00108854F834CCF
:100F00001CE0684600F0B0F918E0012802D06078D3
:100F1000A0B903E0684600F0D5F90FE09DF80100A4
:100F200060B1D4F81801401CC4F81801A07818B9B1
:100F300084F80280FFF744FE00F05FF902F022FB24
:100F4000B8787978884207D102F01EFBA078002596
:100F500040B3E078B8B125E0B8786F4911F8302097
:100F600001EBC0018DF800204A788DF80120496816
:100F7000401C00F00F000191B87002F005FB2078D2
:100F80000028C2D1BDE7207960B92078022809D0B5
:100F900000F0D2F82169614A411A914202D32061DE
:100FA00000F02BF95E4E00207168884796F820000B
:100FB000000602D487F80080BCE03878002826D0EC
:100FC0003D70B789F68A142004F046FB20794FF073
:100FD000FF09E8B1454A0020503A02F1080C32F806
:100FE0001010B94209D85831B94206D93CF810104E
:100FF000B14202D81C31B14204D8401CC0B204280E
:10100000EDD34846FF2803D06071FFF7C1FE91E0A1
:10101000CC3E202E11D235490026403901F10A027A
:1010200031F81600B84204D832F816301844B842E5
:1010300004D8761CF6B2052EF2D34E46FF2E79D098
:10104000042E16D04DF2DF713046FFF744FC7820B5
:1010500004F002FB4FF6FF713046FFF73CFC012E17
:101060000AD086B1022E1DD0032E25D0042E28D002
:1010700060E04FF62021E7E7002000F0B3F800F031
:101080006AF8102025E4207920BB6570A570E57012
:101090002572657284F80A806561C4F8185184F875
:1010A000079013E02079A8B901206070A57000F0C6
:1010B00052F8FFF785FD3DE0207958B900F0B6F809
:1010C00038E0207938B16079A071257100F043F8DB
:1010D000FFF7B4FE2EE025E0474D25750000000027
:1010E000474D31202F20474D320000008CA80008CA
:1010F000253032752F2530327500000025303275CD
:10110000000000000C0000200A0000203C0100202C
:10111000001002404C00002058020020E093040020
:1011200010000020E570657000F015F8FFF748FD2D
:10113000FFF7ABFDFF20A5E7994840684FF08042DC
:10114000918C128AD20704D0B1F5004F01D200F57C
:1011500080300844704710B502F014FA904800211E
:1011600041708170BDE8104002F00EBA8D4810B594
:10117000816941F0010181618B48816821F0FF01A3
:101180008160816841F011018160416921F4704101
:10119000416186490A6848F2030002430A60091D5A
:1011A0000A6882430A60091D0A6802430A60091D31
:1011B0000A6802430A607D49143108600121022354
:1011C0000622084602F0E6FE012102230722084615
:1011D00002F0E0FE022328220121BDE8104008466B
:1011E00002F0D8BE7149002848F20302086801D015
:1011F000104300E090430860704700B587B04FF699
:10120000FF7000907E2340F23F126221002002F026
:1012100025FB182101A800F08AF841F6E30301AA92
:1012200018216220FFF753FC07B000BD604A10B5DB
:10123000107808B1012816D1107A002813D0D1787F
:10124000002371B1517A491CB1FBF0F400FB14107A
:1012500050720120D0709370FFF717FDBDE8104069
:10126000AEE45372F5E710BD514A10B5517800292C
:1012700027D10178012924D894780023B4B1D479F6
:10128000A1421ED1417800291BD14068D1689370DA
:10129000401AFF21D171B0F5167F02D35061FFF7DC
:1012A000DAFBFFF78DFCBDE81040EEE44478002C3B
:1012B00007D0D17101219170D370406800F031F8EE
:1012C000EFE710BD70B53A4D04462879002827D1C4
:1012D0006878002824D12078012202FA00F18907D9
:1012E0001ED0617800291BD0A978002681B1E97948
:1012F000884215D06068E968401A6861FFF7ABFB67
:10130000AE702078E871FFF75BFCBDE87040BCE48C
:10131000AA702078E871EE70606800F002F8F2E7D9
:1013200070BD2349C860086100204861704738B526
:1013300005461F480C460078022812D0FFF7ADFB87
:101340001C4A6421904217D23C221E30B0FBF2F0BE
:10135000B0FBF1F2B0FBF1F301FB1202009216A216
:1013600018E0FFF79AFB034601B021462846BDE886
:10137000304015A201F0AABA47F230521044520090
:10138000B0FBF2F0B0FBF1F2B0FBF1F301FB1202A3
:1013900000920EA22146284601F098FA38BD0000BE
:1013A0004C000020001002400000014000040140F9
:1013B0003C010020808D5B00256C752E2530326C41
:1013C00075206D7300000000256C7500256C752E6E
:1013D0002530326C752053002DE9F84F8246DDE947
:1013E0000A49CD180AEB020B681EABEB040683B268
:1013F000761E0AEB04080F46B2B21FFA88F0CDF849
:10140000009002F02BFA2D1BABF101006D1E82B291
:101410002744ABB2B9B25046CDF8009002F01EFAA4
:10142000B9B21FFA88F04B46224605F009F8B9B266
:10143000B0B24B46224605F003F8A9B21FFA88F075
:101440004B46224604F0FCFF01B0A9B2B0B24B46B5
:101450002246BDE8F04F04F0F3BF38B542F64F2402
:101460000021232340F23F120846009402F0F6F9CF
:10147000CB484FF6FF750A210580CA481023CAA23F
:10148000048000240846009402F0DEFD1023CAA266
:101490000A217E20009402F0D7FD2B460122122162
:1014A000C22004F0CDFFC7484FF0100340780094ED
:1014B00008B1C5A200E0C6A20A21C82002F0C4FDFE
:1014C00038BD2DE9FC5F0446BE4FC0EB0410282157
:1014D00001EB40053878844202D14DF2DF7601E01D
:1014E0004FF6FF760620CDE900061A234FF4A072CE
:1014F00029460020FFF770FF05F10D001FFA80FA62
:1015000038784FF0120B844201D1012700E0002708
:10151000DFF88C9241F6E3080522A9F800805146D5
:10152000584602F03FF904225146584602F03AF973
:101530002FB1434603225146584604F081FF994893
:10154000A9F800806D1D068000200090A248A9B275
:10155000102350F82420222002F076FDBDE8FC9FE5
:101560002DE9FC5F04469C488946143830F8145035
:101570000A30042C30F8146012D04FF0200712D13A
:101580004FF620284FF00D01CDE900184FF0200351
:1015900032464FF0CC012846FFF71EFF40461EE0C2
:1015A0004FF01807EBE74FF00D084DF29A60CDE9C8
:1015B00000804FF0200A05F102004FF0CC0B4FF0F5
:1015C000CE0180B253463246FFF706FF53463246FD
:1015D00059462846CDE90089FFF7FEFE4846714985
:1015E00008807D496E4814313CB1022C05D0042C92
:1015F00017D041F6E302028004E042F6491202806D
:10160000042C11D0F01B0022009200EBD07051F896
:10161000242005EB600080B21023D42102F014FDD9
:101620009CE74FF6FF72028009691822CDE900217C
:10163000F01B00EBD07005EB6000134680B23A4619
:10164000D02102F0CFFB89E738B5FFF706FF4EF651
:101650007B7440F23F15C7232A46242100200094C2
:1016600002F0FCF8EF232A46C8210020009402F083
:10167000F5F800242046FFF724FF641CE4B2052C93
:10168000F8D300244FF6FF7529462046FFF768FF80
:10169000641CE4B2052CF7D338BD00B101204949E0
:1016A0004870DAE64748007870472DE9F0414B4C26
:1016B00000206168884794F82000424F000602D459
:1016C0000120B8705DE0B878F0B30020B870A6894A
:1016D000E58A142003F0C0FF002428234FF4A07CE7
:1016E000FF20C4EB041103EB4101664504D28D4297
:1016F00002D31A318D4204D3641CE4B2052CF0D31A
:101700000446FF2C0BD03878844205D03C70FFF79C
:10171000D8FE3878FFF7D5FE2046BDE8F081CC3DF5
:10172000202D13D22C4A0024143A02F10A0332F875
:101730001410B14204D833F814502944B14206D8E9
:10174000641CE4B2052C00E01BE0F0D30446FF2C3F
:1017500017D0042C17D04DF2DF712046FFF700FFA1
:10176000782003F079FF4FF6FF712046FFF7F8FE6F
:1017700064B1012C0CD0022C0CD0032C0CD0042C06
:101780000CD0FF20C9E74FF62021E6E71220C4E77E
:101790001020C2E71320C0E71120BEE72020BCE7DD
:1017A0000A0000200C000020C1A6D1A7CAB5D1E9CB
:1017B000D7A8CFEE00000000B2CBB5A5D1A1D4F1DF
:1017C0000000000054000020B2E2C1BFD6D00000EB
:1017D000B4FDBBFA00000000B0A800081000002013
:1017E0002DE9F84F8246DDE90A49CD180AEB020BD4
:1017F000681EABEB040683B2761E0AEB04080F46A4
:10180000B2B21FFA88F0CDF8009002F027F82D1B35
:10181000ABF101006D1E82B22744ABB2B9B25046A3
:10182000CDF8009002F01AF8B9B21FFA88F04B46D2
:10183000224604F005FEB9B2B0B24B46224604F08F
:10184000FFFDA9B21FFA88F04B46224604F0F8FDCE
:1018500001B0A9B2B0B24B462246BDE8F04F04F049
:10186000EFBD38B542F64F240021232340F23F124A
:101870000846009401F0F2FFAC484FF6FF750A21CC
:101880000580AB481023ABA20480002408460094D6
:1018900002F0DAFB1023AAA20A217E20009402F0B3
:1018A000D3FB2B4601221221C22004F0C9FDA74818
:1018B0004FF010030078009408B1A5A200E0A6A2A2
:1018C0000A21C82002F0C0FB38BD2DE9FC5F0446A8
:1018D000A348894630F814500A30042C30F81460BC
:1018E00012D04FF0200712D14FF620284FF00D01F3
:1018F000CDE900184FF0200332464FF0CC012846C6
:10190000FFF76EFF40461EE04FF01807EBE74FF081
:101910000D084DF29A60CDE900804FF0200A05F1E4
:1019200002004FF0CC0B4FF0CE0180B2534632464E
:10193000FFF756FF5346324659462846CDE90089FF
:10194000FFF74EFF48467A490880854977481431A9
:101950003CB1022C05D0042C18D041F6E3020280E1
:1019600004E042F649120280042C12D0F01B00223F
:10197000009200EBD07051F8242005EB600080B29B
:101980001023D42102F060FBBDE8FC9F4FF6FF72EC
:10199000028009691822CDE90021F01B00EBD0700C
:1019A00005EB6000134680B23A46D02102F01AFAE5
:1019B000EAE738B5FFF755FF4EF67B7440F23F1566
:1019C000C7232A4624210020009401F047FFEF237B
:1019D0002A46C8210020009401F040FF00F073F86F
:1019E00000244FF6FF7529462046FFF76EFF641C62
:1019F000E4B2052CF7D338BD00B10120534908707B
:101A00002FE70020704770B5564C0020616888476A
:101A100094F8200001064D4802D40121417043E0B2
:101A20004178E9B300214170A589E48A142003F0CC
:101A300013FEB5F5A07F05D2282C03D3422C01D28A
:101A4000002070BDFF22CC3C202C10D24449002441
:101A500001F10A0331F81400A84204D833F81460E5
:101A60003044A84204D8641CE4B2052CF2D31446D6
:101A7000FF2C19D0042C19D04DF2DF712046FFF74E
:101A800024FF782003F0E8FD4FF6FF712046FFF7B2
:101A90001CFF74B1012C0ED0022C0ED0032C00E0E0
:101AA00002E00CD0042C0CD0FF2070BD4FF620219A
:101AB000E4E7122070BD102070BD132070BD11200E
:101AC00070BD202070BD2DE9FC414DF2DF7806216C
:101AD000CDE900181A234FF4A07228210020FFF747
:101AE0007FFE124F1225352441F6E3063E80052283
:101AF0002146284601F056FE04222146284601F0E0
:101B000051FE334603222146284604F099FC084939
:101B10003E800020A1F800800090102312A22D2109
:101B2000222002F091FABDE8FC8100000A000020AA
:101B30000C000020D0C5BAC5D3EBCAB1B1EA000091
:101B4000B2CBB5A5D1A1D4F100000000580000200F
:101B5000CAE4B3F6D6D00000B4FDBBFA0000000022
:101B6000BCA9000810000020CAB1B1EACAE4B3F66B
:101B7000000000002DE9F84F8246DDE90A49CD1842
:101B80000AEB020B681EABEB040683B2761E0AEB6F
:101B900004080F46B2B21FFA88F0CDF8009001F0A9
:101BA0005DFE2D1BABF101006D1E82B22744ABB26E
:101BB000B9B25046CDF8009001F050FEB9B21FFA0C
:101BC00088F04B46224604F03BFCB9B2B0B24B461B
:101BD000224604F035FCA9B21FFA88F04B46224693
:101BE00004F02EFC01B0A9B2B0B24B462246BDE8CB
:101BF000F04F04F025BC1CB542F64F2400212323EE
:101C000040F23F120846009401F028FEB2494FF618
:101C1000FF7010230880B1480A21B1A2048000247B
:101C20000846009402F010FA1020B0A1CDE900019E
:101C3000034630220A21522002F0D4F8AC484FF07B
:101C400010034078009418B10A21AAA2AE2002E045
:101C5000AAA20A21BE2002F0F7F91CBD2DE9FC4121
:101C60004FF6FF74C72340F23F1224210020009456
:101C700001F0F4FD984D994842F649162E800480F3
:101C8000002410239FA23A217020009402F0DCF976
:101C9000974F41F6E300288038789E49782251F822
:101CA00020001821CDE900100B4660216E2002F0C3
:101CB00099F82E80102398A292215C20009402F0C3
:101CC000C3F910233A2292219C20009401F0ACFF2A
:101CD00078784FF01003009408B192A200E093A22C
:101CE0009221A82002F0B0F9BDE8FC812DE9FC5F4B
:101CF000044688488946143830F814500A30042CB9
:101D000030F8146012D04FF0200712D14FF620287F
:101D10004FF00D01CDE900184FF0200332464FF08F
:101D2000CC012846FFF726FF40461EE04FF018077B
:101D3000EBE74FF00D084DF29A60CDE900804FF0CF
:101D4000200A05F102004FF0CC0B4FF0CE0180B21B
:101D500053463246FFF70EFF534632465946284651
:101D6000CDE90089FFF706FF48465C4908806949CC
:101D700059481431A4B1042C15D041F6E302028075
:101D8000F01B0022009200EBD07051F8242005EBEC
:101D9000600080B21023D42102F056F9BDE8FC9F08
:101DA0004EF20702EBE74FF6FF7202800969182234
:101DB000CDE90021F01B00EBD07005EB600013466D
:101DC00080B23A46D02102F00DF8E7E738B548482E
:101DD0000121017000214170FFF70DFFFFF73EFF69
:101DE0004EF67B700090EF2340F23F12C821002096
:101DF00001F034FD00244FF6FF7529462046FFF719
:101E000075FF641CE4B2052CF7D338BD2DE9F04111
:101E1000484C00206168884794F820004FF0010684
:101E200001063348A0F1010001D406704DE00178AD
:101E3000C1B300250570A789E48A142003F00CFCC7
:101E4000FF22CC3C202C11D232490024143901F15C
:101E50000A0331F81400B84204D833F814C06044BF
:101E6000B84204D8641CE4B2052CF2D31446FF2C0B
:101E70002BD0042C17D04DF2DF712046FFF736FF30
:101E8000782003F0E9FB4FF6FF712046FFF72EFFA5
:101E900017495CB1012C0CD0022C08D0032C0BD0BC
:101EA000042C14D011E04FF62021E6E70E704D709F
:101EB0000EE01020BDE8F0810878401CC0B2087028
:101EC000052800D30D70FFF7C9FEFF20F2E74E7022
:101ED000FFF791FEF7E700000A0000200C00002049
:101EE000CAB1B1EACAE4B3F60000000053676C005F
:101EF0005B000020CAE4B3F6D6D00000B4FDBBFA04
:101F000000000000B5B1C7B0CAB1B1EAD6DCC6DA8C
:101F100000000000F8A90008CAE4B3F6D7B4CCACBE
:101F200000000000BFAAC6F400000000B9D8B1D577
:101F300000000000100000202DE9F84F8246DDE986
:101F40000A49CD180AEB020B681EABEB040683B2FC
:101F5000761E0AEB04080F46B2B21FFA88F0CDF8DD
:101F6000009001F07BFC2D1BABF101006D1E82B2D5
:101F70002744ABB2B9B25046CDF8009001F06EFCE8
:101F8000B9B21FFA88F04B46224604F059FAB9B2AA
:101F9000B0B24B46224604F053FAA9B21FFA88F0B9
:101FA0004B46224604F04CFA01B0A9B2B0B24B46FF
:101FB0002246BDE8F04F04F043BA7CB5F64942F63C
:101FC000491010250880F5494EF67B702B46088095
:101FD000F3A0CDE9005050224821082001F002FF73
:101FE00000241023F1A248215820009402F02CF87C
:101FF0001023F3A25A210820009402F025F8F3A040
:10200000CDE90050102340225A21482001F0EAFE79
:102010001023F0A26C210820009402F015F8EFA024
:10202000CDE9005010234FF482726C21282001F07A
:10203000D9FE1023F1A27E210820009402F004F8BA
:10204000F1A0CDE9005010235A227E21482001F052
:10205000C9FE1023EFA27E21A820009401F0F4FF16
:10206000EFA0CDE90050102354227E21E82001F09A
:10207000B9FE1023ECA290210820009401F0E4FFA7
:10208000ECA0CDE9005010231A469021482001F021
:10209000A9FE1023E8A290215420009401F0D4FF5F
:1020A0001023E9A2A2210820009401F0CDFFE9A0AD
:1020B000CDE9005010236E22A221482001F092FEAB
:1020C0001023E8A2A221BC20009401F0BDFFE8A0EB
:1020D000CDE9005010234022A221FC2001F082FE15
:1020E0007CBD2DE9FC5F0446E348894630F8145076
:1020F0000A30042C30F8146012D04FF0200712D1AF
:102100004FF620284FF00D01CDE900184FF02003C5
:1021100032464FF0CC012846FFF70EFF40461EE046
:102120004FF01807EBE74FF00D084DF29A60CDE93C
:1021300000804FF0200A05F102004FF0CC0B4FF069
:10214000CE0180B253463246FFF7F6FE5346324682
:1021500059462846CDE90089FFF7EEFE48468F49EB
:102160000880C5498C4814313CB1022C05D0042CA0
:1021700018D041F6E302028004E042F649120280E0
:10218000042C12D0F01B0022009200EBD07051F80A
:10219000242005EB600080B21023D42101F054FF0D
:1021A000BDE8FC9F4FF6FF72028009691822CDE955
:1021B0000021F01B00EBD07005EB6000134680B2ED
:1021C0003A46D02101F00EFEEAE738B500F084F877
:1021D0004EF67B7440F23F15C7232A462421002087
:1021E000009401F03BFBEF232A46C8210020009415
:1021F00001F034FB00F09EF8FFF7DFFE00244FF6FD
:10220000FF7529462046FFF76CFF641CE4B2052CDD
:10221000F7D338BD0020704770B5984C0020616836
:10222000884794F820000106954802D401210170E6
:1022300043E00178F1B300210170A589E48A1420FC
:1022400003F00AFAB5F5A07F05D2282C03D3422C5F
:1022500001D2002070BDFF22CC3C202C10D2864938
:10226000002401F10A0331F81400A84204D833F81D
:1022700014603044A84204D8641CE4B2052CF2D3A4
:102280001446FF2C19D0042C19D04DF2DF712046D2
:10229000FFF727FF782003F0DFF94FF6FF712046A4
:1022A000FFF71FFF74B1012C0ED0022C0ED0032CAF
:1022B0000ED000E001E0042C0CD0FF2070BD4FF6E2
:1022C0002021E4E7122070BD102070BD132070BDE6
:1022D000112070BD202070BD38B542F64F2400217A
:1022E000232340F23F120846009401F0B7FA2A482F
:1022F0004FF6FF750A2105802848102361A204804B
:1023000000240846009401F09FFE102361A20A21D8
:102310009220009401F098FE2B4601221221D62033
:1023200004F08EF810235EA20A21DC20009401F054
:102330008BFE38BD2DE9FC414DF2DF780621CDE959
:1023400000181A234FF4A07228210020FFF7F4FD93
:10235000114F1225352441F6E3063E800522214621
:10236000284601F01FFA04222146284601F01AFAF5
:10237000334603222146284604F062F807493E808E
:102380000020A1F800800090102347A22D212220D8
:1023900001F05AFEBDE8FC810A0000200C0000207C
:1023A0004A303230312D4C434D000000B4E6D6FCAB
:1023B000CABDCAFDD7D6BAC1C3EBBCC60000000077
:1023C000B9CCBCFEB0E6B1BE000000003A205631E8
:1023D0002E300000B5E7D4B4000000003A20412EB2
:1023E000432E2032323056282B2F2D313025292CE8
:1023F0003530487A282B2F2D35252900BBB7BEB3A1
:10240000CEC2B6C8000000003A202D3130437E2BEA
:1024100034304300CFE0B6D4CAAAB6C800000000EA
:102420003A203C3D38352500B9A4D7F7CAB1B3A44A
:10243000000000003A000000D6A7B3D6C1ACD0F827
:10244000B9A4D7F700000000CDE2D0CEB3DFB4E7E7
:10245000000000003A203234306D6D783238306D33
:102460006D000000D5FBBBFAD6D8C1BF000000004C
:102470003A20312E306B670020AA0008100000209F
:102480005D000020CFB5CDB3C9E8D6C3D3EBB9A466
:10249000BEDF0000B2CBB5A5D1A1D4F10000000091
:1024A000B4FDBBFA00000000C9E8B1B8D7D4BCEC59
:1024B000000000002DE9F84F8246DDE90A49CD18F9
:1024C0000AEB020B681EABEB040683B2761E0AEB26
:1024D00004080F46B2B21FFA88F0CDF8009001F060
:1024E000BDF92D1BABF101006D1E82B22744ABB2CA
:1024F000B9B25046CDF8009001F0B0F9B9B21FFA68
:1025000088F04B46224603F09BFFB9B2B0B24B466F
:10251000224603F095FFA9B21FFA88F04B462246E7
:1025200003F08EFF01B0A9B2B0B24B462246BDE81F
:10253000F04F03F085BF38B542F64F240021232326
:1025400040F23F120846009401F088F9BE494FF668
:10255000FF7010230880BD480A21BDA2048000241A
:102560000846009401F070FDBC484FF0100300785D
:10257000009418B10A21BAA2AE2002E0BAA20A2140
:10258000A62001F061FD38BD2DE9FC414FF6FF7436
:10259000C72340F23F1224210020009401F05EF98D
:1025A000A94D42F6491010232880A848B1A23A212B
:1025B000048000244420009401F046FD1020AFA1C7
:1025C000CDE90001034602463A21742001F00AFCDD
:1025D0001023ABA23A218620009401F035FD9F4FD5
:1025E0004EF20706787800B3314629801821012879
:1025F0001ED002281ED0032824D0A4A0CDE90010AC
:10260000182330226421922001F0ECFB7878012815
:1026100001D0022807D12E8010239DA2922158209C
:10262000009401F011FDBDE8FC8141F6E301DCE717
:102630009CA000E09EA0CDE9001018237822642120
:102640006A20E1E79DA0CDE9001018233022642123
:102650009020D9E72DE9FC5F04469948894630F877
:1026600014500A30042C30F8146012D04FF02007B8
:1026700012D14FF620284FF00D01CDE900184FF090
:10268000200332464FF0CC012846FFF713FF4046A7
:102690001EE04FF01807EBE74FF00D084DF29A607F
:1026A000CDE900804FF0200A05F102004FF0CC0B7D
:1026B0004FF0CE0180B253463246FFF7FBFE534641
:1026C000324659462846CDE90089FFF7F3FE4846D1
:1026D0005E4908807A495C481431A4B1042C15D0B5
:1026E00041F6E3020280F01B0022009200EBD07062
:1026F00051F8242005EB600080B21023D42101F0B2
:10270000A3FCBDE8FC9F4EF20702EBE74FF6FF7219
:10271000028009691822CDE90021F01B00EBD0707E
:1027200005EB6000134680B23A46D02101F05AFB17
:10273000E7E738B54948002101704170FFF7FBFE1B
:10274000FFF722FF4EF67B700090EF2340F23F121E
:10275000C821002001F082F800244FF6FF752946B9
:102760002046FFF777FF641CE4B2052CF7D3BDE8E1
:10277000384000F05BB82DE9F041524C0020616810
:10278000884794F8200001063448A0F1010002D4E3
:102790000121017048E00178A1B300250570A689E8
:1027A000E48A142002F058FFFF22CC3C202C10D2E7
:1027B0004349002401F10A0331F81400B04204D85F
:1027C00033F814703844B04204D8641CE4B2052CC9
:1027D000F2D31446FF2C27D0042C14D04DF2DF7115
:1027E0002046FFF737FF782002F036FF4FF6FF71E3
:1027F0002046FFF72FFF4CB1042C07D0012C08D046
:10280000022C09D010E04FF62021E9E700F00EF885
:102810000AE01020BDE8F0811048032105704170E6
:10282000FFF789FEFFF7B0FEFF20F3E710B50B4C72
:1028300001202070FFF77FFE002060702070FFF7FE
:102840007AFEBDE810409FE60A0000200C00002040
:10285000C9E8B1B8D7D4BCEC000000005F0000208C
:10286000BCECB2E2D6D00000BCECB2E2CDEAB3C917
:1028700000000000B9E2B5E7C3C500002600000073
:10288000D5FBBBFAD7D4BCEC000000004F4B0000D6
:10289000C7EBBCECB2E9B4ABB8D0C6F7C1ACBDD3A2
:1028A00000000000474D31204552524F52000000B9
:1028B000474D32204552524F520000002D2D00004E
:1028C00048AA000810000020704700000FB41CB593
:1028D0000C0007AA009001D02044401E074B7B4407
:1028E00069460190069800F00AFA002C03D0694668
:1028F000002000F017FA1CBC5DF814FB4D0400002A
:1029000070B5044685690068C10601D5302600E02F
:102910002026C00707D070BDD4E90121304690477A
:10292000206A401C20626D1EF6D570BD70B504464D
:1029300085690078C00707D170BDD4E90121202046
:102940009047206A401C20626D1EF6D570BD0000C5
:102950002DE9F0410646002410687529314616A578
:1029600010D0AFF30080002802DA404213A507E040
:1029700031688A0701D512A502E0490704D511A5DF
:10298000012401E0AFF3008000210A2206F12407B0
:1029900009E0B0FBF2FCB0FBF2F302FB1C003030AC
:1029A00078541846491C0028F3D123462A4630465D
:1029B000BDE8F04100F045B9000000002D00000026
:1029C0002B000000200000002DE9F05F894604463E
:1029D0004FF0000ADFF874B1FB44C0F820A0204695
:1029E000E1688847002874D0252806D0D4E9012161
:1029F0009047206A401C2062F1E700265F4620468F
:102A0000E16888472028054607DB312D05D2781973
:102A100010F8200C08B10643F1E7B00701D526F005
:102A20000406C4F81CA00027C4F818A02A2D09D059
:102A3000284602F077FD38B304EB8708303DC8F82C
:102A4000185019E059F8041B204604EB87029161E5
:102A5000E1688847012F054618D1E069002820DA8F
:102A600026F020061DE0D8F8180000EB800005EBEA
:102A700040003038C8F818002046E168884705460D
:102A800002F050FD0028EED1012F0AD02E2D08D1E2
:102A90002046E16888477F1C0546022F46F0200645
:102AA000C4DBA069002803DA404246F00106A061B9
:102AB000F00701D026F010066C2D0BD0682D09D040
:102AC0004C2D39D06A2D35D0742D35D07A2D33D098
:102AD00016E038E0E1682F4620468847B8420546B0
:102AE00009D16C2F26D04FF48060E1680643204660
:102AF0008847054604E06C2F1AD04FF480700643D7
:102B00000DB3A5F14100192802D8203546F400661E
:102B10004A462946204626604E46FDF743FB80B1D3
:102B200001280BD0F61D26F0070000F1080956E732
:102B30004020E4E78020D8E70020D6E706F104092A
:102B40004DE7284652E7206ABDE8F09F94800000D8
:102B500040EA0103024630B59B0710D14FF0013423
:102B600000E008C208C91D1B9D4315EAC41FF8D028
:102B700013F0FF0102F8011B0DD01B0AF8E711F852
:102B8000013B002B02F8013B05D011F8013B002B63
:102B900002F8013BF3D130BD10B5431C02E010F840
:102BA000011B71B18107FAD14FF0013202C88C1AB2
:102BB0008C4314EAC211F9D0C01A0A0603D0C01E11
:102BC00010BDC01A10BD0A0401D0801E10BD09023C
:102BD000FCD0401E10BD4FF0000200B513469446D5
:102BE0009646203922BFA0E80C50A0E80C50B1F165
:102BF0002001BFF4F7AF090728BFA0E80C5048BF79
:102C00000CC05DF804EB890028BF40F8042B08BF16
:102C1000704748BF20F8022B11F0804F18BF00F812
:102C2000012B7047704770477047704710B500F030
:102C300087F8006810BD10B5044600F081F8046004
:102C400010BD2DE9F0470D4699469246044600F125
:102C500024080168880604D5E06921F0100121608C
:102C600000E00120A84201DD471B00E00027A16928
:102C70007A1902EB0900081AA0612078C00602D474
:102C80002046FFF73DFE002608E0D4E901211AF8AE
:102C900006009047206A401C761C20624E45F4DBFB
:102CA0002078C0060AD52046FFF72AFE06E0D4E9C0
:102CB000012130209047206A401C2062381EA7F175
:102CC0000107F4DC07E0D4E9012118F8050090477A
:102CD000206A401C2062281EA5F10105F3DC204675
:102CE000FFF724FE2078000602D50220BDE8F08719
:102CF0000120FBE701694A1C02610878704700B5B2
:102D00008FB0CDE901310021059105497944CDE924
:102D1000031011466846FFF757FE0FB000BD0000D4
:102D2000E5FFFFFF0A6802F8010B0A607047D1E96E
:102D300000239A4202D2531C0B60107070470000AF
:102D400000487047E402002000487047E402002079
:102D50007546FFF7F9FFAE4605006946534620F079
:102D60000700854618B020B5FDF740FABDE82040C1
:102D70004FF000064FF000074FF000084FF0000B37
:102D800021F00701AC46ACE8C009ACE8C009ACE8EA
:102D9000C009ACE8C0098D46704710B50446AFF3D2
:102DA00000802046BDE81040FDF70EBA10B50520A2
:102DB00002F070FC10BD000010B500200F49086043
:102DC0000F48006820F470200D490860084600682C
:102DD00040F440300860FFF7E9FF00200949C1F8DE
:102DE0009001FFF7E3FF012004490860FFF7DEFFD1
:102DF00000200449C1F8980110BD0000980121424B
:102E000000080140000021420F48806940F00400A2
:102E10000D4988610846806940F0010088610B48CF
:102E20000068C0F30B0009490860084600680849BB
:102E300008430649086005480C30006840F0F80077
:102E400002490C3108607047001002400008014040
:102E50000080833310B500200F4908600F480068D8
:102E600020F470200D4908600846006840F44030A6
:102E70000860FFF79BFF01200949C1F89001FFF7A7
:102E800095FF012004490860FFF790FF00200449E6
:102E9000C1F8980110BD00009801214200080140CE
:102EA0000000214270B5054600241648006820F451
:102EB0007020144908600846006840F4002008604B
:102EC0001E2002F0E7FB002612E000200E490860F9
:102ED000FFF76CFF01200D49C1F898016006040E50
:102EE00009488838006808B1601CC4B2701CC6B2BA
:102EF000082EEADB15B9FFF7ADFF01E0FFF75CFF35
:102F0000204670BD00080140980121420000214286
:102F100070B504461348006820F470201149086019
:102F20000846006840F44030086000200E49086000
:102F3000FFF73CFF002512E0E0090B490839086063
:102F40006006040E01200949C1F89801FFF72EFF21
:102F5000002005490860FFF729FF681CC5B2082D4D
:102F6000EADB70BD000801409801214200002142C7
:102F700010B50F48006820F470200D49086008461D
:102F8000006840F44030086001200A4908600A499E
:102F9000C1F898011E2002F07DFB00200549086061
:102FA000FFF704FF00200449C1F8980110BD00009C
:102FB00000080140900121420000214210B50E4856
:102FC000006820F470200C4908600846006840F44E
:102FD000403008600120094908601E2002F05AFBB9
:102FE00000200749C1F89001FFF7E0FE01200349E6
:102FF0000839086010BD0000000801409801214216
:103000000000214210B500241348006820F470200D
:10301000114908600846006840F40020086001205B
:103020000E4908600E49C1F89801FFF7BFFE09E09C
:10303000601CC4B2FA2C03DDFFF7C0FF012010BDF5
:10304000FFF7B4FE0548803800680028F0D1034936
:103050000831086000BFF2E70008014090012142FA
:103060000000214210B5FFF7CFFE0020064908609E
:10307000142002F0F1FA01200449C1F89C014FF438
:10308000967002F0E9FA10BD9C0121420000214235
:103090002DE9F04106460F461546FFF769FF7020FF
:1030A000FFF736FFFFF7AEFFF0B2FFF731FFFFF794
:1030B000A9FFFFF75DFF7120FFF72AFFFFF7A2FFCF
:1030C00000240BE0691EA14201D0012100E0002193
:1030D0000846FFF7E7FE3855601CC4B2AC42F1DB8E
:1030E000FFF76CFFBDE8F08171B581B000240026C8
:1030F00060480078401C5F490870084600780A2143
:1031000090FBF1F201FB120018B15A4800780A282E
:1031100067DA012201A90220FFF7BAFF9DF8040037
:1031200000F00F0000287BD09DF8040000F00F0095
:10313000062875DA9DF8040000F00F01FF20884092
:10314000C5B2E843C0B240F0C0004B4981F820004E
:10315000002457E0484890F820000121A140084091
:10316000F0B3464931F8140004226946FFF790FF96
:10317000414890F8300000F00100C0B19DF8010016
:103180009DF8001001F00F0100EB01203A491631C3
:1031900021F814009DF803009DF8021001F00F01C2
:1031A00000EB012134480C3020F8141017E09DF892
:1031B00001009DF8001001F00F0100EB01212E48E5
:1031C0000C3020F814109DF803009DF8021001F057
:1031D0000F0100EB01212848163020F8141001E0FF
:1031E0000EE01DE09DF8000000F0F000802807D000
:1031F00000212148163020F814100A3820F8141045
:10320000601CC4B2052CA5DB01261B48808920B9AF
:103210001948C08A08B9002001900020154908709B
:103220009DF8040000F01F00D0B9134890F820006A
:1032300000F0800040B1104890F8200020F080009D
:103240000D4981F820000BE04FF6FF700A49888194
:10325000C882084690F8200000F0E00081F82000C5
:1032600004480078F02802DD0A2002490870304640
:103270007CBD00000E0000201000002088A7000880
:103280002DE9F84F0546894690469A46AB46AF2051
:10329000009000245DE004EB0410344911F81000A4
:1032A00098F80010884251D104EB04102F4901EB2B
:1032B0004000407898F80110884247D110231A4600
:1032C0004946284600F07EFC00F01EFE00263BE04A
:1032D000002734E0BAF1000F14D104EB04102349A5
:1032E00001EB4000801C805D80213941084020B105
:1032F0001F48008800F002FE1FE01E48008800F012
:10330000FDFD1AE004EB0410184901EB4000801C9D
:10331000805D80213941084018B14946284600F0B7
:1033200031FA681C85B2A5EB0B00102805D15D466B
:1033300009F101001FFA80F903E0781CC7B2082FD9
:10334000C8DB00BF701CC6B2202EC1DB00BF601CF2
:1033500084B2009884429EDB07484388028800219B
:10336000084600F02FFCBDE8F88F00007E8A0008B8
:103370000A0000200C0000202C0100202DE9F84F4D
:103380000546894690469A46AB46062000900024A2
:1033900065E004EB840000EB4410374911F810009D
:1033A00098F80010884257D104EB840000EB4410D9
:1033B000314901EB4000407898F8011088424BD128
:1033C00018231A464946284600F0FCFB00F09CFDF5
:1033D00000263FE0002738E0BAF1000F16D104EBD9
:1033E000840000EB4410244901EB4000801C805D08
:1033F00080213941084020B12048008800F07EFD3E
:1034000021E01F48008800F079FD1CE004EB8400F7
:1034100000EB4410184901EB4000801C805D8021C6
:103420003941084018B14946284600F0ABF9681CFC
:1034300085B2A5EB0B00182805D15D4609F1010006
:103440001FFA80F903E0781CC7B2082FC4DB00BF65
:10345000701CC6B2482EBDDB00BF601C84B2009851
:10346000844296DB0748438802880021084600F022
:10347000A9FBBDE8F88F0000BCA100080A000020ED
:103480000C0000202C0100202DE9F84F054689464C
:1034900090469A46AB460820009000245DE004EB7D
:1034A0008410344911F8100098F80010884251D166
:1034B00004EB84102F4901EB4000407898F801108C
:1034C000884247D120231A464946284600F07AFB15
:1034D00000F01AFD00263BE0002734E0BAF1000FAF
:1034E00014D104EB8410234901EB4000801C805D63
:1034F00080213941084020B11F48008800F0FEFCBF
:103500001FE01E48008800F0F9FC1AE004EB84106C
:10351000184901EB4000801C805D80213941084042
:1035200018B14946284600F02DF9681C85B2A5EB74
:103530000B00202805D15D4609F101001FFA80F932
:1035400003E0781CC7B2082FC8DB00BF701CC6B2EE
:10355000802EC1DB00BF601C84B2009884429EDBD9
:103560000748438802880021084600F02BFBBDE88D
:10357000F88F000078A300080A0000200C0000204B
:103580002C01002072B6704762B6704701464906AA
:10359000084A926942F00102064B9A61064A526853
:1035A00022F0E062044B5A601A4652680A435A609D
:1035B00070470000001002400000014070B5064650
:1035C000002409480588408845430021084600F04A
:1035D000DFFA00F099FC00BF03E0304600F08EFCFB
:1035E000641CAC42F9D370BD2C01002000B5034629
:1035F0000BB1012B1CD1002035498871F0200880C7
:103600004FF4A07048802C2008812A2048812B206C
:10361000888133B9362000F045FC002000F016FC0C
:1036200027E0362000F03EFCC02000F00FFC20E038
:10363000022B01D0032B1CD10120254988714FF4A6
:10364000A0700880F02048802C2008812A20488122
:103650002B208881022B06D1362000F023FCA020ED
:1036600000F0F4FB05E0362000F01CFC602000F0C8
:10367000EDFB1749488900F015FC002000F0E6FB3F
:10368000002000F0E3FB12490988491EC1F30F2016
:1036900000F0DCFB0E490978491EC8B200F0D6FBE9
:1036A0000B49888900F0FEFB002000F0CFFB0020D2
:1036B00000F0CCFB06494988491EC1F30F2000F0F9
:1036C000C5FB03498978491EC8B200F0BFFB00BDA5
:1036D0002C0100202DE9FF4F84B081468A4600204E
:1036E000039002900698A0EB09050798A0EB0A0644
:1036F000CDF80490CDF800A0002D01DD012705E0F4
:103700000DB9002702E04FF0FF376D42002E02DDB9
:103710004FF0010806E016B94FF0000802E04FF044
:10372000FF387642B54201DD2C4600E034464FF0CA
:10373000000B21E0009A91B2019A90B200F022F8B9
:103740000398284403900298304402900398A042C2
:1037500005DD0398001B03900198384401900298FE
:10376000A04205DD0298001B0290009840440090A2
:103770000BF101001FFA80FB601C8345DADD08B005
:10378000BDE8F08F30B504460D462946204600F0CE
:10379000FFF900F0B9FB0248008800F0AFFB30BD34
:1037A0000A0000202DE9F04306460F46904600240B
:1037B00045460320A0EB48093CE07A1B91B2321940
:1037C00090B2FFF7DFFF3A1B91B2721990B2FFF788
:1037D000D9FF3A1991B2721990B2FFF7D3FF7A1953
:1037E00091B2321990B2FFF7CDFF7A1991B2321B24
:1037F00090B2FFF7C7FF3A1991B2721B90B2FFF770
:10380000C1FF7A1B91B2321B90B2FFF7BBFF3A1B8C
:1038100091B2721B90B2FFF7B5FF641CB9F1000FB3
:1038200003DAA000801D814404E0601B80000A30A0
:1038300081446D1EAC42C0DDBDE8F08370B5054625
:103840000E4614463146284600F0A2F9024908897E
:10385000214600F061FB70BD2C0100202DE9FC4FDA
:1038600005460E4617469846DDF82C90002001903C
:103870002748808846F60401884229D12448807967
:10388000012825D1AB46354621480088C01B401E83
:1038900086B247461E480088A0EB0B00401E1FFA68
:1038A00080F800201A4988712A2048812B208881BD
:1038B00043463A4631462846CDF80090FFF7CEFF02
:1038C0000120134988712B2048812A2088811CE01F
:1038D000781B401C80B20190344614E021462846F3
:1038E00000F056F900F010FB4FF0000A06E04846E1
:1038F00000F004FB0AF101001FFA80FA01988245EA
:10390000F5DB601C84B24445E8DDBDE8FC8F0000B7
:103910002C01002010B59248806940F004009049C5
:1039200088610846806940F008008861084680691F
:1039300040F0100088610846806940F0010088610D
:103940000120FFF723FE4FF0333086490860081D41
:1039500000686FF31300091D08600846006882497B
:1039600008438049091D08607E480C30006840F417
:10397000F8507C490C3108607C48006800F0070072
:103980007B49084379490860081D00686FF30A0005
:1039900000F23330091D086074480C30006840F4B0
:1039A000FF6072490C3108607248406820F0706016
:1039B000704948600846406840F0407048600846DA
:1039C000C06820F48040C860C8146649103108609F
:1039D000012001F041FE4FF400606249143108609B
:1039E0000A2001F039FE4FF400605E491031086092
:1039F000782001F031FE112000F054FA782001F017
:103A00002BFE362000F04EFA002000F01FFA3A207C
:103A100000F048FA052000F019FAB22000F042FA4E
:103A20000C2000F013FA0C2000F010FA002000F037
:103A30000DFA332000F00AFA332000F007FAB7201D
:103A400000F030FA352000F001FABB2000F02AFA2D
:103A5000282000F0FBF9C02000F024FA2C2000F010
:103A6000F5F9C22000F01EFA012000F0EFF9C320A2
:103A700000F018FA0B2000F0E9F9C42000F012FA67
:103A8000202000F0E3F9C62000F00CFA0F2000F02F
:103A9000DDF9D02000F006FAA42000F0D7F9A1202B
:103AA00000F0D4F9E02000F0FDF9D02000F0CEF9CC
:103AB000012000F0CBF9082000F0C8F90F2000F039
:103AC000C5F9112000F0C2F92A2000F0BFF9362014
:103AD00000F0BCF9552000F0B9F9442000F0B6F927
:103AE0003A2000F0B3F90B2000F0B0F9062000F006
:103AF000ADF9112000F0AAF9202000F0A7F9E1208B
:103B000000F0D0F9D02000F0A1F9022000F09EF9D9
:103B1000072000F09BF90A2000F098F90B2000F034
:103B200095F9182000F092F9342000F08FF9432025
:103B300000F08CF94A2000F089F92B2000F086F97A
:103B40001B2000F083F91C2000F080F9222000F0F7
:103B50007DF91F2000F07AF9292000F0A3F910BDAB
:103B6000001002400008014033330300000C014004
:103B7000303333330010014010B50246012000E01D
:103B800050430B1EA1F10104E1B2F9D110BD0000B8
:103B900010B503460C460A49488900F083F918120B
:103BA00000F054F9D8B200F051F90549888900F0C5
:103BB00079F9201200F04AF9E0B200F047F910BD9F
:103BC0002C0100202DE9F04104460D461646A019AF
:103BD000401E87B2E818401E1FFA80F81149488934
:103BE00000F060F9201200F031F9E0B200F02EF997
:103BF000381200F02BF9F8B200F028F90949888949
:103C000000F050F9281200F021F9E8B200F01EF996
:103C10004FEA282000F01AF908F0FF0000F016F92A
:103C2000BDE8F0812C0100202DE9F84F80460E46BA
:103C300017461C46B3462046E31704EB5373DB10CC
:103C400021464FEAE47C04EB5C7C4FEAEC0CA4EBED
:103C5000CC0CBCF1000F02D04FF0010C01E04FF092
:103C6000000C6344224604EBD27C4FEA6C0C03FB4D
:103C70000CF3DBB20093A7F12000C7B2002556E099
:103C80000C2C07D107EB47002B4901EB800010F803
:103C9000059013E0102C05D1284800EB071010F810
:103CA00005900BE0182C07D107EBC700244901EB66
:103CB000800010F8059001E0BDE8F88F4FF0000A91
:103CC0002FE009F0800030B11E480288314640469E
:103CD000FFF7B4FD07E00A9828B91B48028831466F
:103CE0004046FFF7ABFD4FEA49604FEA1069701C90
:103CF00086B216484088B04200DCDDE7A6EB0B0038
:103D0000A0420AD15E4608F101001FFA80F80F4870
:103D10000088404500DCCFE706E00AF1010000F032
:103D2000FF0ABAF1080FCCDB00BF681CC5B20098CF
:103D30008542A5DB00BFBFE7BE72000832770008EE
:103D4000227D00080A0000200C0000202C01002029
:103D50002DE9FF4F81B0074691461E460E9D4FF05C
:103D6000000A002439E0301B401EC1B20A20FFF7D0
:103D700003FFB9FBF0F00A21B0FBF1F201FB1208DE
:103D8000BAF1000F16D1701EA04213DDB8F1000F7A
:103D90000ED10020AB4605EBDB71491001FB04712D
:103DA000009088B22B4620220299FFF73DFF12E0D7
:103DB0004FF0010A0020AB4605EBDB71491001FB17
:103DC0000471009088B208F13001CAB22B46029902
:103DD000FFF72AFF00BF601CC4B2B442C3DB05B0CA
:103DE000BDE8F08F2DE9F84704460D469046994608
:103DF000DDE9096704F0FF0A08EB04001FFA80F808
:103E000009EB05001FFA80F916E0444502DB544631
:103E1000A81985B24D4500DB14E0002000903A78E7
:103E2000334629462046FFF7FFFE304606EBD071A9
:103E300004EB61018CB27F1C38787E2802DC387874
:103E40002028E2DA00BFBDE8F88700004FF4807157
:103E5000124A116000BF111F09684EF680721140AE
:103E600000F07F02114300F0800241EA42110B4A48
:103E7000121F11600A4909684FF60702114000F449
:103E80007F4241EA5211064A116000BF5115034AB0
:103E9000121D1160121F11607047000010080140D0
:103EA0000C0C01404FF48071124A116000BF11499F
:103EB000083909684EF68072114000F07F02114304
:103EC00000F0800241EA42110A4A083A11600A49A8
:103ED00009684FF60702114000F47F4241EA52118F
:103EE000054A116000BF5115024A1160121F11608E
:103EF00070470000140801400C0C014000B5034657
:103F00001846FFF7A3FF00BD00B502490889FFF777
:103F1000C9FF00BD2C01002030B505460C462846DF
:103F2000FFF7C0FF2046FFF7E9FF30BD00B50020D6
:103F300015490861C8601420486100208861C86183
:103F40000846006840F001000860084640680F49D4
:103F500008400D494860084600680D4908400A4974
:103F600008600846006820F4802008600846406821
:103F700020F4FE0048600020886000214FF00060BF
:103F800000F058F800BD0000001002400000FFF8EB
:103F9000FFFFF6FE2DE9F0410746884614461D4610
:103FA000284600F033F8C5F1040007FA00F60F20A8
:103FB000284100EA0800064306F00F06E21704EB6A
:103FC000D2625211920002F1E022D2F80021214681
:103FD000E31704EBD3635B11A4EB431C012303FA47
:103FE0000CF31A432046E31704EBD3635B119B00E9
:103FF00003F1E023C3F800210348005D40EA061006
:1040000001490855BDE8F08100E400E001460723BE
:1040100023EA01021202054B18684FF6FF0318400D
:10402000034B18431043014B186070470CED00E040
:104030000000FA05024A0A400243024B1A60704728
:1040400080FFFF1F08ED00E02DE9F84706460F4608
:1040500015461C46DDF82480B1464FF0000A65E0A5
:10406000BAF1000F3AD104EBD471334A1288A2EBB3
:104070006101B14204DB30494988091BB94201DAC8
:10408000BDE8F8872878802802DD4FF0010A4DE06E
:1040900028780D2804D1381987B24E466D1C1BE0D4
:1040A000182C0BDBCDF800802A78182339463046CF
:1040B000FFF7BAFD06F10C0086B20DE0CDF80080E6
:1040C0002A78234639463046FFF7AEFD204604EBFA
:1040D000D07106EB61018EB26D1C27E01648008896
:1040E000001BB04204DB14484088001BB84200DAD1
:1040F000C6E74FF0000A202C06D143462A4639462F
:104100003046FFF7C1F90EE0182C06D143462A4687
:1041100039463046FFF732F905E043462A4639462C
:104120003046FFF7ADF8AD1C301986B2287800286C
:1041300096D100BFA4E700002C01002030B5044652
:104140000025FFF7F3FE1F48006840F480301D494A
:10415000086000BF1B480068400C0028FAD04FF4EC
:10416000806018494860A01EC4B20846406840EA12
:10417000844048600846406840F4803048601248F7
:10418000006840F03200104908600E48006840F0B6
:1041900080700C49086000BF0A480068400E002883
:1041A000FAD00848406840F002000649486005E03F
:1041B00004484068C0F3870505F00305022DF7D1D8
:1041C00030BD000000100240002002402DE9FC5FDD
:1041D00004460D4617461E46DDE90EABDDE90C89A7
:1041E0004FF478405749088057A01021CDE90010BE
:1041F000564843880288A0212820FFF7F3FD54A0E9
:104200001021CDE90010514843880288A021782070
:10421000FFF7E8FD4FA01021CDE900104B4843887F
:104220000288B4212820FFF7DDFD4BA01021CDE945
:104230000010464843880288B4217820FFF7D2FD59
:1042400046A01021CDE90010404843880288C821CB
:104250002820FFF7C7FD42A01021CDE900103B4800
:1042600043880288C8217820FFF7BCFD3DA01021BB
:10427000CDE90010354843880288DC212820FFF76B
:10428000B1FD39A01021CDE90010304843880288E3
:10429000DC217820FFF7A6FD34A01021CDE9001025
:1042A0002A4843880288F0212820FFF79BFD102030
:1042B00004232246A02100904020FFF749FD102052
:1042C00004232A46A02100909020FFF741FD1020F2
:1042D00004233A46B42100904020FFF739FD102016
:1042E00004233246B42100909020FFF731FD1020C6
:1042F00004234246C82100904020FFF729FD1020EA
:1043000004234A46C82100909020FFF721FD102089
:1043100004235246DC2100904020FFF719FD1020B5
:1043200004235A46DC2100909020FFF711FD102055
:1043300003230090F0216020109AFFF709FDBDE8EB
:10434000FC9F00000A00002078313A002C01002078
:1043500079313A0078323A0079323A0078333A00CB
:1043600079333A0078343A0079343A006661632050
:1043700069733A0000B597B0002012900B9012902C
:104380001F20FE4908804FF6FF70FD490880FFF7A7
:1043900015F94FF47840F94908804FF6FF70FFF7A0
:1043A0000DF90020F5490880F648006810216423C3
:1043B000A022CDE9001028210846FFF713FD4FF495
:1043C00078421421084600F001FC0020EE4981F8F3
:1043D00020004862CDE3EC4840680A9001200A9929
:1043E0008847E94890F8200000F0C00040286FD1CD
:1043F00000200B90E44890F8200020F04000E249B3
:1044000081F820000846818913AA129822F820100A
:10441000DD48C18A129802EB800041801298401C4E
:10442000C0B212901298012806D0022815D0032895
:1044300029D0042810D141E04FF6FF72142108461C
:1044400000F0C4FBD1480088143880B24FF47842A1
:1044500014210A9000F0BAFB7DE3CC4800881438A0
:1044600080B24FF6FF7214210A9000F0AFFBC748EC
:104470004088143880B24FF4784201460A901420E4
:1044800000F0A4FB67E3C1484088143880B24FF6BF
:10449000FF7201460A90142000F098FBBB48408848
:1044A000143880B20A90B9480088143880B24FF4AA
:1044B000784209900A9900F089FB4CE3BDF84C0062
:1044C000BDF85010401A0A90002802DB0A9802E05A
:1044D00042E30A9840420F90BDF84E1013A8C088DE
:1044E000081A0A90002801DB0A9801E00A98404265
:1044F0000E900F9840430F900E9840430E90DDE9C8
:104500000E100844059002F078F9CDE9060102F09A
:1045100003F9CDE9080102F043F980B21190BDF82A
:104520005400BDF85810401A0A90002801DB0A9880
:1045300001E00A9840420F9013A84189C089081AE7
:104540000A90002801DB0A9801E00A9840420E9088
:104550000F9840430F900E9840430E90DDE90E10E7
:104560000844059002F049F9CDE9060102F0D4F8BB
:10457000CDE9080102F014F980B21090109802F011
:1045800049FD0990119802F045FD0890099902F043
:104590002BFC0A9002F09AFBCDE90C014FF0663239
:1045A0007B4BDDE90C0102F03BF90AD3794A7A4BE7
:1045B000DDE90C0102F06EFA03D3119808B11098EE
:1045C000F0BB0020129071484088143880B20A90E5
:1045D0006E480088143880B24FF6FF7209900A992D
:1045E00000F0F4FA4FF478421421084600F0EEFA95
:1045F00000226A4BDDE90C0102F04EF9CDE9080119
:1046000002F0CEF880B213A90A90C989BDF85820EB
:1046100013AB5B89CDE90132CDE90310BDF854003D
:10462000009013A8C0880990BDF850000890BDF80C
:104630004E000790BDF84C00069007A90EC900E097
:1046400002E0FFF7C3FD94E2BDF84C00BDF8541042
:10465000401A0A90002801DB0A9801E00A984042BB
:104660000F90BDF84E1013A84089081A0A90002830
:1046700001DB0A9801E00A9840420E900F984043EF
:104680000F900E9840430E90DDE90E1008440590FF
:1046900002F0B3F8CDE9060102F03EF8CDE90801D9
:1046A00002F07EF880B21190BDF85000BDF85810AD
:1046B000401A0A90002801DB0A9801E00A9840425B
:1046C0000F9013A8C188C089081A0A90002801DB3E
:1046D0000A9801E00A9840420E900F9840430F90CC
:1046E0000E9840430E90DDE90E100844059002F04C
:1046F00084F8CDE9060102F00FF8CDE9080102F0D7
:104700004FF880B21090109802F084FC0990119834
:1047100002F080FC0890099902F066FB0A9002F012
:10472000D5FACDE90C014FF06632194BDDE90C01E9
:1047300002F076F806D3174A174BDDE90C0102F0B8
:10474000A9F953D20020129010484088143880B242
:104750000A900E480088143880B24FF6FF72099014
:104760000A9900F033FA4FF478421421084600F019
:104770002DFA0022094BDDE90C0111E00A000020AE
:104780000C00002094A70008100000202C0100203D
:104790006666EE3FCDCCCCCCCCCCF03F000059408F
:1047A00002F07AF8CDE9080101F0FAFF80B213A90E
:1047B0000A90C989BDF8582013AB5B89CDE9013255
:1047C000CDE90310BDF85400009013A8C0880990EB
:1047D000BDF850000890BDF84E000790BDF84C00A1
:1047E000069007A90EC9FFF7F1FCC2E1BDF8500021
:1047F000BDF85410401A0A90002801DB0A9801E025
:104800000A9840420F9013A8C1884089081A0A905C
:10481000002801DB0A9801E00A9840420E900F98A8
:1048200040430F900E9840430E90DDE90E1008446F
:10483000059001F0E2FFCDE9060101F06DFFCDE941
:10484000080101F0ADFF80B21190BDF84C00BDF839
:104850005810401A0A90002801DB0A9801E00A98D3
:1048600040420F90BDF84E1013A8C089081A0A9054
:10487000002801DB0A9801E00A9840420E900F9848
:1048800040430F900E9840430E90DDE90E1008440F
:10489000059001F0B2FFCDE9060101F03DFFCDE941
:1048A000080101F07DFF80B21090109802F0B2FB79
:1048B0000990119802F0AEFB0890099902F094FA61
:1048C0000A9002F003FACDE90C014FF06632AB4BCF
:1048D000DDE90C0101F0A4FF06D3A94AA94BDDE9EB
:1048E0000C0102F0D7F840D200201290A648408870
:1048F000143880B20A90A4480088143880B24FF669
:10490000FF7209900A9900F061F94FF4784214217E
:10491000084600F05BF900229C4BDDE90C0101F038
:10492000BBFFCDE9080101F03BFF80B213A90A905B
:10493000C989BDF8582013AB5B89CDE90132CDE9B7
:104940000310BDF85400009013A8C0880990BDF86A
:1049500050000890BDF84E000790BDF84C0006903E
:1049600007A90EC9FFF732FC03E1BDF85000BDF8FE
:104970004C10401A089002F035FB0A9082480088DB
:104980002838089002F02EFB09900A9902F02CFAC0
:104990007F494862BDF85000BDF84C1008440590AE
:1049A00002F020FB06907A48406A0146059006987E
:1049B00002F044FB089074480088069002F02AFB3D
:1049C0000790089902F006FC4FF08041099002F030
:1049D0000BFA0A9002F0CAFA00B26D49888513A852
:1049E0004089BDF84E10401A089002F0FBFA0A9078
:1049F000654840882838089002F0F4FA09900A992E
:104A000002F0F2F96249886213A84089BDF84E109D
:104A10000844059002F0E6FA06905D48806A014677
:104A20000590069802F00AFB0890574840880690C7
:104A300002F0F0FA0790089902F0CCFB4FF08041A9
:104A4000099002F0D1F90A9002F090FA00B25049B0
:104A5000C8850846406A089002F088FA0990002844
:104A600001DB099801E00998404202280DDC484822
:104A7000806A089002F07AFA0A90002801DB0A980E
:104A800001E00A984042022842DD002012903E4890
:104A90004088143880B20A903B480088143880B2AD
:104AA0004FF6FF7209900A9900F090F84FF478429F
:104AB0001421084600F08AF836A01021CDE9001034
:104AC000314840880A9030480088099002461A21EF
:104AD00028200A9BFFF786F92D4890F8300008B986
:104AE000012000E000202A4981F83000084690F8B3
:104AF000300030B190202C490870D0202B4908702C
:104B000005E0D0202849087090202849087030E03E
:104B10001F20274908804FF6FF70FEF74FFD25A0A4
:104B20001021CDE90010184840880A9016480088E6
:104B3000099002466E2123200A9BFFF753F94FF498
:104B40007A7000F089FD00F04DFA4FF6FF70FEF725
:104B500035FD17B000BD00BF0A2000F07DFD0B98A9
:104B6000401C80B20B900B98B0F57A7F00DD01E01D
:104B700000BF30E400BF00BFEBE700006666EE3F19
:104B8000CDCCCCCCCCCCF03F2C0100200000594047
:104B9000100000205450204E6565642072656164E9
:104BA0006A75737421000000440000204500002055
:104BB0000A000020546F7563682053637265656E48
:104BC0002041646A757374204F4B210070B5044610
:104BD0000D4616461848068004F10D018AB21939AF
:104BE00088B22B462946FEF775FD05F10D0083B20C
:104BF000193881B222462046FEF76CFD6A1C91B23C
:104C0000621C90B2FEF7BEFD6A1C91B2621E90B2A9
:104C1000FEF7B8FD6A1E91B2621C90B2FEF7B2FDBB
:104C20006A1E91B2621E90B2FEF7ACFD06222946C2
:104C30002046FEF7B7FD70BD0A0000200348C0689B
:104C400040F034000149C860704700000020024075
:104C500010B5044600F054F8FFF7F0FF0B48006968
:104C600040F002000949086108464461006940F0CB
:104C70004000086100F044F80448006920F0020098
:104C800002490861FFF7DAFF10BD00000020024072
:104C90000348006940F08000014908617047000046
:104CA0000020024070B504460D4600F029F8FFF7D9
:104CB000C5FF0948006940F00100074908612580E7
:104CC00000F01EF80448006920F001000249086164
:104CD000FFF7B4FF70BD00000020024005480069E6
:104CE00000F0800020B10448024948600348486051
:104CF000704700000020024023016745AB89EFCDDB
:104D000000BF0348C06800F001000028F9D17047D7
:104D10000020024010B52C4890F8300008B1012066
:104D200000E00020012806D1FEF79CF9274826491B
:104D30004860002010BD2648806940F008002449E2
:104D400088610846806940F0010088612148006858
:104D5000C0F30B00204908431E4908601D48083075
:104D6000006840F478401B49083108601649163144
:104D7000A1F10A0000F0BEF818481349486218482B
:104D8000886240F25D10888540F20110C8850846AF
:104D900090F8300000F08000401C81F83000084698
:104DA00090F8300000F0010030B190200D490870FB
:104DB000D0200D49087005E0D0200A4908709020E5
:104DC000094908700020B5E710000020E93000080C
:104DD00000100240040C0140003033882F08BBBD96
:104DE0001A6286BD440000204500002070B50646CA
:104DF0000025002400201F4908601F49C1F8B401A4
:104E00001C49091D0860304600F0E8F9062000F052
:104E100041FC00201849C1F8AC01012000F03AFC27
:104E200001201449086000F035FC00201249C1F847
:104E3000AC0100BF15E04FF6FF7000EA440400200B
:104E40000C490860012000F025FC01200A49C1F846
:104E5000AC0108487438006808B1601C84B2681C52
:104E6000C5B2102DE7DB241101200249091D08609D
:104E7000204670BDAC812142008021422DE9FE43D5
:104E800080460027002406E04046FFF7AFFF2DF8DC
:104E90001400601C84B2052CF6DB002416E0601CB4
:104EA00085B20FE03DF814003DF81510884207DD8B
:104EB0003DF814603DF815002DF814002DF815602C
:104EC000681C85B2052DEDDB601C84B2042CE6DB8A
:104ED0000027012405E03DF81400384487B2601C27
:104EE00084B2042CF7DB032097FBF0F086B2304647
:104EF000BDE8FE832DE9F04104460D4607480078E1
:104F0000FFF7BCFF064606480078FFF7B7FF0746E5
:104F100026802F800120BDE8F081000044000020A1
:104F2000450000207FB504460D4602A903A8FFF7FF
:104F3000E1FF064616B9002004B070BD694601A81D
:104F4000FFF7D8FF06460EB90020F5E7BDF80400CC
:104F5000BDF80C10884206DCBDF80C10BDF804004A
:104F6000323081420CDBBDF80C00BDF804108842E1
:104F700036DCBDF80410BDF80C00323081422FDA67
:104F8000BDF80000BDF80810884206DCBDF8081026
:104F9000BDF80000323081420CDBBDF80800BDF8DE
:104FA000001088421CDCBDF80010BDF8080032304B
:104FB000814215DABDF80C10BDF80420881800EB0A
:104FC000D071C1F34F012180BDF80810BDF8002059
:104FD000881800EBD071C1F34F0129800120ABE7A5
:104FE0000020A9E72DE9FF410020009001900290E8
:104FF000039043208DF8000054208DF801003049C3
:10500000486A304902F01AF8074601F0AFFF04463B
:10501000E0B28DF80200200A8DF80300200C8DF814
:105020000400200E8DF805002549886A254902F004
:1050300005F8074601F09AFF0446E0B28DF8060035
:10504000200A8DF80700200C8DF80800200E8DF83E
:1050500009001B4890F82C008DF80A001848808D34
:10506000000A8DF80B00164890F82E008DF80C0001
:105070001348C08D000A8DF80D00114890F83000DB
:105080008DF80E00A5208DF80F00FFF727FE0E48C3
:10509000FFF7DEFD00250DE01DF80510681C1DF86A
:1050A000000041EA0026084968183146FFF7FAFD7A
:1050B000A81CC5B2102DEFDBFFF7EAFDBDE8FF81AC
:1050C0001000002020BCBE4C00FC00082DE9F0417F
:1050D000044640480068002856D12CB13E49A1F151
:1050E0000A00FFF71FFF3DE03B49A1F10A00FFF76F
:1050F00019FFB8B338491639B1F92C0001F072FF25
:10510000074635491639888901F084FF80463248C0
:105110001638416A404601F091FF0646394601F0D3
:1051200001FE054601F03EFF2B4916398881B1F991
:105130002E0001F057FF074627491639C88A01F0AB
:1051400069FF804624481638816A404601F076FFA0
:105150000646394601F0E6FD054601F023FF1E49EB
:105160001639C8821C48163890F8200000F08000DC
:1051700038BBC0201849163981F8200008468189BB
:105180008182C18AC1831CE01348163890F8200040
:1051900000F0800050B11048163890F8200020F040
:1051A00080000D49163981F820000AE000210A48E4
:1051B00016388182C1834FF6FF70074916398881FE
:1051C000C8820548163890F8200000F08000BDE83D
:1051D000F08100003C8121422600002070B5044689
:1051E000002500BF18E004F0800018B101200C4930
:1051F000086002E000200A4908606006040E0020F2
:10520000074908390860012000F044FA01200549E7
:10521000C1F8AC01681CC5B2082DE4DB70BD00000C
:10522000B48121420080214238B500F0A5FF4EF63E
:105230007B70EF2340F23F12242100900020FEF704
:105240000DFB002406E04FF6FF71204600F048FEFB
:10525000601CC4B2042CF6DB002406E04FF6FF719C
:10526000204600F0CBFD601CC4B2052CF6DB38BD37
:105270002DE9F0412748416800208847254890F8EB
:10528000200000F0800028B9012023490870FF2089
:10529000BDE8F0812048007808B9FF20F8E7002039
:1052A0001D4908701B488689C78A142000F0D4F96C
:1052B0003946304601F068F90546FF2D09D042F61F
:1052C0004F21284600F00CFE782000F0C5F9284652
:1052D000DEE73946304601F00BF90446FF2C17D0C3
:1052E000042C05D14FF62021204600F087FD04E074
:1052F0004DF2DF71204600F081FD782000F0ACF91E
:105300004FF6FF71204600F079FD44F01000BFE732
:10531000FF20BDE7100000204600002010B5044625
:1053200018480021016041600181817204700120F0
:1053300014494871487200208872012008720320C5
:105340000871012C05D10820087101208871C871ED
:1053500014E0032C07D106200A4908710120887146
:105360000320C8710AE0042C08D102200549087105
:10537000012088710420C8710020087200F0F2FA40
:1053800010BD0000D80200202DE9F04141484168DD
:10539000002088473F4890F8200000F0800028B99E
:1053A00001203D490870FF20BDE8F0813A480078AF
:1053B00008B9FF20F8E7002037490870354886898A
:1053C000C78A142000F048F93448807960B1394622
:1053D000304601F0F7F80546FF2D05D02F4805723D
:1053E00000F01AFEFF20DFE73946304601F0A6F84C
:1053F0000446FF2C00D1D7E7042C05D14FF620211D
:10540000204600F0DBF904E04DF2DF71204600F0A9
:10541000D5F9782000F020F94FF6FF71204600F012
:10542000CDF9012C01D11020BEE734B91B48807999
:1054300008B901F063F9FF20B6E7022C0BD1174839
:10544000807930B90120154948700020887000F03B
:10545000DFFEFF20A8E7032C06D11048807908B9A9
:1054600001F080F9FF209FE7042C10D10B488079D0
:1054700010B100F061F808E00020084948700120F0
:10548000887000F0C5FE00F00FFFFF208CE7FF20C2
:105490008AE700001000002057000020D8020020FA
:1054A0001D49098801F0200111B31B49091D098814
:1054B000C8B21A49098801F40041C9B917490988D5
:1054C00001F4804161B10A2803D00021134A118000
:1054D00020E01249098841F40041104A118019E086
:1054E0000D2806D10D49098841F480410B4A1180ED
:1054F00010E00A490988C1F30D01094A50540749CF
:105500000988491C054A118011460988C72901DD0F
:105510000021118070470000003801400800002081
:105520006400002030380A2801D201207047002092
:105530007047014600BF704710B50C48807900B92C
:1055400010BD0A48C079042804D10848007A0749E8
:10555000887203E00548007A044948720020034934
:10556000887100F0FFF900BFEAE70000D8020020D0
:105570002348007850B92248C078032190FBF1F20B
:1055800001FB12001F4951F8200070471C480078A9
:1055900001280BD11A48C178C81701EB5070C01010
:1055A000A1EBC000184A52F82000EEE7144800783A
:1055B00002280AD11248C078032290FBF2F302FBC2
:1055C0001300124A52F82000DFE70D480078032844
:1055D0000AD10B48C078062290FBF2F302FB1300BD
:1055E0000B4A52F82000D0E70548C27802EBD2708F
:1055F0004010A2EB4000074B53F82000C5E7000025
:10560000D802002064A9000870A9000890A9000829
:105610009CA90008B4A900084FF0E021096921F015
:1056200004014FF0E0221161C21700EB5272C2F385
:10563000C702074B1A701946097801EB4102C2EB09
:10564000C1114FF6FF7202EAC101024A1180704790
:10565000000000200200002001460D4A12884A4343
:105660004FF0E0235A6100229A6101221A6100BFC3
:105670004FF0E022106900F001021AB100F480320C
:10568000002AF5D000224FF0E0231A619A6170479A
:105690000200002001460D4A12784A434FF0E023F1
:1056A0005A6100229A6101221A6100BF4FF0E02284
:1056B000106900F001021AB100F48032002AF5D01E
:1056C00000224FF0E0231A619A6170470000002029
:1056D0002DE9FC4707460C4615469846182C01D183
:1056E0000C2000E0082082462846FDF755FA00FB12
:1056F0000AF086B2C6F5A07000EBD071C1F34F0975
:105700004FF6FF70084908800848A0F80080E0B212
:10571000CDE90005B01C82B2234639464846FEF763
:1057200061FBBDE8FC8700000C0000200A0000209F
:1057300008B54FF6FF70C72340F23F1224210090B6
:105740000020FEF78BF819480078194A52F820100B
:1057500042F649123A2000F015F91448007804285E
:105760000BD11248807A134951F8202042F6491390
:1057700010214E20FFF7ACFF12E00C480078012802
:1057800003D00A48007803280AD10848407A0A4919
:1057900051F8202042F6491310214E20FFF798FFC0
:1057A00000F082FD00F094F808BD0000D80200204F
:1057B0002CA900085CA900084CA900082DE9FC47A9
:1057C00004468846314830F81450314830F81460A7
:1057D000042C01D1182000E020200746042C0BD116
:1057E0004FF620200D2120233246CDE90010CC2198
:1057F000284600F0C1FD08E00D2020233246CC21D0
:10580000CDE90008284600F0E9FB042C02D14FF650
:10581000202000E040461F49088024B94EF20700CE
:105820001D4908800AE0042C04D14FF6FF701A4984
:10583000088003E041F6E30017490880042C12D1E8
:10584000164850F824001821A6EB0709CDE90010EE
:1058500009EBD97105EB610188B218233A46D021D2
:10586000FEF7C0FA0FE00020A6EB070909EBD9719B
:1058700005EB6101009088B2084951F824201023FB
:10588000D421FEF7E1FBBDE8FC870000D8A80008A2
:10589000E2A800080C0000200A000020FCA8000874
:1058A00038B54EF67B70EF2340F23F12C8210090CE
:1058B0000020FDF7D3FF002406E04FF6FF712046DD
:1058C000FFF77CFF601CC4B2052CF6DB38BD00007E
:1058D0007FB520241D4843791DA2082102A8FCF7AA
:1058E000F5FF02A8FDF758F94FF6FF7101EAC00570
:1058F000C4F5A070401B0E3886B20846AE2340F2B5
:105900003F129C210090D220FDF7A8FF4FF6FF70B8
:105910001149088042F649101049088000201023E0
:1059200000900F489C2102683046FEF78DFB02A8CC
:105930001021CDE90010A91C8AB23119091D88B2C5
:1059400010239C21FEF74EFA7FBD0000D8020020F4
:1059500025303275000000000C0000200A000020F5
:1059600048A9000810B500F053FCFFF7E1FEFFF76F
:1059700097FF0348807908B100F04EFB10BD00008E
:10598000D80200202DE9F84305460C46164620466D
:10599000FDF702F91FFA80F909EBD97040104FF6B4
:1059A000FF7101EA0017C7F5A07000EBD071C1F3D9
:1059B0004F084FF6FF70074908800748068000200F
:1059C00010232246294600904046FEF73DFBBDE8E5
:1059D000F88300000C0000200A0000202DE9FC41A3
:1059E00004460D46164605F1120291B204F1120268
:1059F00090B23346102200F08FFB012005F1120710
:105A0000BBB204F11207BAB205F10807B9B204F14A
:105A10001207CDE90006B8B200F09CFB012005F1A9
:105A20000C07BBB204F11B07BAB205F11207B9B2F9
:105A300004F11307CDE90006B8B200F08BFB05F1C5
:105A4000120291B27A1E90B23346032200F0F8FCA3
:105A50000120AF1DBBB204F11207BAB22F1DB9B2BB
:105A600004F11207CDE90006B8B200F073FB012083
:105A700005F12007BBB204F11207BAB205F11E0707
:105A8000B9B204F11207CDE90006B8B200F062FB2A
:105A9000012005F11207BBB2A71DBAB205F112072A
:105AA000B9B2271DCDE90006B8B200F053FB0120C2
:105AB00005F11207BBB204F12007BAB205F11207D3
:105AC000B9B204F11E07CDE90006B8B200F042FBFE
:105AD000BDE8FC812DE9FC4104460D46164605F162
